{
  "contractName": "Election",
  "abi": [
    {
      "anonymous": false,
      "inputs": [
        {
          "indexed": false,
          "internalType": "uint256",
          "name": "id",
          "type": "uint256"
        },
        {
          "indexed": false,
          "internalType": "string",
          "name": "fullName",
          "type": "string"
        }
      ],
      "name": "CandidateAdded",
      "type": "event"
    },
    {
      "anonymous": false,
      "inputs": [
        {
          "indexed": false,
          "internalType": "uint256",
          "name": "electionId",
          "type": "uint256"
        },
        {
          "indexed": false,
          "internalType": "uint256",
          "name": "candidateId",
          "type": "uint256"
        }
      ],
      "name": "CandidateAddedToElection",
      "type": "event"
    },
    {
      "anonymous": false,
      "inputs": [
        {
          "indexed": false,
          "internalType": "uint256",
          "name": "electionId",
          "type": "uint256"
        }
      ],
      "name": "ElectionApproved",
      "type": "event"
    },
    {
      "anonymous": false,
      "inputs": [
        {
          "indexed": false,
          "internalType": "uint256",
          "name": "id",
          "type": "uint256"
        },
        {
          "indexed": false,
          "internalType": "string",
          "name": "name",
          "type": "string"
        },
        {
          "indexed": false,
          "internalType": "string",
          "name": "tinh",
          "type": "string"
        },
        {
          "indexed": false,
          "internalType": "string",
          "name": "quan",
          "type": "string"
        },
        {
          "indexed": false,
          "internalType": "string",
          "name": "phuong",
          "type": "string"
        },
        {
          "indexed": false,
          "internalType": "uint256",
          "name": "startTime",
          "type": "uint256"
        },
        {
          "indexed": false,
          "internalType": "uint256",
          "name": "endTime",
          "type": "uint256"
        }
      ],
      "name": "ElectionCreated",
      "type": "event"
    },
    {
      "anonymous": false,
      "inputs": [
        {
          "indexed": false,
          "internalType": "uint256",
          "name": "candidateId",
          "type": "uint256"
        }
      ],
      "name": "LogCandidateId",
      "type": "event"
    },
    {
      "anonymous": false,
      "inputs": [
        {
          "indexed": false,
          "internalType": "address",
          "name": "participant",
          "type": "address"
        },
        {
          "indexed": false,
          "internalType": "string",
          "name": "name",
          "type": "string"
        },
        {
          "indexed": false,
          "internalType": "string",
          "name": "role",
          "type": "string"
        }
      ],
      "name": "ParticipantRegistered",
      "type": "event"
    },
    {
      "inputs": [],
      "name": "candidateCount",
      "outputs": [
        {
          "internalType": "uint256",
          "name": "",
          "type": "uint256"
        }
      ],
      "stateMutability": "view",
      "type": "function",
      "constant": true
    },
    {
      "inputs": [
        {
          "internalType": "uint256",
          "name": "",
          "type": "uint256"
        }
      ],
      "name": "candidates",
      "outputs": [
        {
          "internalType": "uint256",
          "name": "id",
          "type": "uint256"
        },
        {
          "internalType": "string",
          "name": "fullName",
          "type": "string"
        },
        {
          "internalType": "string",
          "name": "birthDate",
          "type": "string"
        },
        {
          "internalType": "string",
          "name": "gender",
          "type": "string"
        },
        {
          "internalType": "string",
          "name": "nationality",
          "type": "string"
        },
        {
          "internalType": "string",
          "name": "ethnicity",
          "type": "string"
        },
        {
          "internalType": "string",
          "name": "hometown",
          "type": "string"
        },
        {
          "internalType": "string",
          "name": "education",
          "type": "string"
        },
        {
          "internalType": "string",
          "name": "degree",
          "type": "string"
        },
        {
          "internalType": "string",
          "name": "occupation",
          "type": "string"
        },
        {
          "internalType": "string",
          "name": "workplace",
          "type": "string"
        },
        {
          "internalType": "string",
          "name": "status",
          "type": "string"
        }
      ],
      "stateMutability": "view",
      "type": "function",
      "constant": true
    },
    {
      "inputs": [],
      "name": "electionCount",
      "outputs": [
        {
          "internalType": "uint256",
          "name": "",
          "type": "uint256"
        }
      ],
      "stateMutability": "view",
      "type": "function",
      "constant": true
    },
    {
      "inputs": [
        {
          "internalType": "uint256",
          "name": "",
          "type": "uint256"
        }
      ],
      "name": "elections",
      "outputs": [
        {
          "internalType": "uint256",
          "name": "id",
          "type": "uint256"
        },
        {
          "internalType": "string",
          "name": "name",
          "type": "string"
        },
        {
          "internalType": "string",
          "name": "tinh",
          "type": "string"
        },
        {
          "internalType": "string",
          "name": "quan",
          "type": "string"
        },
        {
          "internalType": "string",
          "name": "phuong",
          "type": "string"
        },
        {
          "internalType": "uint256",
          "name": "startTime",
          "type": "uint256"
        },
        {
          "internalType": "uint256",
          "name": "endTime",
          "type": "uint256"
        },
        {
          "internalType": "enum Election.Election_status",
          "name": "status",
          "type": "uint8"
        },
        {
          "internalType": "uint256",
          "name": "candidateCount",
          "type": "uint256"
        }
      ],
      "stateMutability": "view",
      "type": "function",
      "constant": true
    },
    {
      "inputs": [
        {
          "internalType": "uint256",
          "name": "",
          "type": "uint256"
        },
        {
          "internalType": "uint256",
          "name": "",
          "type": "uint256"
        }
      ],
      "name": "isCandidateInElection",
      "outputs": [
        {
          "internalType": "bool",
          "name": "",
          "type": "bool"
        }
      ],
      "stateMutability": "view",
      "type": "function",
      "constant": true
    },
    {
      "inputs": [
        {
          "internalType": "uint256",
          "name": "",
          "type": "uint256"
        }
      ],
      "name": "participantAddresses",
      "outputs": [
        {
          "internalType": "address",
          "name": "",
          "type": "address"
        }
      ],
      "stateMutability": "view",
      "type": "function",
      "constant": true
    },
    {
      "inputs": [
        {
          "internalType": "address",
          "name": "",
          "type": "address"
        }
      ],
      "name": "participantRegistered",
      "outputs": [
        {
          "internalType": "bool",
          "name": "",
          "type": "bool"
        }
      ],
      "stateMutability": "view",
      "type": "function",
      "constant": true
    },
    {
      "inputs": [
        {
          "internalType": "address",
          "name": "",
          "type": "address"
        }
      ],
      "name": "participantRoles",
      "outputs": [
        {
          "internalType": "enum Election.Role",
          "name": "",
          "type": "uint8"
        }
      ],
      "stateMutability": "view",
      "type": "function",
      "constant": true
    },
    {
      "inputs": [
        {
          "internalType": "address",
          "name": "",
          "type": "address"
        }
      ],
      "name": "participants",
      "outputs": [
        {
          "internalType": "string",
          "name": "name",
          "type": "string"
        },
        {
          "internalType": "string",
          "name": "phone",
          "type": "string"
        },
        {
          "internalType": "string",
          "name": "role",
          "type": "string"
        },
        {
          "internalType": "bool",
          "name": "isActive",
          "type": "bool"
        }
      ],
      "stateMutability": "view",
      "type": "function",
      "constant": true
    },
    {
      "inputs": [
        {
          "internalType": "address",
          "name": "_participant",
          "type": "address"
        },
        {
          "internalType": "string",
          "name": "_name",
          "type": "string"
        },
        {
          "internalType": "string",
          "name": "_phone",
          "type": "string"
        },
        {
          "internalType": "enum Election.Role",
          "name": "_role",
          "type": "uint8"
        },
        {
          "internalType": "bool",
          "name": "_isActive",
          "type": "bool"
        }
      ],
      "name": "setParticipant",
      "outputs": [],
      "stateMutability": "nonpayable",
      "type": "function"
    },
    {
      "inputs": [
        {
          "internalType": "enum Election.Role",
          "name": "_role",
          "type": "uint8"
        }
      ],
      "name": "getRoleString",
      "outputs": [
        {
          "internalType": "string",
          "name": "",
          "type": "string"
        }
      ],
      "stateMutability": "pure",
      "type": "function",
      "constant": true
    },
    {
      "inputs": [
        {
          "internalType": "string",
          "name": "_name",
          "type": "string"
        },
        {
          "internalType": "string",
          "name": "_tinh",
          "type": "string"
        },
        {
          "internalType": "string",
          "name": "_quan",
          "type": "string"
        },
        {
          "internalType": "string",
          "name": "_phuong",
          "type": "string"
        },
        {
          "internalType": "uint256",
          "name": "_startTime",
          "type": "uint256"
        },
        {
          "internalType": "uint256",
          "name": "_endTime",
          "type": "uint256"
        }
      ],
      "name": "createElection",
      "outputs": [],
      "stateMutability": "nonpayable",
      "type": "function"
    },
    {
      "inputs": [
        {
          "internalType": "string",
          "name": "_fullName",
          "type": "string"
        },
        {
          "internalType": "string",
          "name": "_birthDate",
          "type": "string"
        },
        {
          "internalType": "string",
          "name": "_gender",
          "type": "string"
        },
        {
          "internalType": "string",
          "name": "_nationality",
          "type": "string"
        },
        {
          "internalType": "string",
          "name": "_ethnicity",
          "type": "string"
        },
        {
          "internalType": "string",
          "name": "_hometown",
          "type": "string"
        },
        {
          "internalType": "string",
          "name": "_education",
          "type": "string"
        },
        {
          "internalType": "string",
          "name": "_degree",
          "type": "string"
        },
        {
          "internalType": "string",
          "name": "_occupation",
          "type": "string"
        },
        {
          "internalType": "string",
          "name": "_workplace",
          "type": "string"
        }
      ],
      "name": "addCandidate",
      "outputs": [],
      "stateMutability": "nonpayable",
      "type": "function"
    },
    {
      "inputs": [
        {
          "internalType": "uint256",
          "name": "_candidateId",
          "type": "uint256"
        }
      ],
      "name": "getCandidate",
      "outputs": [
        {
          "internalType": "uint256",
          "name": "",
          "type": "uint256"
        },
        {
          "internalType": "string",
          "name": "",
          "type": "string"
        },
        {
          "internalType": "string",
          "name": "",
          "type": "string"
        },
        {
          "internalType": "string",
          "name": "",
          "type": "string"
        },
        {
          "internalType": "string",
          "name": "",
          "type": "string"
        },
        {
          "internalType": "string",
          "name": "",
          "type": "string"
        },
        {
          "internalType": "string",
          "name": "",
          "type": "string"
        },
        {
          "internalType": "string",
          "name": "",
          "type": "string"
        },
        {
          "internalType": "string",
          "name": "",
          "type": "string"
        },
        {
          "internalType": "string",
          "name": "",
          "type": "string"
        },
        {
          "internalType": "string",
          "name": "",
          "type": "string"
        },
        {
          "internalType": "string",
          "name": "",
          "type": "string"
        }
      ],
      "stateMutability": "nonpayable",
      "type": "function"
    },
    {
      "inputs": [
        {
          "internalType": "uint256",
          "name": "_candidateId",
          "type": "uint256"
        }
      ],
      "name": "approveCandidate",
      "outputs": [],
      "stateMutability": "nonpayable",
      "type": "function"
    },
    {
      "inputs": [
        {
          "internalType": "string",
          "name": "_workplace",
          "type": "string"
        }
      ],
      "name": "getApprovedCandidatesByHometown",
      "outputs": [
        {
          "components": [
            {
              "internalType": "uint256",
              "name": "id",
              "type": "uint256"
            },
            {
              "internalType": "string",
              "name": "fullName",
              "type": "string"
            },
            {
              "internalType": "string",
              "name": "birthDate",
              "type": "string"
            },
            {
              "internalType": "string",
              "name": "gender",
              "type": "string"
            },
            {
              "internalType": "string",
              "name": "nationality",
              "type": "string"
            },
            {
              "internalType": "string",
              "name": "ethnicity",
              "type": "string"
            },
            {
              "internalType": "string",
              "name": "hometown",
              "type": "string"
            },
            {
              "internalType": "string",
              "name": "education",
              "type": "string"
            },
            {
              "internalType": "string",
              "name": "degree",
              "type": "string"
            },
            {
              "internalType": "string",
              "name": "occupation",
              "type": "string"
            },
            {
              "internalType": "string",
              "name": "workplace",
              "type": "string"
            },
            {
              "internalType": "string",
              "name": "status",
              "type": "string"
            }
          ],
          "internalType": "struct Election.Candidate[]",
          "name": "",
          "type": "tuple[]"
        }
      ],
      "stateMutability": "view",
      "type": "function",
      "constant": true
    },
    {
      "inputs": [
        {
          "internalType": "uint256",
          "name": "_id",
          "type": "uint256"
        }
      ],
      "name": "getElection",
      "outputs": [
        {
          "internalType": "uint256",
          "name": "",
          "type": "uint256"
        },
        {
          "internalType": "string",
          "name": "",
          "type": "string"
        },
        {
          "internalType": "string",
          "name": "",
          "type": "string"
        },
        {
          "internalType": "string",
          "name": "",
          "type": "string"
        },
        {
          "internalType": "string",
          "name": "",
          "type": "string"
        },
        {
          "internalType": "uint256",
          "name": "",
          "type": "uint256"
        },
        {
          "internalType": "uint256",
          "name": "",
          "type": "uint256"
        },
        {
          "internalType": "uint256",
          "name": "",
          "type": "uint256"
        }
      ],
      "stateMutability": "view",
      "type": "function",
      "constant": true
    },
    {
      "inputs": [
        {
          "internalType": "uint256",
          "name": "_electionId",
          "type": "uint256"
        }
      ],
      "name": "approveElection",
      "outputs": [],
      "stateMutability": "nonpayable",
      "type": "function"
    },
    {
      "inputs": [
        {
          "internalType": "uint256",
          "name": "_electionId",
          "type": "uint256"
        }
      ],
      "name": "getCandidatesInElection",
      "outputs": [
        {
          "components": [
            {
              "internalType": "uint256",
              "name": "id",
              "type": "uint256"
            },
            {
              "internalType": "string",
              "name": "fullName",
              "type": "string"
            },
            {
              "internalType": "string",
              "name": "birthDate",
              "type": "string"
            },
            {
              "internalType": "string",
              "name": "gender",
              "type": "string"
            },
            {
              "internalType": "string",
              "name": "nationality",
              "type": "string"
            },
            {
              "internalType": "string",
              "name": "ethnicity",
              "type": "string"
            },
            {
              "internalType": "string",
              "name": "hometown",
              "type": "string"
            },
            {
              "internalType": "string",
              "name": "education",
              "type": "string"
            },
            {
              "internalType": "string",
              "name": "degree",
              "type": "string"
            },
            {
              "internalType": "string",
              "name": "occupation",
              "type": "string"
            },
            {
              "internalType": "string",
              "name": "workplace",
              "type": "string"
            },
            {
              "internalType": "string",
              "name": "status",
              "type": "string"
            }
          ],
          "internalType": "struct Election.Candidate[]",
          "name": "",
          "type": "tuple[]"
        }
      ],
      "stateMutability": "view",
      "type": "function",
      "constant": true
    },
    {
      "inputs": [
        {
          "internalType": "uint256",
          "name": "_electionId",
          "type": "uint256"
        },
        {
          "internalType": "uint256",
          "name": "_candidateId",
          "type": "uint256"
        }
      ],
      "name": "addCandidateToElection",
      "outputs": [],
      "stateMutability": "nonpayable",
      "type": "function"
    }
  ],
  "bytecode": "0x608060405234801561001057600080fd5b5061559080620000216000396000f3fe608060405234801561001057600080fd5b506004361061012c5760003560e01c8063778c6439116100ad578063bcfb64eb11610071578063bcfb64eb146103b5578063c2e4fe5a146103e5578063cdc440fe14610415578063d266c08914610445578063ff0dacdc146104615761012c565b8063778c64391461030a578063997d2830146103265780639d71077714610344578063a7c4b72e1461037b578063a9a981a3146103975761012c565b806335b8e820116100f457806335b8e8201461021b5780633f3c0a581461025657806354ffbddb146102865780635e6fef01146102b657806369956046146102ee5761012c565b806309e69ede146101315780631c510002146101645780631d733337146101945780632a5878d0146101c45780633477ee2e146101e0575b600080fd5b61014b6004803603810190610146919061411d565b61047d565b60405161015b9493929190614cd7565b60405180910390f35b61017e60048036038101906101799190614534565b610652565b60405161018b9190614c7f565b60405180910390f35b6101ae60048036038101906101a9919061411d565b610681565b6040516101bb9190614c7f565b60405180910390f35b6101de60048036038101906101d99190614257565b6106a1565b005b6101fa60048036038101906101f5919061450b565b6109ed565b6040516102129c9b9a99989796959493929190614edc565b60405180910390f35b6102356004803603810190610230919061450b565b611025565b60405161024d9c9b9a99989796959493929190614edc565b60405180910390f35b610270600480360381019061026b91906141ed565b611734565b60405161027d9190614cb5565b60405180910390f35b6102a0600480360381019061029b919061450b565b6118df565b6040516102ad9190614bfd565b60405180910390f35b6102d060048036038101906102cb919061450b565b61191e565b6040516102e59998979695949392919061506e565b60405180910390f35b6103086004803603810190610303919061450b565b611b99565b005b610324600480360381019061031f9190614534565b611d54565b005b61032e612264565b60405161033b9190614e91565b60405180910390f35b61035e6004803603810190610359919061450b565b61226a565b604051610372989796959493929190615117565b60405180910390f35b61039560048036038101906103909190614422565b612592565b005b61039f612831565b6040516103ac9190614e91565b60405180910390f35b6103cf60048036038101906103ca919061450b565b612837565b6040516103dc9190614c5d565b60405180910390f35b6103ff60048036038101906103fa919061411d565b613024565b60405161040c9190614c9a565b60405180910390f35b61042f600480360381019061042a9190614216565b613044565b60405161043c9190614c5d565b60405180910390f35b61045f600480360381019061045a9190614146565b61393e565b005b61047b6004803603810190610476919061450b565b613c06565b005b60026020528060005260406000206000915090508060000180546104a090615395565b80601f01602080910402602001604051908101604052809291908181526020018280546104cc90615395565b80156105195780601f106104ee57610100808354040283529160200191610519565b820191906000526020600020905b8154815290600101906020018083116104fc57829003601f168201915b50505050509080600101805461052e90615395565b80601f016020809104026020016040519081016040528092919081815260200182805461055a90615395565b80156105a75780601f1061057c576101008083540402835291602001916105a7565b820191906000526020600020905b81548152906001019060200180831161058a57829003601f168201915b5050505050908060020180546105bc90615395565b80601f01602080910402602001604051908101604052809291908181526020018280546105e890615395565b80156106355780601f1061060a57610100808354040283529160200191610635565b820191906000526020600020905b81548152906001019060200180831161061857829003601f168201915b5050505050908060030160009054906101000a900460ff16905084565b60086020528160005260406000206020528060005260406000206000915091509054906101000a900460ff1681565b60046020528060005260406000206000915054906101000a900460ff1681565b600160028111156106db577f4e487b7100000000000000000000000000000000000000000000000000000000600052602160045260246000fd5b600760003373ffffffffffffffffffffffffffffffffffffffff1673ffffffffffffffffffffffffffffffffffffffff16815260200190815260200160002060009054906101000a900460ff166002811115610760577f4e487b7100000000000000000000000000000000000000000000000000000000600052602160045260246000fd5b146107a0576040517f08c379a000000000000000000000000000000000000000000000000000000000815260040161079790614d31565b60405180910390fd5b600660008154809291906107b3906153c7565b919050555060405180610180016040528060065481526020018b81526020018a81526020018981526020018881526020018781526020018681526020018581526020018481526020018381526020018281526020016040518060400160405280600781526020017f70656e64696e670000000000000000000000000000000000000000000000000081525081525060056000600654815260200190815260200160002060008201518160000155602082015181600101908051906020019061087c929190613ed0565b506040820151816002019080519060200190610899929190613ed0565b5060608201518160030190805190602001906108b6929190613ed0565b5060808201518160040190805190602001906108d3929190613ed0565b5060a08201518160050190805190602001906108f0929190613ed0565b5060c082015181600601908051906020019061090d929190613ed0565b5060e082015181600701908051906020019061092a929190613ed0565b50610100820151816008019080519060200190610948929190613ed0565b50610120820151816009019080519060200190610966929190613ed0565b5061014082015181600a019080519060200190610984929190613ed0565b5061016082015181600b0190805190602001906109a2929190613ed0565b509050507fe83b2a43e7e82d975c8a0a6d2f045153c869e111136a34d1889ab7b598e396a36006548b6040516109d9929190614eac565b60405180910390a150505050505050505050565b6005602052806000526040600020600091509050806000015490806001018054610a1690615395565b80601f0160208091040260200160405190810160405280929190818152602001828054610a4290615395565b8015610a8f5780601f10610a6457610100808354040283529160200191610a8f565b820191906000526020600020905b815481529060010190602001808311610a7257829003601f168201915b505050505090806002018054610aa490615395565b80601f0160208091040260200160405190810160405280929190818152602001828054610ad090615395565b8015610b1d5780601f10610af257610100808354040283529160200191610b1d565b820191906000526020600020905b815481529060010190602001808311610b0057829003601f168201915b505050505090806003018054610b3290615395565b80601f0160208091040260200160405190810160405280929190818152602001828054610b5e90615395565b8015610bab5780601f10610b8057610100808354040283529160200191610bab565b820191906000526020600020905b815481529060010190602001808311610b8e57829003601f168201915b505050505090806004018054610bc090615395565b80601f0160208091040260200160405190810160405280929190818152602001828054610bec90615395565b8015610c395780601f10610c0e57610100808354040283529160200191610c39565b820191906000526020600020905b815481529060010190602001808311610c1c57829003601f168201915b505050505090806005018054610c4e90615395565b80601f0160208091040260200160405190810160405280929190818152602001828054610c7a90615395565b8015610cc75780601f10610c9c57610100808354040283529160200191610cc7565b820191906000526020600020905b815481529060010190602001808311610caa57829003601f168201915b505050505090806006018054610cdc90615395565b80601f0160208091040260200160405190810160405280929190818152602001828054610d0890615395565b8015610d555780601f10610d2a57610100808354040283529160200191610d55565b820191906000526020600020905b815481529060010190602001808311610d3857829003601f168201915b505050505090806007018054610d6a90615395565b80601f0160208091040260200160405190810160405280929190818152602001828054610d9690615395565b8015610de35780601f10610db857610100808354040283529160200191610de3565b820191906000526020600020905b815481529060010190602001808311610dc657829003601f168201915b505050505090806008018054610df890615395565b80601f0160208091040260200160405190810160405280929190818152602001828054610e2490615395565b8015610e715780601f10610e4657610100808354040283529160200191610e71565b820191906000526020600020905b815481529060010190602001808311610e5457829003601f168201915b505050505090806009018054610e8690615395565b80601f0160208091040260200160405190810160405280929190818152602001828054610eb290615395565b8015610eff5780601f10610ed457610100808354040283529160200191610eff565b820191906000526020600020905b815481529060010190602001808311610ee257829003601f168201915b50505050509080600a018054610f1490615395565b80601f0160208091040260200160405190810160405280929190818152602001828054610f4090615395565b8015610f8d5780601f10610f6257610100808354040283529160200191610f8d565b820191906000526020600020905b815481529060010190602001808311610f7057829003601f168201915b50505050509080600b018054610fa290615395565b80601f0160208091040260200160405190810160405280929190818152602001828054610fce90615395565b801561101b5780601f10610ff05761010080835404028352916020019161101b565b820191906000526020600020905b815481529060010190602001808311610ffe57829003601f168201915b505050505090508c565b6000606080606080606080606080606080606060008d11801561104a57506006548d11155b611089576040517f08c379a000000000000000000000000000000000000000000000000000000000815260040161108090614e11565b60405180910390fd5b7f786c3de6cf1fe392b3cb2804dc549c60381197c30c93e07f95b97cdd7d7650e38d6040516110b89190614e91565b60405180910390a16000600560008f8152602001908152602001600020905080600001548160010182600201836003018460040185600501866006018760070188600801896009018a600a018b600b018a805461111490615395565b80601f016020809104026020016040519081016040528092919081815260200182805461114090615395565b801561118d5780601f106111625761010080835404028352916020019161118d565b820191906000526020600020905b81548152906001019060200180831161117057829003601f168201915b50505050509a508980546111a090615395565b80601f01602080910402602001604051908101604052809291908181526020018280546111cc90615395565b80156112195780601f106111ee57610100808354040283529160200191611219565b820191906000526020600020905b8154815290600101906020018083116111fc57829003601f168201915b5050505050995088805461122c90615395565b80601f016020809104026020016040519081016040528092919081815260200182805461125890615395565b80156112a55780601f1061127a576101008083540402835291602001916112a5565b820191906000526020600020905b81548152906001019060200180831161128857829003601f168201915b505050505098508780546112b890615395565b80601f01602080910402602001604051908101604052809291908181526020018280546112e490615395565b80156113315780601f1061130657610100808354040283529160200191611331565b820191906000526020600020905b81548152906001019060200180831161131457829003601f168201915b5050505050975086805461134490615395565b80601f016020809104026020016040519081016040528092919081815260200182805461137090615395565b80156113bd5780601f10611392576101008083540402835291602001916113bd565b820191906000526020600020905b8154815290600101906020018083116113a057829003601f168201915b505050505096508580546113d090615395565b80601f01602080910402602001604051908101604052809291908181526020018280546113fc90615395565b80156114495780601f1061141e57610100808354040283529160200191611449565b820191906000526020600020905b81548152906001019060200180831161142c57829003601f168201915b5050505050955084805461145c90615395565b80601f016020809104026020016040519081016040528092919081815260200182805461148890615395565b80156114d55780601f106114aa576101008083540402835291602001916114d5565b820191906000526020600020905b8154815290600101906020018083116114b857829003601f168201915b505050505094508380546114e890615395565b80601f016020809104026020016040519081016040528092919081815260200182805461151490615395565b80156115615780601f1061153657610100808354040283529160200191611561565b820191906000526020600020905b81548152906001019060200180831161154457829003601f168201915b5050505050935082805461157490615395565b80601f01602080910402602001604051908101604052809291908181526020018280546115a090615395565b80156115ed5780601f106115c2576101008083540402835291602001916115ed565b820191906000526020600020905b8154815290600101906020018083116115d057829003601f168201915b5050505050925081805461160090615395565b80601f016020809104026020016040519081016040528092919081815260200182805461162c90615395565b80156116795780601f1061164e57610100808354040283529160200191611679565b820191906000526020600020905b81548152906001019060200180831161165c57829003601f168201915b5050505050915080805461168c90615395565b80601f01602080910402602001604051908101604052809291908181526020018280546116b890615395565b80156117055780601f106116da57610100808354040283529160200191611705565b820191906000526020600020905b8154815290600101906020018083116116e857829003601f168201915b505050505090509c509c509c509c509c509c509c509c509c509c509c509c505091939597999b5091939597999b565b606060016002811115611770577f4e487b7100000000000000000000000000000000000000000000000000000000600052602160045260246000fd5b8260028111156117a9577f4e487b7100000000000000000000000000000000000000000000000000000000600052602160045260246000fd5b14156117ec576040518060400160405280600581526020017f41444d494e00000000000000000000000000000000000000000000000000000081525090506118da565b600280811115611825577f4e487b7100000000000000000000000000000000000000000000000000000000600052602160045260246000fd5b82600281111561185e577f4e487b7100000000000000000000000000000000000000000000000000000000600052602160045260246000fd5b14156118a1576040518060400160405280600981526020017f494e53504543544f52000000000000000000000000000000000000000000000081525090506118da565b6040518060400160405280600481526020017f4e4f4e450000000000000000000000000000000000000000000000000000000081525090505b919050565b600381815481106118ef57600080fd5b906000526020600020016000915054906101000a900473ffffffffffffffffffffffffffffffffffffffff1681565b600060205280600052604060002060009150905080600001549080600101805461194790615395565b80601f016020809104026020016040519081016040528092919081815260200182805461197390615395565b80156119c05780601f10611995576101008083540402835291602001916119c0565b820191906000526020600020905b8154815290600101906020018083116119a357829003601f168201915b5050505050908060020180546119d590615395565b80601f0160208091040260200160405190810160405280929190818152602001828054611a0190615395565b8015611a4e5780601f10611a2357610100808354040283529160200191611a4e565b820191906000526020600020905b815481529060010190602001808311611a3157829003601f168201915b505050505090806003018054611a6390615395565b80601f0160208091040260200160405190810160405280929190818152602001828054611a8f90615395565b8015611adc5780601f10611ab157610100808354040283529160200191611adc565b820191906000526020600020905b815481529060010190602001808311611abf57829003601f168201915b505050505090806004018054611af190615395565b80601f0160208091040260200160405190810160405280929190818152602001828054611b1d90615395565b8015611b6a5780601f10611b3f57610100808354040283529160200191611b6a565b820191906000526020600020905b815481529060010190602001808311611b4d57829003601f168201915b5050505050908060050154908060060154908060080160009054906101000a900460ff16908060090154905089565b600280811115611bd2577f4e487b7100000000000000000000000000000000000000000000000000000000600052602160045260246000fd5b600760003373ffffffffffffffffffffffffffffffffffffffff1673ffffffffffffffffffffffffffffffffffffffff16815260200190815260200160002060009054906101000a900460ff166002811115611c57577f4e487b7100000000000000000000000000000000000000000000000000000000600052602160045260246000fd5b14611c97576040517f08c379a0000000000000000000000000000000000000000000000000000000008152600401611c8e90614e71565b60405180910390fd5b600060056000838152602001908152602001600020600001541415611cf1576040517f08c379a0000000000000000000000000000000000000000000000000000000008152600401611ce890614e11565b60405180910390fd5b6040518060400160405280600881526020017f617070726f76656400000000000000000000000000000000000000000000000081525060056000838152602001908152602001600020600b019080519060200190611d50929190613ed0565b5050565b60016002811115611d8e577f4e487b7100000000000000000000000000000000000000000000000000000000600052602160045260246000fd5b600760003373ffffffffffffffffffffffffffffffffffffffff1673ffffffffffffffffffffffffffffffffffffffff16815260200190815260200160002060009054906101000a900460ff166002811115611e13577f4e487b7100000000000000000000000000000000000000000000000000000000600052602160045260246000fd5b14611e53576040517f08c379a0000000000000000000000000000000000000000000000000000000008152600401611e4a90614d31565b60405180910390fd5b6000806000848152602001908152602001600020600001541415611eac576040517f08c379a0000000000000000000000000000000000000000000000000000000008152600401611ea390614e51565b60405180910390fd5b600060056000838152602001908152602001600020600001541415611f06576040517f08c379a0000000000000000000000000000000000000000000000000000000008152600401611efd90614db1565b60405180910390fd5b6040518060400160405280600881526020017f617070726f7665640000000000000000000000000000000000000000000000008152508051906020012060056000838152602001908152602001600020600b01604051611f669190614be6565b604051809103902014611fae576040517f08c379a0000000000000000000000000000000000000000000000000000000008152600401611fa590614d71565b60405180910390fd5b60086000838152602001908152602001600020600082815260200190815260200160002060009054906101000a900460ff1615612020576040517f08c379a000000000000000000000000000000000000000000000000000000000815260040161201790614df1565b60405180910390fd5b6000806000848152602001908152602001600020905080600901600081548092919061204b906153c7565b9190505550600560008381526020019081526020016000208160070160008360090154815260200190815260200160002060008201548160000155600182018160010190805461209a90615395565b6120a5929190613f56565b5060028201816002019080546120ba90615395565b6120c5929190613f56565b5060038201816003019080546120da90615395565b6120e5929190613f56565b5060048201816004019080546120fa90615395565b612105929190613f56565b50600582018160050190805461211a90615395565b612125929190613f56565b50600682018160060190805461213a90615395565b612145929190613f56565b50600782018160070190805461215a90615395565b612165929190613f56565b50600882018160080190805461217a90615395565b612185929190613f56565b50600982018160090190805461219a90615395565b6121a5929190613f56565b50600a820181600a019080546121ba90615395565b6121c5929190613f56565b50600b820181600b019080546121da90615395565b6121e5929190613f56565b50905050600160086000858152602001908152602001600020600084815260200190815260200160002060006101000a81548160ff0219169083151502179055507fa4e69db433ebec4ded108fd5357e7b35d8671bc745d7f88a516b6c92f86a046e83836040516122579291906151b1565b60405180910390a1505050565b60015481565b60006060806060806000806000808911801561228857506001548911155b6122c7576040517f08c379a00000000000000000000000000000000000000000000000000000000081526004016122be90614dd1565b60405180910390fd5b60008060008b81526020019081526020016000209050806000015481600101826002018360030184600401856005015486600601548760080160009054906101000a900460ff166001811115612346577f4e487b7100000000000000000000000000000000000000000000000000000000600052602160045260246000fd5b86805461235290615395565b80601f016020809104026020016040519081016040528092919081815260200182805461237e90615395565b80156123cb5780601f106123a0576101008083540402835291602001916123cb565b820191906000526020600020905b8154815290600101906020018083116123ae57829003601f168201915b505050505096508580546123de90615395565b80601f016020809104026020016040519081016040528092919081815260200182805461240a90615395565b80156124575780601f1061242c57610100808354040283529160200191612457565b820191906000526020600020905b81548152906001019060200180831161243a57829003601f168201915b5050505050955084805461246a90615395565b80601f016020809104026020016040519081016040528092919081815260200182805461249690615395565b80156124e35780601f106124b8576101008083540402835291602001916124e3565b820191906000526020600020905b8154815290600101906020018083116124c657829003601f168201915b505050505094508380546124f690615395565b80601f016020809104026020016040519081016040528092919081815260200182805461252290615395565b801561256f5780601f106125445761010080835404028352916020019161256f565b820191906000526020600020905b81548152906001019060200180831161255257829003601f168201915b505050505093509850985098509850985098509850985050919395975091939597565b8181116125d4576040517f08c379a00000000000000000000000000000000000000000000000000000000081526004016125cb90614d91565b60405180910390fd5b6001600281111561260e577f4e487b7100000000000000000000000000000000000000000000000000000000600052602160045260246000fd5b600760003373ffffffffffffffffffffffffffffffffffffffff1673ffffffffffffffffffffffffffffffffffffffff16815260200190815260200160002060009054906101000a900460ff166002811115612693577f4e487b7100000000000000000000000000000000000000000000000000000000600052602160045260246000fd5b146126d3576040517f08c379a00000000000000000000000000000000000000000000000000000000081526004016126ca90614d31565b60405180910390fd5b600160008154809291906126e6906153c7565b9190505550600060015490506000806000838152602001908152602001600020905081816000018190555087816001019080519060200190612729929190613ed0565b5086816002019080519060200190612742929190613ed0565b508581600301908051906020019061275b929190613ed0565b5084816004019080519060200190612774929190613ed0565b5083816005018190555082816006018190555060008160080160006101000a81548160ff021916908360018111156127d5577f4e487b7100000000000000000000000000000000000000000000000000000000600052602160045260246000fd5b0217905550600081600901819055507fc99892518cd74e454ab95290546365ffdffbc46bc9986dc38fe36befcb402e658289898989898960405161281f9796959493929190614fe3565b60405180910390a15050505050505050565b60065481565b606060008211801561284b57506001548211155b61288a576040517f08c379a000000000000000000000000000000000000000000000000000000000815260040161288190614dd1565b60405180910390fd5b600080600084815260200190815260200160002060090154905060008167ffffffffffffffff8111156128e6577f4e487b7100000000000000000000000000000000000000000000000000000000600052604160045260246000fd5b60405190808252806020026020018201604052801561291f57816020015b61290c613fe3565b8152602001906001900390816129045790505b509050600080600190505b838111613018576000808781526020019081526020016000206007016000828152602001908152602001600020604051806101800160405290816000820154815260200160018201805461297d90615395565b80601f01602080910402602001604051908101604052809291908181526020018280546129a990615395565b80156129f65780601f106129cb576101008083540402835291602001916129f6565b820191906000526020600020905b8154815290600101906020018083116129d957829003601f168201915b50505050508152602001600282018054612a0f90615395565b80601f0160208091040260200160405190810160405280929190818152602001828054612a3b90615395565b8015612a885780601f10612a5d57610100808354040283529160200191612a88565b820191906000526020600020905b815481529060010190602001808311612a6b57829003601f168201915b50505050508152602001600382018054612aa190615395565b80601f0160208091040260200160405190810160405280929190818152602001828054612acd90615395565b8015612b1a5780601f10612aef57610100808354040283529160200191612b1a565b820191906000526020600020905b815481529060010190602001808311612afd57829003601f168201915b50505050508152602001600482018054612b3390615395565b80601f0160208091040260200160405190810160405280929190818152602001828054612b5f90615395565b8015612bac5780601f10612b8157610100808354040283529160200191612bac565b820191906000526020600020905b815481529060010190602001808311612b8f57829003601f168201915b50505050508152602001600582018054612bc590615395565b80601f0160208091040260200160405190810160405280929190818152602001828054612bf190615395565b8015612c3e5780601f10612c1357610100808354040283529160200191612c3e565b820191906000526020600020905b815481529060010190602001808311612c2157829003601f168201915b50505050508152602001600682018054612c5790615395565b80601f0160208091040260200160405190810160405280929190818152602001828054612c8390615395565b8015612cd05780601f10612ca557610100808354040283529160200191612cd0565b820191906000526020600020905b815481529060010190602001808311612cb357829003601f168201915b50505050508152602001600782018054612ce990615395565b80601f0160208091040260200160405190810160405280929190818152602001828054612d1590615395565b8015612d625780601f10612d3757610100808354040283529160200191612d62565b820191906000526020600020905b815481529060010190602001808311612d4557829003601f168201915b50505050508152602001600882018054612d7b90615395565b80601f0160208091040260200160405190810160405280929190818152602001828054612da790615395565b8015612df45780601f10612dc957610100808354040283529160200191612df4565b820191906000526020600020905b815481529060010190602001808311612dd757829003601f168201915b50505050508152602001600982018054612e0d90615395565b80601f0160208091040260200160405190810160405280929190818152602001828054612e3990615395565b8015612e865780601f10612e5b57610100808354040283529160200191612e86565b820191906000526020600020905b815481529060010190602001808311612e6957829003601f168201915b50505050508152602001600a82018054612e9f90615395565b80601f0160208091040260200160405190810160405280929190818152602001828054612ecb90615395565b8015612f185780601f10612eed57610100808354040283529160200191612f18565b820191906000526020600020905b815481529060010190602001808311612efb57829003601f168201915b50505050508152602001600b82018054612f3190615395565b80601f0160208091040260200160405190810160405280929190818152602001828054612f5d90615395565b8015612faa5780601f10612f7f57610100808354040283529160200191612faa565b820191906000526020600020905b815481529060010190602001808311612f8d57829003601f168201915b505050505081525050838381518110612fec577f4e487b7100000000000000000000000000000000000000000000000000000000600052603260045260246000fd5b60200260200101819052508180613002906153c7565b9250508080613010906153c7565b91505061292a565b50819350505050919050565b60076020528060005260406000206000915054906101000a900460ff1681565b6060600080600190505b600654811161312357838051906020012060056000838152602001908152602001600020600a016040516130829190614be6565b60405180910390201480156130fc57506040518060400160405280600881526020017f617070726f7665640000000000000000000000000000000000000000000000008152508051906020012060056000838152602001908152602001600020600b016040516130f29190614be6565b6040518091039020145b1561311057818061310c906153c7565b9250505b808061311b906153c7565b91505061304e565b5060008167ffffffffffffffff811115613166577f4e487b7100000000000000000000000000000000000000000000000000000000600052604160045260246000fd5b60405190808252806020026020018201604052801561319f57816020015b61318c613fe3565b8152602001906001900390816131845790505b509050600080600190505b600654811161393257858051906020012060056000838152602001908152602001600020600a016040516131de9190614be6565b604051809103902014801561325857506040518060400160405280600881526020017f617070726f7665640000000000000000000000000000000000000000000000008152508051906020012060056000838152602001908152602001600020600b0160405161324e9190614be6565b6040518091039020145b1561391f5760056000828152602001908152602001600020604051806101800160405290816000820154815260200160018201805461329690615395565b80601f01602080910402602001604051908101604052809291908181526020018280546132c290615395565b801561330f5780601f106132e45761010080835404028352916020019161330f565b820191906000526020600020905b8154815290600101906020018083116132f257829003601f168201915b5050505050815260200160028201805461332890615395565b80601f016020809104026020016040519081016040528092919081815260200182805461335490615395565b80156133a15780601f10613376576101008083540402835291602001916133a1565b820191906000526020600020905b81548152906001019060200180831161338457829003601f168201915b505050505081526020016003820180546133ba90615395565b80601f01602080910402602001604051908101604052809291908181526020018280546133e690615395565b80156134335780601f1061340857610100808354040283529160200191613433565b820191906000526020600020905b81548152906001019060200180831161341657829003601f168201915b5050505050815260200160048201805461344c90615395565b80601f016020809104026020016040519081016040528092919081815260200182805461347890615395565b80156134c55780601f1061349a576101008083540402835291602001916134c5565b820191906000526020600020905b8154815290600101906020018083116134a857829003601f168201915b505050505081526020016005820180546134de90615395565b80601f016020809104026020016040519081016040528092919081815260200182805461350a90615395565b80156135575780601f1061352c57610100808354040283529160200191613557565b820191906000526020600020905b81548152906001019060200180831161353a57829003601f168201915b5050505050815260200160068201805461357090615395565b80601f016020809104026020016040519081016040528092919081815260200182805461359c90615395565b80156135e95780601f106135be576101008083540402835291602001916135e9565b820191906000526020600020905b8154815290600101906020018083116135cc57829003601f168201915b5050505050815260200160078201805461360290615395565b80601f016020809104026020016040519081016040528092919081815260200182805461362e90615395565b801561367b5780601f106136505761010080835404028352916020019161367b565b820191906000526020600020905b81548152906001019060200180831161365e57829003601f168201915b5050505050815260200160088201805461369490615395565b80601f01602080910402602001604051908101604052809291908181526020018280546136c090615395565b801561370d5780601f106136e25761010080835404028352916020019161370d565b820191906000526020600020905b8154815290600101906020018083116136f057829003601f168201915b5050505050815260200160098201805461372690615395565b80601f016020809104026020016040519081016040528092919081815260200182805461375290615395565b801561379f5780601f106137745761010080835404028352916020019161379f565b820191906000526020600020905b81548152906001019060200180831161378257829003601f168201915b50505050508152602001600a820180546137b890615395565b80601f01602080910402602001604051908101604052809291908181526020018280546137e490615395565b80156138315780601f1061380657610100808354040283529160200191613831565b820191906000526020600020905b81548152906001019060200180831161381457829003601f168201915b50505050508152602001600b8201805461384a90615395565b80601f016020809104026020016040519081016040528092919081815260200182805461387690615395565b80156138c35780601f10613898576101008083540402835291602001916138c3565b820191906000526020600020905b8154815290600101906020018083116138a657829003601f168201915b505050505081525050838381518110613905577f4e487b7100000000000000000000000000000000000000000000000000000000600052603260045260246000fd5b6020026020010181905250818061391b906153c7565b9250505b808061392a906153c7565b9150506131aa565b50819350505050919050565b600460008673ffffffffffffffffffffffffffffffffffffffff1673ffffffffffffffffffffffffffffffffffffffff16815260200190815260200160002060009054906101000a900460ff16613a4b576003859080600181540180825580915050600190039060005260206000200160009091909190916101000a81548173ffffffffffffffffffffffffffffffffffffffff021916908373ffffffffffffffffffffffffffffffffffffffff1602179055506001600460008773ffffffffffffffffffffffffffffffffffffffff1673ffffffffffffffffffffffffffffffffffffffff16815260200190815260200160002060006101000a81548160ff0219169083151502179055505b6040518060800160405280858152602001848152602001613a6b84611734565b8152602001821515815250600260008773ffffffffffffffffffffffffffffffffffffffff1673ffffffffffffffffffffffffffffffffffffffff1681526020019081526020016000206000820151816000019080519060200190613ad1929190613ed0565b506020820151816001019080519060200190613aee929190613ed0565b506040820151816002019080519060200190613b0b929190613ed0565b5060608201518160030160006101000a81548160ff02191690831515021790555090505081600760008773ffffffffffffffffffffffffffffffffffffffff1673ffffffffffffffffffffffffffffffffffffffff16815260200190815260200160002060006101000a81548160ff02191690836002811115613bb7577f4e487b7100000000000000000000000000000000000000000000000000000000600052602160045260246000fd5b02179055507f09f6343983a89cd9ef42910b46255d2371f6d6a76f4f526c92ffac9dbc17ba118585613be885611734565b604051613bf793929190614c18565b60405180910390a15050505050565b600280811115613c3f577f4e487b7100000000000000000000000000000000000000000000000000000000600052602160045260246000fd5b600760003373ffffffffffffffffffffffffffffffffffffffff1673ffffffffffffffffffffffffffffffffffffffff16815260200190815260200160002060009054906101000a900460ff166002811115613cc4577f4e487b7100000000000000000000000000000000000000000000000000000000600052602160045260246000fd5b14613d04576040517f08c379a0000000000000000000000000000000000000000000000000000000008152600401613cfb90614e31565b60405180910390fd5b6000806000838152602001908152602001600020600001541415613d5d576040517f08c379a0000000000000000000000000000000000000000000000000000000008152600401613d5490614e51565b60405180910390fd5b60006001811115613d97577f4e487b7100000000000000000000000000000000000000000000000000000000600052602160045260246000fd5b60008083815260200190815260200160002060080160009054906101000a900460ff166001811115613df2577f4e487b7100000000000000000000000000000000000000000000000000000000600052602160045260246000fd5b14613e32576040517f08c379a0000000000000000000000000000000000000000000000000000000008152600401613e2990614d51565b60405180910390fd5b600160008083815260200190815260200160002060080160006101000a81548160ff02191690836001811115613e91577f4e487b7100000000000000000000000000000000000000000000000000000000600052602160045260246000fd5b02179055507f740ee3694b62dc8efb0ed40a327674db3b3594ec9c310f1826dfc2048bae78d881604051613ec59190614e91565b60405180910390a150565b828054613edc90615395565b90600052602060002090601f016020900481019282613efe5760008555613f45565b82601f10613f1757805160ff1916838001178555613f45565b82800160010185558215613f45579182015b82811115613f44578251825591602001919060010190613f29565b5b509050613f529190614044565b5090565b828054613f6290615395565b90600052602060002090601f016020900481019282613f845760008555613fd2565b82601f10613f955780548555613fd2565b82800160010185558215613fd257600052602060002091601f016020900482015b82811115613fd1578254825591600101919060010190613fb6565b5b509050613fdf9190614044565b5090565b6040518061018001604052806000815260200160608152602001606081526020016060815260200160608152602001606081526020016060815260200160608152602001606081526020016060815260200160608152602001606081525090565b5b8082111561405d576000816000905550600101614045565b5090565b600061407461406f8461520b565b6151da565b90508281526020810184848401111561408c57600080fd5b614097848285615353565b509392505050565b6000813590506140ae81615505565b92915050565b6000813590506140c38161551c565b92915050565b6000813590506140d881615533565b92915050565b600082601f8301126140ef57600080fd5b81356140ff848260208601614061565b91505092915050565b60008135905061411781615543565b92915050565b60006020828403121561412f57600080fd5b600061413d8482850161409f565b91505092915050565b600080600080600060a0868803121561415e57600080fd5b600061416c8882890161409f565b955050602086013567ffffffffffffffff81111561418957600080fd5b614195888289016140de565b945050604086013567ffffffffffffffff8111156141b257600080fd5b6141be888289016140de565b93505060606141cf888289016140c9565b92505060806141e0888289016140b4565b9150509295509295909350565b6000602082840312156141ff57600080fd5b600061420d848285016140c9565b91505092915050565b60006020828403121561422857600080fd5b600082013567ffffffffffffffff81111561424257600080fd5b61424e848285016140de565b91505092915050565b6000806000806000806000806000806101408b8d03121561427757600080fd5b60008b013567ffffffffffffffff81111561429157600080fd5b61429d8d828e016140de565b9a505060208b013567ffffffffffffffff8111156142ba57600080fd5b6142c68d828e016140de565b99505060408b013567ffffffffffffffff8111156142e357600080fd5b6142ef8d828e016140de565b98505060608b013567ffffffffffffffff81111561430c57600080fd5b6143188d828e016140de565b97505060808b013567ffffffffffffffff81111561433557600080fd5b6143418d828e016140de565b96505060a08b013567ffffffffffffffff81111561435e57600080fd5b61436a8d828e016140de565b95505060c08b013567ffffffffffffffff81111561438757600080fd5b6143938d828e016140de565b94505060e08b013567ffffffffffffffff8111156143b057600080fd5b6143bc8d828e016140de565b9350506101008b013567ffffffffffffffff8111156143da57600080fd5b6143e68d828e016140de565b9250506101208b013567ffffffffffffffff81111561440457600080fd5b6144108d828e016140de565b9150509295989b9194979a5092959850565b60008060008060008060c0878903121561443b57600080fd5b600087013567ffffffffffffffff81111561445557600080fd5b61446189828a016140de565b965050602087013567ffffffffffffffff81111561447e57600080fd5b61448a89828a016140de565b955050604087013567ffffffffffffffff8111156144a757600080fd5b6144b389828a016140de565b945050606087013567ffffffffffffffff8111156144d057600080fd5b6144dc89828a016140de565b93505060806144ed89828a01614108565b92505060a06144fe89828a01614108565b9150509295509295509295565b60006020828403121561451d57600080fd5b600061452b84828501614108565b91505092915050565b6000806040838503121561454757600080fd5b600061455585828601614108565b925050602061456685828601614108565b9150509250929050565b600061457c8383614a7e565b905092915050565b61458d816152c1565b82525050565b600061459e82615260565b6145a88185615283565b9350836020820285016145ba8561523b565b8060005b858110156145f657848403895281516145d78582614570565b94506145e283615276565b925060208a019950506001810190506145be565b50829750879550505050505092915050565b614611816152d3565b82525050565b6000815461462481615395565b61462e8186615294565b94506001821660008114614649576001811461465a5761468d565b60ff1983168652818601935061468d565b6146638561524b565b60005b8381101561468557815481890152600182019150602081019050614666565b838801955050505b50505092915050565b61469f8161532f565b82525050565b6146ae81615341565b82525050565b60006146bf8261526b565b6146c9818561529f565b93506146d9818560208601615362565b6146e2816154cc565b840191505092915050565b60006146f88261526b565b61470281856152b0565b9350614712818560208601615362565b61471b816154cc565b840191505092915050565b6000614733601d836152b0565b91507f4f6e6c792041444d494e2063616e206164642063616e646964617465730000006000830152602082019050919050565b6000614773601c836152b0565b91507f456c656374696f6e20697320616c726561647920617070726f766564000000006000830152602082019050919050565b60006147b3601a836152b0565b91507f43616e646964617465206d75737420626520617070726f7665640000000000006000830152602082019050919050565b60006147f36031836152b0565b91507f54686f69206769616e206b657420746875632070686169206c6f6e20686f6e2060008301527f74686f69206769616e20626174206461750000000000000000000000000000006020830152604082019050919050565b60006148596013836152b0565b91507f43616e646964617465206e6f7420666f756e64000000000000000000000000006000830152602082019050919050565b60006148996017836152b0565b91507f456c656374696f6e20646f6573206e6f742065786973740000000000000000006000830152602082019050919050565b60006148d96025836152b0565b91507f43616e64696461746520697320616c726561647920696e207468697320656c6560008301527f6374696f6e0000000000000000000000000000000000000000000000000000006020830152604082019050919050565b600061493f6018836152b0565b91507f43616e64696461746520646f6573206e6f7420657869737400000000000000006000830152602082019050919050565b600061497f6024836152b0565b91507f4f6e6c7920494e53504543544f522063616e20617070726f766520656c65637460008301527f696f6e73000000000000000000000000000000000000000000000000000000006020830152604082019050919050565b60006149e56012836152b0565b91507f456c656374696f6e206e6f7420666f756e6400000000000000000000000000006000830152602082019050919050565b6000614a256025836152b0565b91507f4f6e6c7920494e53504543544f522063616e20617070726f76652063616e646960008301527f64617465730000000000000000000000000000000000000000000000000000006020830152604082019050919050565b600061018083016000830151614a976000860182614bc8565b5060208301518482036020860152614aaf82826146b4565b91505060408301518482036040860152614ac982826146b4565b91505060608301518482036060860152614ae382826146b4565b91505060808301518482036080860152614afd82826146b4565b91505060a083015184820360a0860152614b1782826146b4565b91505060c083015184820360c0860152614b3182826146b4565b91505060e083015184820360e0860152614b4b82826146b4565b915050610100830151848203610100860152614b6782826146b4565b915050610120830151848203610120860152614b8382826146b4565b915050610140830151848203610140860152614b9f82826146b4565b915050610160830151848203610160860152614bbb82826146b4565b9150508091505092915050565b614bd181615325565b82525050565b614be081615325565b82525050565b6000614bf28284614617565b915081905092915050565b6000602082019050614c126000830184614584565b92915050565b6000606082019050614c2d6000830186614584565b8181036020830152614c3f81856146ed565b90508181036040830152614c5381846146ed565b9050949350505050565b60006020820190508181036000830152614c778184614593565b905092915050565b6000602082019050614c946000830184614608565b92915050565b6000602082019050614caf60008301846146a5565b92915050565b60006020820190508181036000830152614ccf81846146ed565b905092915050565b60006080820190508181036000830152614cf181876146ed565b90508181036020830152614d0581866146ed565b90508181036040830152614d1981856146ed565b9050614d286060830184614608565b95945050505050565b60006020820190508181036000830152614d4a81614726565b9050919050565b60006020820190508181036000830152614d6a81614766565b9050919050565b60006020820190508181036000830152614d8a816147a6565b9050919050565b60006020820190508181036000830152614daa816147e6565b9050919050565b60006020820190508181036000830152614dca8161484c565b9050919050565b60006020820190508181036000830152614dea8161488c565b9050919050565b60006020820190508181036000830152614e0a816148cc565b9050919050565b60006020820190508181036000830152614e2a81614932565b9050919050565b60006020820190508181036000830152614e4a81614972565b9050919050565b60006020820190508181036000830152614e6a816149d8565b9050919050565b60006020820190508181036000830152614e8a81614a18565b9050919050565b6000602082019050614ea66000830184614bd7565b92915050565b6000604082019050614ec16000830185614bd7565b8181036020830152614ed381846146ed565b90509392505050565b600061018082019050614ef2600083018f614bd7565b8181036020830152614f04818e6146ed565b90508181036040830152614f18818d6146ed565b90508181036060830152614f2c818c6146ed565b90508181036080830152614f40818b6146ed565b905081810360a0830152614f54818a6146ed565b905081810360c0830152614f6881896146ed565b905081810360e0830152614f7c81886146ed565b9050818103610100830152614f9181876146ed565b9050818103610120830152614fa681866146ed565b9050818103610140830152614fbb81856146ed565b9050818103610160830152614fd081846146ed565b90509d9c50505050505050505050505050565b600060e082019050614ff8600083018a614bd7565b818103602083015261500a81896146ed565b9050818103604083015261501e81886146ed565b9050818103606083015261503281876146ed565b9050818103608083015261504681866146ed565b905061505560a0830185614bd7565b61506260c0830184614bd7565b98975050505050505050565b600061012082019050615084600083018c614bd7565b8181036020830152615096818b6146ed565b905081810360408301526150aa818a6146ed565b905081810360608301526150be81896146ed565b905081810360808301526150d281886146ed565b90506150e160a0830187614bd7565b6150ee60c0830186614bd7565b6150fb60e0830185614696565b615109610100830184614bd7565b9a9950505050505050505050565b60006101008201905061512d600083018b614bd7565b818103602083015261513f818a6146ed565b9050818103604083015261515381896146ed565b9050818103606083015261516781886146ed565b9050818103608083015261517b81876146ed565b905061518a60a0830186614bd7565b61519760c0830185614bd7565b6151a460e0830184614bd7565b9998505050505050505050565b60006040820190506151c66000830185614bd7565b6151d36020830184614bd7565b9392505050565b6000604051905081810181811067ffffffffffffffff821117156152015761520061549d565b5b8060405250919050565b600067ffffffffffffffff8211156152265761522561549d565b5b601f19601f8301169050602081019050919050565b6000819050602082019050919050565b60008190508160005260206000209050919050565b600081519050919050565b600081519050919050565b6000602082019050919050565b600082825260208201905092915050565b600081905092915050565b600082825260208201905092915050565b600082825260208201905092915050565b60006152cc82615305565b9050919050565b60008115159050919050565b60008190506152ed826154dd565b919050565b6000819050615300826154f1565b919050565b600073ffffffffffffffffffffffffffffffffffffffff82169050919050565b6000819050919050565b600061533a826152df565b9050919050565b600061534c826152f2565b9050919050565b82818337600083830152505050565b60005b83811015615380578082015181840152602081019050615365565b8381111561538f576000848401525b50505050565b600060028204905060018216806153ad57607f821691505b602082108114156153c1576153c061546e565b5b50919050565b60006153d282615325565b91507fffffffffffffffffffffffffffffffffffffffffffffffffffffffffffffffff82141561540557615404615410565b5b600182019050919050565b7f4e487b7100000000000000000000000000000000000000000000000000000000600052601160045260246000fd5b7f4e487b7100000000000000000000000000000000000000000000000000000000600052602160045260246000fd5b7f4e487b7100000000000000000000000000000000000000000000000000000000600052602260045260246000fd5b7f4e487b7100000000000000000000000000000000000000000000000000000000600052604160045260246000fd5b6000601f19601f8301169050919050565b600281106154ee576154ed61543f565b5b50565b600381106155025761550161543f565b5b50565b61550e816152c1565b811461551957600080fd5b50565b615525816152d3565b811461553057600080fd5b50565b6003811061554057600080fd5b50565b61554c81615325565b811461555757600080fd5b5056fea26469706673582212209ab5c5a643d745b953f00e25ed77c75820180e76a8586fa3d76c5fbfdfb2998764736f6c63430008000033",
  "immutableReferences": {},
  "source": "// SPDX-License-Identifier: MIT\r\npragma solidity ^0.8.0;\r\n\r\ncontract Election {\r\n    struct Candidate {\r\n        uint256 id;\r\n        string fullName;\r\n        string birthDate;\r\n        string gender;\r\n        string nationality;\r\n        string ethnicity;\r\n        string hometown;\r\n        string education;\r\n        string degree;\r\n        string occupation;\r\n        string workplace;\r\n        string status;\r\n    }\r\n\r\n    struct ElectionDetails {\r\n        uint id;\r\n        string name;\r\n        string tinh;\r\n        string quan;\r\n        string phuong;\r\n        uint startTime;\r\n        uint endTime;\r\n        mapping(uint => Candidate) candidates;\r\n        Election_status status;\r\n        uint candidateCount;\r\n    }\r\n\r\n    struct Participant {\r\n        string name;\r\n        string phone;\r\n        string role; // \"ADMIN\", \"INSPECTOR\", \"VOTER\"\r\n        bool isActive;\r\n    }\r\n\r\n    mapping(uint => ElectionDetails) public elections;\r\n    uint public electionCount;\r\n\r\n    mapping(address => Participant) public participants;\r\n    address[] public participantAddresses;\r\n    mapping(address => bool) public participantRegistered;\r\n\r\n    mapping(uint256 => Candidate) public candidates;\r\n    uint256 public candidateCount;\r\n\r\n    event CandidateAdded(uint256 id, string fullName);\r\n    event ElectionCreated(\r\n        uint id,\r\n        string name,\r\n        string tinh,\r\n        string quan,\r\n        string phuong,\r\n        uint startTime,\r\n        uint endTime\r\n    );\r\n    event ParticipantRegistered(address participant, string name, string role);\r\n\r\n    enum Role {\r\n        NONE,\r\n        ADMIN,\r\n        INSPECTOR\r\n    }\r\n    mapping(address => Role) public participantRoles;\r\n\r\n    function setParticipant(\r\n        address _participant,\r\n        string memory _name,\r\n        string memory _phone,\r\n        Role _role,\r\n        bool _isActive\r\n    ) public {\r\n        if (!participantRegistered[_participant]) {\r\n            participantAddresses.push(_participant);\r\n            participantRegistered[_participant] = true;\r\n        }\r\n        participants[_participant] = Participant(\r\n            _name,\r\n            _phone,\r\n            getRoleString(_role),\r\n            _isActive\r\n        );\r\n        participantRoles[_participant] = _role;\r\n        emit ParticipantRegistered(_participant, _name, getRoleString(_role));\r\n    }\r\n\r\n    function getRoleString(Role _role) public pure returns (string memory) {\r\n        if (_role == Role.ADMIN) {\r\n            return \"ADMIN\";\r\n        } else if (_role == Role.INSPECTOR) {\r\n            return \"INSPECTOR\";\r\n        } else {\r\n            return \"NONE\";\r\n        }\r\n    }\r\n    \r\n    enum Election_status { Created, Approved }\r\n    function createElection(\r\n        string memory _name,\r\n        string memory _tinh,\r\n        string memory _quan,\r\n        string memory _phuong,\r\n        uint _startTime,\r\n        uint _endTime\r\n    ) public {\r\n        require(\r\n            _endTime > _startTime,\r\n            \"Thoi gian ket thuc phai lon hon thoi gian bat dau\"\r\n        );\r\n        require(\r\n            participantRoles[msg.sender] == Role.ADMIN,\r\n            \"Only ADMIN can add candidates\"\r\n        );\r\n\r\n        electionCount++;  // Tng s lng election\r\n        uint newElectionId = electionCount;\r\n\r\n        ElectionDetails storage newElection = elections[newElectionId];\r\n        newElection.id = newElectionId;\r\n        newElection.name = _name;\r\n        newElection.tinh = _tinh;\r\n        newElection.quan = _quan;\r\n        newElection.phuong = _phuong;\r\n        newElection.startTime = _startTime;\r\n        newElection.endTime = _endTime;\r\n        newElection.status = Election_status.Created;  //  Mc nh l Created\r\n        newElection.candidateCount = 0;\r\n\r\n        emit ElectionCreated(\r\n            newElectionId,\r\n            _name,\r\n            _tinh,\r\n            _quan,\r\n            _phuong,\r\n            _startTime,\r\n            _endTime\r\n        );\r\n    }\r\n\r\n    function addCandidate(\r\n        string memory _fullName,\r\n        string memory _birthDate,\r\n        string memory _gender,\r\n        string memory _nationality,\r\n        string memory _ethnicity,\r\n        string memory _hometown,\r\n        string memory _education,\r\n        string memory _degree,\r\n        string memory _occupation,\r\n        string memory _workplace\r\n    ) public {\r\n        require(\r\n            participantRoles[msg.sender] == Role.ADMIN,\r\n            \"Only ADMIN can add candidates\"\r\n        );\r\n\r\n        candidateCount++;\r\n        candidates[candidateCount] = Candidate(\r\n            candidateCount,\r\n            _fullName,\r\n            _birthDate,\r\n            _gender,\r\n            _nationality,\r\n            _ethnicity,\r\n            _hometown,\r\n            _education,\r\n            _degree,\r\n            _occupation,\r\n            _workplace,\r\n            \"pending\"\r\n        );\r\n\r\n        emit CandidateAdded(candidateCount, _fullName);\r\n    }\r\n    event LogCandidateId(uint256 candidateId);\r\n\r\n    function getCandidate(uint256 _candidateId) public returns (\r\n            uint256,\r\n            string memory,\r\n            string memory,\r\n            string memory,\r\n            string memory,\r\n            string memory,\r\n            string memory,\r\n            string memory,\r\n            string memory,\r\n            string memory,\r\n            string memory,\r\n            string memory\r\n        )\r\n    {\r\n        require(\r\n            _candidateId > 0 && _candidateId <= candidateCount,\r\n            \"Candidate does not exist\"\r\n        );\r\n\r\n        emit LogCandidateId(_candidateId);\r\n\r\n        Candidate storage candidate = candidates[_candidateId];\r\n\r\n        return (\r\n            candidate.id,\r\n            candidate.fullName,\r\n            candidate.birthDate,\r\n            candidate.gender,\r\n            candidate.nationality,\r\n            candidate.ethnicity,\r\n            candidate.hometown,\r\n            candidate.education,\r\n            candidate.degree,\r\n            candidate.occupation,\r\n            candidate.workplace,\r\n            candidate.status\r\n        );\r\n    }\r\n\r\n    function approveCandidate(uint256 _candidateId) public {\r\n        require(\r\n            participantRoles[msg.sender] == Role.INSPECTOR,\r\n            \"Only INSPECTOR can approve candidates\"\r\n        );\r\n        require(candidates[_candidateId].id != 0, \"Candidate does not exist\");\r\n\r\n        candidates[_candidateId].status = \"approved\";\r\n    }\r\n\r\n    function getApprovedCandidatesByHometown(string memory _workplace) public view returns (Candidate[] memory) {\r\n        uint count = 0;\r\n\r\n        // m s lng ng vin hp l\r\n        for (uint i = 1; i <= candidateCount; i++) {\r\n            if (\r\n                keccak256(bytes(candidates[i].workplace)) == keccak256(bytes(_workplace)) &&\r\n                keccak256(bytes(candidates[i].status)) == keccak256(bytes(\"approved\"))\r\n            ) {\r\n                count++;\r\n            }\r\n        }\r\n\r\n        // To danh sch ng vin hp l\r\n        Candidate[] memory approvedCandidates = new Candidate[](count);\r\n        uint index = 0;\r\n\r\n        for (uint i = 1; i <= candidateCount; i++) {\r\n            if (\r\n                keccak256(bytes(candidates[i].workplace)) == keccak256(bytes(_workplace)) &&\r\n                keccak256(bytes(candidates[i].status)) == keccak256(bytes(\"approved\"))\r\n            ) {\r\n                approvedCandidates[index] = candidates[i];\r\n                index++;\r\n            }\r\n        }\r\n\r\n        return approvedCandidates;\r\n    }\r\n\r\n\r\n    function getElection(uint _id) public view returns (\r\n        uint,\r\n        string memory,\r\n        string memory,\r\n        string memory,\r\n        string memory,\r\n        uint,\r\n        uint,\r\n        uint\r\n    ) {\r\n        require(_id > 0 && _id <= electionCount, \"Election does not exist\");\r\n\r\n        ElectionDetails storage election = elections[_id];\r\n\r\n        return (\r\n            election.id,\r\n            election.name,\r\n            election.tinh,\r\n            election.quan,\r\n            election.phuong,\r\n            election.startTime,\r\n            election.endTime,\r\n            uint(election.status) //  Chuyn enum thnh uint\r\n        );\r\n    }\r\n\r\n    event ElectionApproved(uint electionId);\r\n    function approveElection(uint _electionId) public {\r\n        require(participantRoles[msg.sender] == Role.INSPECTOR, \"Only INSPECTOR can approve elections\");\r\n        require(elections[_electionId].id != 0, \"Election not found\");\r\n        require(elections[_electionId].status == Election_status.Created, \"Election is already approved\");\r\n        \r\n        elections[_electionId].status = Election_status.Approved;\r\n        emit ElectionApproved(_electionId);\r\n    }\r\n\r\n\r\n    function getCandidatesInElection(uint _electionId) public view returns (Candidate[] memory) {\r\n        require(_electionId > 0 && _electionId <= electionCount, \"Election does not exist\");\r\n\r\n        uint count = elections[_electionId].candidateCount;\r\n        Candidate[] memory candidateList = new Candidate[](count);\r\n        uint index = 0;\r\n\r\n        for (uint i = 1; i <= count; i++) {\r\n            candidateList[index] = elections[_electionId].candidates[i];\r\n            index++;\r\n        }\r\n\r\n        return candidateList;\r\n    }\r\n\r\n    // Mapping  kim tra ng vin  c trong cuc bu c cha\r\n    mapping(uint => mapping(uint => bool)) public isCandidateInElection;\r\n    function addCandidateToElection(uint _electionId, uint _candidateId) public {\r\n        require(participantRoles[msg.sender] == Role.ADMIN, \"Only ADMIN can add candidates\");\r\n        require(elections[_electionId].id != 0, \"Election not found\");\r\n        require(candidates[_candidateId].id != 0, \"Candidate not found\");\r\n        require(keccak256(bytes(candidates[_candidateId].status)) == keccak256(bytes(\"approved\")), \"Candidate must be approved\");\r\n        require(!isCandidateInElection[_electionId][_candidateId], \"Candidate is already in this election\");\r\n\r\n        ElectionDetails storage election = elections[_electionId];\r\n\r\n        // Thm ng vin vo danh sch cuc bu c\r\n        election.candidateCount++;\r\n        election.candidates[election.candidateCount] = candidates[_candidateId];\r\n\r\n        // nh du ng vin  c thm vo cuc bu c ny\r\n        isCandidateInElection[_electionId][_candidateId] = true;\r\n\r\n        emit CandidateAddedToElection(_electionId, _candidateId);\r\n    }\r\n\r\n    event CandidateAddedToElection(uint electionId, uint candidateId);\r\n}",
  "sourcePath": "C:\\Users\\minhh\\Downloads\\Admin_System-main (3)\\contracts\\Election.sol",
  "compiler": {
    "name": "solc",
    "version": "0.8.0+commit.c7dfd78e.Emscripten.clang"
  },
  "schemaVersion": "3.4.16",
  "updatedAt": "2025-03-30T08:17:25.709Z",
  "networkType": "ethereum",
  "devdoc": {
    "kind": "dev",
    "methods": {},
    "version": 1
  },
  "userdoc": {
    "kind": "user",
    "methods": {},
    "version": 1
  }
}