{
  "contractName": "Election",
  "abi": [
    {
      "anonymous": false,
      "inputs": [
        {
          "indexed": false,
          "internalType": "uint256",
          "name": "id",
          "type": "uint256"
        },
        {
          "indexed": false,
          "internalType": "string",
          "name": "fullName",
          "type": "string"
        }
      ],
      "name": "CandidateAdded",
      "type": "event"
    },
    {
      "anonymous": false,
      "inputs": [
        {
          "indexed": false,
          "internalType": "uint256",
          "name": "electionId",
          "type": "uint256"
        },
        {
          "indexed": false,
          "internalType": "uint256",
          "name": "candidateId",
          "type": "uint256"
        }
      ],
      "name": "CandidateAddedToElection",
      "type": "event"
    },
    {
      "anonymous": false,
      "inputs": [
        {
          "indexed": false,
          "internalType": "uint256",
          "name": "id",
          "type": "uint256"
        },
        {
          "indexed": false,
          "internalType": "string",
          "name": "name",
          "type": "string"
        },
        {
          "indexed": false,
          "internalType": "string",
          "name": "tinh",
          "type": "string"
        },
        {
          "indexed": false,
          "internalType": "string",
          "name": "quan",
          "type": "string"
        },
        {
          "indexed": false,
          "internalType": "string",
          "name": "phuong",
          "type": "string"
        },
        {
          "indexed": false,
          "internalType": "uint256",
          "name": "startTime",
          "type": "uint256"
        },
        {
          "indexed": false,
          "internalType": "uint256",
          "name": "endTime",
          "type": "uint256"
        }
      ],
      "name": "ElectionCreated",
      "type": "event"
    },
    {
      "anonymous": false,
      "inputs": [
        {
          "indexed": false,
          "internalType": "uint256",
          "name": "candidateId",
          "type": "uint256"
        }
      ],
      "name": "LogCandidateId",
      "type": "event"
    },
    {
      "anonymous": false,
      "inputs": [
        {
          "indexed": false,
          "internalType": "address",
          "name": "participant",
          "type": "address"
        },
        {
          "indexed": false,
          "internalType": "string",
          "name": "name",
          "type": "string"
        },
        {
          "indexed": false,
          "internalType": "string",
          "name": "role",
          "type": "string"
        }
      ],
      "name": "ParticipantRegistered",
      "type": "event"
    },
    {
      "inputs": [],
      "name": "candidateCount",
      "outputs": [
        {
          "internalType": "uint256",
          "name": "",
          "type": "uint256"
        }
      ],
      "stateMutability": "view",
      "type": "function",
      "constant": true
    },
    {
      "inputs": [
        {
          "internalType": "uint256",
          "name": "",
          "type": "uint256"
        }
      ],
      "name": "candidates",
      "outputs": [
        {
          "internalType": "uint256",
          "name": "id",
          "type": "uint256"
        },
        {
          "internalType": "string",
          "name": "fullName",
          "type": "string"
        },
        {
          "internalType": "string",
          "name": "birthDate",
          "type": "string"
        },
        {
          "internalType": "string",
          "name": "gender",
          "type": "string"
        },
        {
          "internalType": "string",
          "name": "nationality",
          "type": "string"
        },
        {
          "internalType": "string",
          "name": "ethnicity",
          "type": "string"
        },
        {
          "internalType": "string",
          "name": "hometown",
          "type": "string"
        },
        {
          "internalType": "string",
          "name": "education",
          "type": "string"
        },
        {
          "internalType": "string",
          "name": "degree",
          "type": "string"
        },
        {
          "internalType": "string",
          "name": "occupation",
          "type": "string"
        },
        {
          "internalType": "string",
          "name": "workplace",
          "type": "string"
        },
        {
          "internalType": "string",
          "name": "status",
          "type": "string"
        }
      ],
      "stateMutability": "view",
      "type": "function",
      "constant": true
    },
    {
      "inputs": [],
      "name": "electionCount",
      "outputs": [
        {
          "internalType": "uint256",
          "name": "",
          "type": "uint256"
        }
      ],
      "stateMutability": "view",
      "type": "function",
      "constant": true
    },
    {
      "inputs": [
        {
          "internalType": "uint256",
          "name": "",
          "type": "uint256"
        }
      ],
      "name": "elections",
      "outputs": [
        {
          "internalType": "uint256",
          "name": "id",
          "type": "uint256"
        },
        {
          "internalType": "string",
          "name": "name",
          "type": "string"
        },
        {
          "internalType": "string",
          "name": "tinh",
          "type": "string"
        },
        {
          "internalType": "string",
          "name": "quan",
          "type": "string"
        },
        {
          "internalType": "string",
          "name": "phuong",
          "type": "string"
        },
        {
          "internalType": "uint256",
          "name": "startTime",
          "type": "uint256"
        },
        {
          "internalType": "uint256",
          "name": "endTime",
          "type": "uint256"
        },
        {
          "internalType": "enum Election.Election_status",
          "name": "status",
          "type": "uint8"
        },
        {
          "internalType": "uint256",
          "name": "candidateCount",
          "type": "uint256"
        }
      ],
      "stateMutability": "view",
      "type": "function",
      "constant": true
    },
    {
      "inputs": [
        {
          "internalType": "uint256",
          "name": "",
          "type": "uint256"
        },
        {
          "internalType": "uint256",
          "name": "",
          "type": "uint256"
        }
      ],
      "name": "isCandidateInElection",
      "outputs": [
        {
          "internalType": "bool",
          "name": "",
          "type": "bool"
        }
      ],
      "stateMutability": "view",
      "type": "function",
      "constant": true
    },
    {
      "inputs": [
        {
          "internalType": "uint256",
          "name": "",
          "type": "uint256"
        }
      ],
      "name": "participantAddresses",
      "outputs": [
        {
          "internalType": "address",
          "name": "",
          "type": "address"
        }
      ],
      "stateMutability": "view",
      "type": "function",
      "constant": true
    },
    {
      "inputs": [
        {
          "internalType": "address",
          "name": "",
          "type": "address"
        }
      ],
      "name": "participantRegistered",
      "outputs": [
        {
          "internalType": "bool",
          "name": "",
          "type": "bool"
        }
      ],
      "stateMutability": "view",
      "type": "function",
      "constant": true
    },
    {
      "inputs": [
        {
          "internalType": "address",
          "name": "",
          "type": "address"
        }
      ],
      "name": "participantRoles",
      "outputs": [
        {
          "internalType": "enum Election.Role",
          "name": "",
          "type": "uint8"
        }
      ],
      "stateMutability": "view",
      "type": "function",
      "constant": true
    },
    {
      "inputs": [
        {
          "internalType": "address",
          "name": "",
          "type": "address"
        }
      ],
      "name": "participants",
      "outputs": [
        {
          "internalType": "string",
          "name": "name",
          "type": "string"
        },
        {
          "internalType": "string",
          "name": "phone",
          "type": "string"
        },
        {
          "internalType": "string",
          "name": "role",
          "type": "string"
        },
        {
          "internalType": "bool",
          "name": "isActive",
          "type": "bool"
        }
      ],
      "stateMutability": "view",
      "type": "function",
      "constant": true
    },
    {
      "inputs": [
        {
          "internalType": "address",
          "name": "_participant",
          "type": "address"
        },
        {
          "internalType": "string",
          "name": "_name",
          "type": "string"
        },
        {
          "internalType": "string",
          "name": "_phone",
          "type": "string"
        },
        {
          "internalType": "enum Election.Role",
          "name": "_role",
          "type": "uint8"
        },
        {
          "internalType": "bool",
          "name": "_isActive",
          "type": "bool"
        }
      ],
      "name": "setParticipant",
      "outputs": [],
      "stateMutability": "nonpayable",
      "type": "function"
    },
    {
      "inputs": [
        {
          "internalType": "enum Election.Role",
          "name": "_role",
          "type": "uint8"
        }
      ],
      "name": "getRoleString",
      "outputs": [
        {
          "internalType": "string",
          "name": "",
          "type": "string"
        }
      ],
      "stateMutability": "pure",
      "type": "function",
      "constant": true
    },
    {
      "inputs": [
        {
          "internalType": "string",
          "name": "_name",
          "type": "string"
        },
        {
          "internalType": "string",
          "name": "_tinh",
          "type": "string"
        },
        {
          "internalType": "string",
          "name": "_quan",
          "type": "string"
        },
        {
          "internalType": "string",
          "name": "_phuong",
          "type": "string"
        },
        {
          "internalType": "uint256",
          "name": "_startTime",
          "type": "uint256"
        },
        {
          "internalType": "uint256",
          "name": "_endTime",
          "type": "uint256"
        }
      ],
      "name": "createElection",
      "outputs": [],
      "stateMutability": "nonpayable",
      "type": "function"
    },
    {
      "inputs": [
        {
          "internalType": "string",
          "name": "_fullName",
          "type": "string"
        },
        {
          "internalType": "string",
          "name": "_birthDate",
          "type": "string"
        },
        {
          "internalType": "string",
          "name": "_gender",
          "type": "string"
        },
        {
          "internalType": "string",
          "name": "_nationality",
          "type": "string"
        },
        {
          "internalType": "string",
          "name": "_ethnicity",
          "type": "string"
        },
        {
          "internalType": "string",
          "name": "_hometown",
          "type": "string"
        },
        {
          "internalType": "string",
          "name": "_education",
          "type": "string"
        },
        {
          "internalType": "string",
          "name": "_degree",
          "type": "string"
        },
        {
          "internalType": "string",
          "name": "_occupation",
          "type": "string"
        },
        {
          "internalType": "string",
          "name": "_workplace",
          "type": "string"
        }
      ],
      "name": "addCandidate",
      "outputs": [],
      "stateMutability": "nonpayable",
      "type": "function"
    },
    {
      "inputs": [
        {
          "internalType": "uint256",
          "name": "_candidateId",
          "type": "uint256"
        }
      ],
      "name": "getCandidate",
      "outputs": [
        {
          "internalType": "uint256",
          "name": "",
          "type": "uint256"
        },
        {
          "internalType": "string",
          "name": "",
          "type": "string"
        },
        {
          "internalType": "string",
          "name": "",
          "type": "string"
        },
        {
          "internalType": "string",
          "name": "",
          "type": "string"
        },
        {
          "internalType": "string",
          "name": "",
          "type": "string"
        },
        {
          "internalType": "string",
          "name": "",
          "type": "string"
        },
        {
          "internalType": "string",
          "name": "",
          "type": "string"
        },
        {
          "internalType": "string",
          "name": "",
          "type": "string"
        },
        {
          "internalType": "string",
          "name": "",
          "type": "string"
        },
        {
          "internalType": "string",
          "name": "",
          "type": "string"
        },
        {
          "internalType": "string",
          "name": "",
          "type": "string"
        },
        {
          "internalType": "string",
          "name": "",
          "type": "string"
        }
      ],
      "stateMutability": "nonpayable",
      "type": "function"
    },
    {
      "inputs": [
        {
          "internalType": "uint256",
          "name": "_candidateId",
          "type": "uint256"
        }
      ],
      "name": "approveCandidate",
      "outputs": [],
      "stateMutability": "nonpayable",
      "type": "function"
    },
    {
      "inputs": [
        {
          "internalType": "string",
          "name": "_workplace",
          "type": "string"
        }
      ],
      "name": "getApprovedCandidatesByHometown",
      "outputs": [
        {
          "components": [
            {
              "internalType": "uint256",
              "name": "id",
              "type": "uint256"
            },
            {
              "internalType": "string",
              "name": "fullName",
              "type": "string"
            },
            {
              "internalType": "string",
              "name": "birthDate",
              "type": "string"
            },
            {
              "internalType": "string",
              "name": "gender",
              "type": "string"
            },
            {
              "internalType": "string",
              "name": "nationality",
              "type": "string"
            },
            {
              "internalType": "string",
              "name": "ethnicity",
              "type": "string"
            },
            {
              "internalType": "string",
              "name": "hometown",
              "type": "string"
            },
            {
              "internalType": "string",
              "name": "education",
              "type": "string"
            },
            {
              "internalType": "string",
              "name": "degree",
              "type": "string"
            },
            {
              "internalType": "string",
              "name": "occupation",
              "type": "string"
            },
            {
              "internalType": "string",
              "name": "workplace",
              "type": "string"
            },
            {
              "internalType": "string",
              "name": "status",
              "type": "string"
            }
          ],
          "internalType": "struct Election.Candidate[]",
          "name": "",
          "type": "tuple[]"
        }
      ],
      "stateMutability": "view",
      "type": "function",
      "constant": true
    },
    {
      "inputs": [
        {
          "internalType": "uint256",
          "name": "_id",
          "type": "uint256"
        }
      ],
      "name": "getElection",
      "outputs": [
        {
          "internalType": "uint256",
          "name": "",
          "type": "uint256"
        },
        {
          "internalType": "string",
          "name": "",
          "type": "string"
        },
        {
          "internalType": "string",
          "name": "",
          "type": "string"
        },
        {
          "internalType": "string",
          "name": "",
          "type": "string"
        },
        {
          "internalType": "string",
          "name": "",
          "type": "string"
        },
        {
          "internalType": "uint256",
          "name": "",
          "type": "uint256"
        },
        {
          "internalType": "uint256",
          "name": "",
          "type": "uint256"
        },
        {
          "internalType": "uint256",
          "name": "",
          "type": "uint256"
        }
      ],
      "stateMutability": "view",
      "type": "function",
      "constant": true
    },
    {
      "inputs": [
        {
          "internalType": "uint256",
          "name": "_electionId",
          "type": "uint256"
        }
      ],
      "name": "getCandidatesInElection",
      "outputs": [
        {
          "components": [
            {
              "internalType": "uint256",
              "name": "id",
              "type": "uint256"
            },
            {
              "internalType": "string",
              "name": "fullName",
              "type": "string"
            },
            {
              "internalType": "string",
              "name": "birthDate",
              "type": "string"
            },
            {
              "internalType": "string",
              "name": "gender",
              "type": "string"
            },
            {
              "internalType": "string",
              "name": "nationality",
              "type": "string"
            },
            {
              "internalType": "string",
              "name": "ethnicity",
              "type": "string"
            },
            {
              "internalType": "string",
              "name": "hometown",
              "type": "string"
            },
            {
              "internalType": "string",
              "name": "education",
              "type": "string"
            },
            {
              "internalType": "string",
              "name": "degree",
              "type": "string"
            },
            {
              "internalType": "string",
              "name": "occupation",
              "type": "string"
            },
            {
              "internalType": "string",
              "name": "workplace",
              "type": "string"
            },
            {
              "internalType": "string",
              "name": "status",
              "type": "string"
            }
          ],
          "internalType": "struct Election.Candidate[]",
          "name": "",
          "type": "tuple[]"
        }
      ],
      "stateMutability": "view",
      "type": "function",
      "constant": true
    },
    {
      "inputs": [
        {
          "internalType": "uint256",
          "name": "_electionId",
          "type": "uint256"
        },
        {
          "internalType": "uint256",
          "name": "_candidateId",
          "type": "uint256"
        }
      ],
      "name": "addCandidateToElection",
      "outputs": [],
      "stateMutability": "nonpayable",
      "type": "function"
    }
  ],
  "bytecode": "0x608060405234801561001057600080fd5b506151b9806100206000396000f3fe608060405234801561001057600080fd5b50600436106101215760003560e01c806369956046116100ad578063a9a981a311610071578063a9a981a31461038c578063bcfb64eb146103aa578063c2e4fe5a146103da578063cdc440fe1461040a578063d266c0891461043a57610121565b806369956046146102e3578063778c6439146102ff578063997d28301461031b5780639d71077714610339578063a7c4b72e1461037057610121565b80633477ee2e116100f45780633477ee2e146101d557806335b8e820146102105780633f3c0a581461024b57806354ffbddb1461027b5780635e6fef01146102ab57610121565b806309e69ede146101265780631c510002146101595780631d733337146101895780632a5878d0146101b9575b600080fd5b610140600480360381019061013b9190613e2c565b610456565b6040516101509493929190614940565b60405180910390f35b610173600480360381019061016e9190614243565b61062b565b60405161018091906148e8565b60405180910390f35b6101a3600480360381019061019e9190613e2c565b61065a565b6040516101b091906148e8565b60405180910390f35b6101d360048036038101906101ce9190613f66565b61067a565b005b6101ef60048036038101906101ea919061421a565b6109c6565b6040516102079c9b9a99989796959493929190614b05565b60405180910390f35b61022a6004803603810190610225919061421a565b610ffe565b6040516102429c9b9a99989796959493929190614b05565b60405180910390f35b61026560048036038101906102609190613efc565b61170d565b604051610272919061491e565b60405180910390f35b6102956004803603810190610290919061421a565b6118b8565b6040516102a29190614866565b60405180910390f35b6102c560048036038101906102c0919061421a565b6118f7565b6040516102da99989796959493929190614c97565b60405180910390f35b6102fd60048036038101906102f8919061421a565b611b72565b005b61031960048036038101906103149190614243565b611d2d565b005b61032361223d565b6040516103309190614aba565b60405180910390f35b610353600480360381019061034e919061421a565b612243565b604051610367989796959493929190614d40565b60405180910390f35b61038a60048036038101906103859190614131565b61256b565b005b61039461280a565b6040516103a19190614aba565b60405180910390f35b6103c460048036038101906103bf919061421a565b612810565b6040516103d191906148c6565b60405180910390f35b6103f460048036038101906103ef9190613e2c565b612ffd565b6040516104019190614903565b60405180910390f35b610424600480360381019061041f9190613f25565b61301d565b60405161043191906148c6565b60405180910390f35b610454600480360381019061044f9190613e55565b613917565b005b600260205280600052604060002060009150905080600001805461047990614fbe565b80601f01602080910402602001604051908101604052809291908181526020018280546104a590614fbe565b80156104f25780601f106104c7576101008083540402835291602001916104f2565b820191906000526020600020905b8154815290600101906020018083116104d557829003601f168201915b50505050509080600101805461050790614fbe565b80601f016020809104026020016040519081016040528092919081815260200182805461053390614fbe565b80156105805780601f1061055557610100808354040283529160200191610580565b820191906000526020600020905b81548152906001019060200180831161056357829003601f168201915b50505050509080600201805461059590614fbe565b80601f01602080910402602001604051908101604052809291908181526020018280546105c190614fbe565b801561060e5780601f106105e35761010080835404028352916020019161060e565b820191906000526020600020905b8154815290600101906020018083116105f157829003601f168201915b5050505050908060030160009054906101000a900460ff16905084565b60086020528160005260406000206020528060005260406000206000915091509054906101000a900460ff1681565b60046020528060005260406000206000915054906101000a900460ff1681565b600160028111156106b4577f4e487b7100000000000000000000000000000000000000000000000000000000600052602160045260246000fd5b600760003373ffffffffffffffffffffffffffffffffffffffff1673ffffffffffffffffffffffffffffffffffffffff16815260200190815260200160002060009054906101000a900460ff166002811115610739577f4e487b7100000000000000000000000000000000000000000000000000000000600052602160045260246000fd5b14610779576040517f08c379a00000000000000000000000000000000000000000000000000000000081526004016107709061499a565b60405180910390fd5b6006600081548092919061078c90614ff0565b919050555060405180610180016040528060065481526020018b81526020018a81526020018981526020018881526020018781526020018681526020018581526020018481526020018381526020018281526020016040518060400160405280600781526020017f70656e64696e6700000000000000000000000000000000000000000000000000815250815250600560006006548152602001908152602001600020600082015181600001556020820151816001019080519060200190610855929190613bdf565b506040820151816002019080519060200190610872929190613bdf565b50606082015181600301908051906020019061088f929190613bdf565b5060808201518160040190805190602001906108ac929190613bdf565b5060a08201518160050190805190602001906108c9929190613bdf565b5060c08201518160060190805190602001906108e6929190613bdf565b5060e0820151816007019080519060200190610903929190613bdf565b50610100820151816008019080519060200190610921929190613bdf565b5061012082015181600901908051906020019061093f929190613bdf565b5061014082015181600a01908051906020019061095d929190613bdf565b5061016082015181600b01908051906020019061097b929190613bdf565b509050507fe83b2a43e7e82d975c8a0a6d2f045153c869e111136a34d1889ab7b598e396a36006548b6040516109b2929190614ad5565b60405180910390a150505050505050505050565b60056020528060005260406000206000915090508060000154908060010180546109ef90614fbe565b80601f0160208091040260200160405190810160405280929190818152602001828054610a1b90614fbe565b8015610a685780601f10610a3d57610100808354040283529160200191610a68565b820191906000526020600020905b815481529060010190602001808311610a4b57829003601f168201915b505050505090806002018054610a7d90614fbe565b80601f0160208091040260200160405190810160405280929190818152602001828054610aa990614fbe565b8015610af65780601f10610acb57610100808354040283529160200191610af6565b820191906000526020600020905b815481529060010190602001808311610ad957829003601f168201915b505050505090806003018054610b0b90614fbe565b80601f0160208091040260200160405190810160405280929190818152602001828054610b3790614fbe565b8015610b845780601f10610b5957610100808354040283529160200191610b84565b820191906000526020600020905b815481529060010190602001808311610b6757829003601f168201915b505050505090806004018054610b9990614fbe565b80601f0160208091040260200160405190810160405280929190818152602001828054610bc590614fbe565b8015610c125780601f10610be757610100808354040283529160200191610c12565b820191906000526020600020905b815481529060010190602001808311610bf557829003601f168201915b505050505090806005018054610c2790614fbe565b80601f0160208091040260200160405190810160405280929190818152602001828054610c5390614fbe565b8015610ca05780601f10610c7557610100808354040283529160200191610ca0565b820191906000526020600020905b815481529060010190602001808311610c8357829003601f168201915b505050505090806006018054610cb590614fbe565b80601f0160208091040260200160405190810160405280929190818152602001828054610ce190614fbe565b8015610d2e5780601f10610d0357610100808354040283529160200191610d2e565b820191906000526020600020905b815481529060010190602001808311610d1157829003601f168201915b505050505090806007018054610d4390614fbe565b80601f0160208091040260200160405190810160405280929190818152602001828054610d6f90614fbe565b8015610dbc5780601f10610d9157610100808354040283529160200191610dbc565b820191906000526020600020905b815481529060010190602001808311610d9f57829003601f168201915b505050505090806008018054610dd190614fbe565b80601f0160208091040260200160405190810160405280929190818152602001828054610dfd90614fbe565b8015610e4a5780601f10610e1f57610100808354040283529160200191610e4a565b820191906000526020600020905b815481529060010190602001808311610e2d57829003601f168201915b505050505090806009018054610e5f90614fbe565b80601f0160208091040260200160405190810160405280929190818152602001828054610e8b90614fbe565b8015610ed85780601f10610ead57610100808354040283529160200191610ed8565b820191906000526020600020905b815481529060010190602001808311610ebb57829003601f168201915b50505050509080600a018054610eed90614fbe565b80601f0160208091040260200160405190810160405280929190818152602001828054610f1990614fbe565b8015610f665780601f10610f3b57610100808354040283529160200191610f66565b820191906000526020600020905b815481529060010190602001808311610f4957829003601f168201915b50505050509080600b018054610f7b90614fbe565b80601f0160208091040260200160405190810160405280929190818152602001828054610fa790614fbe565b8015610ff45780601f10610fc957610100808354040283529160200191610ff4565b820191906000526020600020905b815481529060010190602001808311610fd757829003601f168201915b505050505090508c565b6000606080606080606080606080606080606060008d11801561102357506006548d11155b611062576040517f08c379a000000000000000000000000000000000000000000000000000000000815260040161105990614a5a565b60405180910390fd5b7f786c3de6cf1fe392b3cb2804dc549c60381197c30c93e07f95b97cdd7d7650e38d6040516110919190614aba565b60405180910390a16000600560008f8152602001908152602001600020905080600001548160010182600201836003018460040185600501866006018760070188600801896009018a600a018b600b018a80546110ed90614fbe565b80601f016020809104026020016040519081016040528092919081815260200182805461111990614fbe565b80156111665780601f1061113b57610100808354040283529160200191611166565b820191906000526020600020905b81548152906001019060200180831161114957829003601f168201915b50505050509a5089805461117990614fbe565b80601f01602080910402602001604051908101604052809291908181526020018280546111a590614fbe565b80156111f25780601f106111c7576101008083540402835291602001916111f2565b820191906000526020600020905b8154815290600101906020018083116111d557829003601f168201915b5050505050995088805461120590614fbe565b80601f016020809104026020016040519081016040528092919081815260200182805461123190614fbe565b801561127e5780601f106112535761010080835404028352916020019161127e565b820191906000526020600020905b81548152906001019060200180831161126157829003601f168201915b5050505050985087805461129190614fbe565b80601f01602080910402602001604051908101604052809291908181526020018280546112bd90614fbe565b801561130a5780601f106112df5761010080835404028352916020019161130a565b820191906000526020600020905b8154815290600101906020018083116112ed57829003601f168201915b5050505050975086805461131d90614fbe565b80601f016020809104026020016040519081016040528092919081815260200182805461134990614fbe565b80156113965780601f1061136b57610100808354040283529160200191611396565b820191906000526020600020905b81548152906001019060200180831161137957829003601f168201915b505050505096508580546113a990614fbe565b80601f01602080910402602001604051908101604052809291908181526020018280546113d590614fbe565b80156114225780601f106113f757610100808354040283529160200191611422565b820191906000526020600020905b81548152906001019060200180831161140557829003601f168201915b5050505050955084805461143590614fbe565b80601f016020809104026020016040519081016040528092919081815260200182805461146190614fbe565b80156114ae5780601f10611483576101008083540402835291602001916114ae565b820191906000526020600020905b81548152906001019060200180831161149157829003601f168201915b505050505094508380546114c190614fbe565b80601f01602080910402602001604051908101604052809291908181526020018280546114ed90614fbe565b801561153a5780601f1061150f5761010080835404028352916020019161153a565b820191906000526020600020905b81548152906001019060200180831161151d57829003601f168201915b5050505050935082805461154d90614fbe565b80601f016020809104026020016040519081016040528092919081815260200182805461157990614fbe565b80156115c65780601f1061159b576101008083540402835291602001916115c6565b820191906000526020600020905b8154815290600101906020018083116115a957829003601f168201915b505050505092508180546115d990614fbe565b80601f016020809104026020016040519081016040528092919081815260200182805461160590614fbe565b80156116525780601f1061162757610100808354040283529160200191611652565b820191906000526020600020905b81548152906001019060200180831161163557829003601f168201915b5050505050915080805461166590614fbe565b80601f016020809104026020016040519081016040528092919081815260200182805461169190614fbe565b80156116de5780601f106116b3576101008083540402835291602001916116de565b820191906000526020600020905b8154815290600101906020018083116116c157829003601f168201915b505050505090509c509c509c509c509c509c509c509c509c509c509c509c505091939597999b5091939597999b565b606060016002811115611749577f4e487b7100000000000000000000000000000000000000000000000000000000600052602160045260246000fd5b826002811115611782577f4e487b7100000000000000000000000000000000000000000000000000000000600052602160045260246000fd5b14156117c5576040518060400160405280600581526020017f41444d494e00000000000000000000000000000000000000000000000000000081525090506118b3565b6002808111156117fe577f4e487b7100000000000000000000000000000000000000000000000000000000600052602160045260246000fd5b826002811115611837577f4e487b7100000000000000000000000000000000000000000000000000000000600052602160045260246000fd5b141561187a576040518060400160405280600981526020017f494e53504543544f52000000000000000000000000000000000000000000000081525090506118b3565b6040518060400160405280600481526020017f4e4f4e450000000000000000000000000000000000000000000000000000000081525090505b919050565b600381815481106118c857600080fd5b906000526020600020016000915054906101000a900473ffffffffffffffffffffffffffffffffffffffff1681565b600060205280600052604060002060009150905080600001549080600101805461192090614fbe565b80601f016020809104026020016040519081016040528092919081815260200182805461194c90614fbe565b80156119995780601f1061196e57610100808354040283529160200191611999565b820191906000526020600020905b81548152906001019060200180831161197c57829003601f168201915b5050505050908060020180546119ae90614fbe565b80601f01602080910402602001604051908101604052809291908181526020018280546119da90614fbe565b8015611a275780601f106119fc57610100808354040283529160200191611a27565b820191906000526020600020905b815481529060010190602001808311611a0a57829003601f168201915b505050505090806003018054611a3c90614fbe565b80601f0160208091040260200160405190810160405280929190818152602001828054611a6890614fbe565b8015611ab55780601f10611a8a57610100808354040283529160200191611ab5565b820191906000526020600020905b815481529060010190602001808311611a9857829003601f168201915b505050505090806004018054611aca90614fbe565b80601f0160208091040260200160405190810160405280929190818152602001828054611af690614fbe565b8015611b435780601f10611b1857610100808354040283529160200191611b43565b820191906000526020600020905b815481529060010190602001808311611b2657829003601f168201915b5050505050908060050154908060060154908060080160009054906101000a900460ff16908060090154905089565b600280811115611bab577f4e487b7100000000000000000000000000000000000000000000000000000000600052602160045260246000fd5b600760003373ffffffffffffffffffffffffffffffffffffffff1673ffffffffffffffffffffffffffffffffffffffff16815260200190815260200160002060009054906101000a900460ff166002811115611c30577f4e487b7100000000000000000000000000000000000000000000000000000000600052602160045260246000fd5b14611c70576040517f08c379a0000000000000000000000000000000000000000000000000000000008152600401611c6790614a9a565b60405180910390fd5b600060056000838152602001908152602001600020600001541415611cca576040517f08c379a0000000000000000000000000000000000000000000000000000000008152600401611cc190614a5a565b60405180910390fd5b6040518060400160405280600881526020017f617070726f76656400000000000000000000000000000000000000000000000081525060056000838152602001908152602001600020600b019080519060200190611d29929190613bdf565b5050565b60016002811115611d67577f4e487b7100000000000000000000000000000000000000000000000000000000600052602160045260246000fd5b600760003373ffffffffffffffffffffffffffffffffffffffff1673ffffffffffffffffffffffffffffffffffffffff16815260200190815260200160002060009054906101000a900460ff166002811115611dec577f4e487b7100000000000000000000000000000000000000000000000000000000600052602160045260246000fd5b14611e2c576040517f08c379a0000000000000000000000000000000000000000000000000000000008152600401611e239061499a565b60405180910390fd5b6000806000848152602001908152602001600020600001541415611e85576040517f08c379a0000000000000000000000000000000000000000000000000000000008152600401611e7c90614a7a565b60405180910390fd5b600060056000838152602001908152602001600020600001541415611edf576040517f08c379a0000000000000000000000000000000000000000000000000000000008152600401611ed6906149fa565b60405180910390fd5b6040518060400160405280600881526020017f617070726f7665640000000000000000000000000000000000000000000000008152508051906020012060056000838152602001908152602001600020600b01604051611f3f919061484f565b604051809103902014611f87576040517f08c379a0000000000000000000000000000000000000000000000000000000008152600401611f7e906149ba565b60405180910390fd5b60086000838152602001908152602001600020600082815260200190815260200160002060009054906101000a900460ff1615611ff9576040517f08c379a0000000000000000000000000000000000000000000000000000000008152600401611ff090614a3a565b60405180910390fd5b6000806000848152602001908152602001600020905080600901600081548092919061202490614ff0565b9190505550600560008381526020019081526020016000208160070160008360090154815260200190815260200160002060008201548160000155600182018160010190805461207390614fbe565b61207e929190613c65565b50600282018160020190805461209390614fbe565b61209e929190613c65565b5060038201816003019080546120b390614fbe565b6120be929190613c65565b5060048201816004019080546120d390614fbe565b6120de929190613c65565b5060058201816005019080546120f390614fbe565b6120fe929190613c65565b50600682018160060190805461211390614fbe565b61211e929190613c65565b50600782018160070190805461213390614fbe565b61213e929190613c65565b50600882018160080190805461215390614fbe565b61215e929190613c65565b50600982018160090190805461217390614fbe565b61217e929190613c65565b50600a820181600a0190805461219390614fbe565b61219e929190613c65565b50600b820181600b019080546121b390614fbe565b6121be929190613c65565b50905050600160086000858152602001908152602001600020600084815260200190815260200160002060006101000a81548160ff0219169083151502179055507fa4e69db433ebec4ded108fd5357e7b35d8671bc745d7f88a516b6c92f86a046e8383604051612230929190614dda565b60405180910390a1505050565b60015481565b60006060806060806000806000808911801561226157506001548911155b6122a0576040517f08c379a000000000000000000000000000000000000000000000000000000000815260040161229790614a1a565b60405180910390fd5b60008060008b81526020019081526020016000209050806000015481600101826002018360030184600401856005015486600601548760080160009054906101000a900460ff16600181111561231f577f4e487b7100000000000000000000000000000000000000000000000000000000600052602160045260246000fd5b86805461232b90614fbe565b80601f016020809104026020016040519081016040528092919081815260200182805461235790614fbe565b80156123a45780601f10612379576101008083540402835291602001916123a4565b820191906000526020600020905b81548152906001019060200180831161238757829003601f168201915b505050505096508580546123b790614fbe565b80601f01602080910402602001604051908101604052809291908181526020018280546123e390614fbe565b80156124305780601f1061240557610100808354040283529160200191612430565b820191906000526020600020905b81548152906001019060200180831161241357829003601f168201915b5050505050955084805461244390614fbe565b80601f016020809104026020016040519081016040528092919081815260200182805461246f90614fbe565b80156124bc5780601f10612491576101008083540402835291602001916124bc565b820191906000526020600020905b81548152906001019060200180831161249f57829003601f168201915b505050505094508380546124cf90614fbe565b80601f01602080910402602001604051908101604052809291908181526020018280546124fb90614fbe565b80156125485780601f1061251d57610100808354040283529160200191612548565b820191906000526020600020905b81548152906001019060200180831161252b57829003601f168201915b505050505093509850985098509850985098509850985050919395975091939597565b8181116125ad576040517f08c379a00000000000000000000000000000000000000000000000000000000081526004016125a4906149da565b60405180910390fd5b600160028111156125e7577f4e487b7100000000000000000000000000000000000000000000000000000000600052602160045260246000fd5b600760003373ffffffffffffffffffffffffffffffffffffffff1673ffffffffffffffffffffffffffffffffffffffff16815260200190815260200160002060009054906101000a900460ff16600281111561266c577f4e487b7100000000000000000000000000000000000000000000000000000000600052602160045260246000fd5b146126ac576040517f08c379a00000000000000000000000000000000000000000000000000000000081526004016126a39061499a565b60405180910390fd5b600160008154809291906126bf90614ff0565b9190505550600060015490506000806000838152602001908152602001600020905081816000018190555087816001019080519060200190612702929190613bdf565b508681600201908051906020019061271b929190613bdf565b5085816003019080519060200190612734929190613bdf565b508481600401908051906020019061274d929190613bdf565b5083816005018190555082816006018190555060008160080160006101000a81548160ff021916908360018111156127ae577f4e487b7100000000000000000000000000000000000000000000000000000000600052602160045260246000fd5b0217905550600081600901819055507fc99892518cd74e454ab95290546365ffdffbc46bc9986dc38fe36befcb402e65828989898989896040516127f89796959493929190614c0c565b60405180910390a15050505050505050565b60065481565b606060008211801561282457506001548211155b612863576040517f08c379a000000000000000000000000000000000000000000000000000000000815260040161285a90614a1a565b60405180910390fd5b600080600084815260200190815260200160002060090154905060008167ffffffffffffffff8111156128bf577f4e487b7100000000000000000000000000000000000000000000000000000000600052604160045260246000fd5b6040519080825280602002602001820160405280156128f857816020015b6128e5613cf2565b8152602001906001900390816128dd5790505b509050600080600190505b838111612ff1576000808781526020019081526020016000206007016000828152602001908152602001600020604051806101800160405290816000820154815260200160018201805461295690614fbe565b80601f016020809104026020016040519081016040528092919081815260200182805461298290614fbe565b80156129cf5780601f106129a4576101008083540402835291602001916129cf565b820191906000526020600020905b8154815290600101906020018083116129b257829003601f168201915b505050505081526020016002820180546129e890614fbe565b80601f0160208091040260200160405190810160405280929190818152602001828054612a1490614fbe565b8015612a615780601f10612a3657610100808354040283529160200191612a61565b820191906000526020600020905b815481529060010190602001808311612a4457829003601f168201915b50505050508152602001600382018054612a7a90614fbe565b80601f0160208091040260200160405190810160405280929190818152602001828054612aa690614fbe565b8015612af35780601f10612ac857610100808354040283529160200191612af3565b820191906000526020600020905b815481529060010190602001808311612ad657829003601f168201915b50505050508152602001600482018054612b0c90614fbe565b80601f0160208091040260200160405190810160405280929190818152602001828054612b3890614fbe565b8015612b855780601f10612b5a57610100808354040283529160200191612b85565b820191906000526020600020905b815481529060010190602001808311612b6857829003601f168201915b50505050508152602001600582018054612b9e90614fbe565b80601f0160208091040260200160405190810160405280929190818152602001828054612bca90614fbe565b8015612c175780601f10612bec57610100808354040283529160200191612c17565b820191906000526020600020905b815481529060010190602001808311612bfa57829003601f168201915b50505050508152602001600682018054612c3090614fbe565b80601f0160208091040260200160405190810160405280929190818152602001828054612c5c90614fbe565b8015612ca95780601f10612c7e57610100808354040283529160200191612ca9565b820191906000526020600020905b815481529060010190602001808311612c8c57829003601f168201915b50505050508152602001600782018054612cc290614fbe565b80601f0160208091040260200160405190810160405280929190818152602001828054612cee90614fbe565b8015612d3b5780601f10612d1057610100808354040283529160200191612d3b565b820191906000526020600020905b815481529060010190602001808311612d1e57829003601f168201915b50505050508152602001600882018054612d5490614fbe565b80601f0160208091040260200160405190810160405280929190818152602001828054612d8090614fbe565b8015612dcd5780601f10612da257610100808354040283529160200191612dcd565b820191906000526020600020905b815481529060010190602001808311612db057829003601f168201915b50505050508152602001600982018054612de690614fbe565b80601f0160208091040260200160405190810160405280929190818152602001828054612e1290614fbe565b8015612e5f5780601f10612e3457610100808354040283529160200191612e5f565b820191906000526020600020905b815481529060010190602001808311612e4257829003601f168201915b50505050508152602001600a82018054612e7890614fbe565b80601f0160208091040260200160405190810160405280929190818152602001828054612ea490614fbe565b8015612ef15780601f10612ec657610100808354040283529160200191612ef1565b820191906000526020600020905b815481529060010190602001808311612ed457829003601f168201915b50505050508152602001600b82018054612f0a90614fbe565b80601f0160208091040260200160405190810160405280929190818152602001828054612f3690614fbe565b8015612f835780601f10612f5857610100808354040283529160200191612f83565b820191906000526020600020905b815481529060010190602001808311612f6657829003601f168201915b505050505081525050838381518110612fc5577f4e487b7100000000000000000000000000000000000000000000000000000000600052603260045260246000fd5b60200260200101819052508180612fdb90614ff0565b9250508080612fe990614ff0565b915050612903565b50819350505050919050565b60076020528060005260406000206000915054906101000a900460ff1681565b6060600080600190505b60065481116130fc5783805190602001206005600083815260200190815260200160002060060160405161305b919061484f565b60405180910390201480156130d557506040518060400160405280600881526020017f617070726f7665640000000000000000000000000000000000000000000000008152508051906020012060056000838152602001908152602001600020600b016040516130cb919061484f565b6040518091039020145b156130e95781806130e590614ff0565b9250505b80806130f490614ff0565b915050613027565b5060008167ffffffffffffffff81111561313f577f4e487b7100000000000000000000000000000000000000000000000000000000600052604160045260246000fd5b60405190808252806020026020018201604052801561317857816020015b613165613cf2565b81526020019060019003908161315d5790505b509050600080600190505b600654811161390b578580519060200120600560008381526020019081526020016000206006016040516131b7919061484f565b604051809103902014801561323157506040518060400160405280600881526020017f617070726f7665640000000000000000000000000000000000000000000000008152508051906020012060056000838152602001908152602001600020600b01604051613227919061484f565b6040518091039020145b156138f85760056000828152602001908152602001600020604051806101800160405290816000820154815260200160018201805461326f90614fbe565b80601f016020809104026020016040519081016040528092919081815260200182805461329b90614fbe565b80156132e85780601f106132bd576101008083540402835291602001916132e8565b820191906000526020600020905b8154815290600101906020018083116132cb57829003601f168201915b5050505050815260200160028201805461330190614fbe565b80601f016020809104026020016040519081016040528092919081815260200182805461332d90614fbe565b801561337a5780601f1061334f5761010080835404028352916020019161337a565b820191906000526020600020905b81548152906001019060200180831161335d57829003601f168201915b5050505050815260200160038201805461339390614fbe565b80601f01602080910402602001604051908101604052809291908181526020018280546133bf90614fbe565b801561340c5780601f106133e15761010080835404028352916020019161340c565b820191906000526020600020905b8154815290600101906020018083116133ef57829003601f168201915b5050505050815260200160048201805461342590614fbe565b80601f016020809104026020016040519081016040528092919081815260200182805461345190614fbe565b801561349e5780601f106134735761010080835404028352916020019161349e565b820191906000526020600020905b81548152906001019060200180831161348157829003601f168201915b505050505081526020016005820180546134b790614fbe565b80601f01602080910402602001604051908101604052809291908181526020018280546134e390614fbe565b80156135305780601f1061350557610100808354040283529160200191613530565b820191906000526020600020905b81548152906001019060200180831161351357829003601f168201915b5050505050815260200160068201805461354990614fbe565b80601f016020809104026020016040519081016040528092919081815260200182805461357590614fbe565b80156135c25780601f10613597576101008083540402835291602001916135c2565b820191906000526020600020905b8154815290600101906020018083116135a557829003601f168201915b505050505081526020016007820180546135db90614fbe565b80601f016020809104026020016040519081016040528092919081815260200182805461360790614fbe565b80156136545780601f1061362957610100808354040283529160200191613654565b820191906000526020600020905b81548152906001019060200180831161363757829003601f168201915b5050505050815260200160088201805461366d90614fbe565b80601f016020809104026020016040519081016040528092919081815260200182805461369990614fbe565b80156136e65780601f106136bb576101008083540402835291602001916136e6565b820191906000526020600020905b8154815290600101906020018083116136c957829003601f168201915b505050505081526020016009820180546136ff90614fbe565b80601f016020809104026020016040519081016040528092919081815260200182805461372b90614fbe565b80156137785780601f1061374d57610100808354040283529160200191613778565b820191906000526020600020905b81548152906001019060200180831161375b57829003601f168201915b50505050508152602001600a8201805461379190614fbe565b80601f01602080910402602001604051908101604052809291908181526020018280546137bd90614fbe565b801561380a5780601f106137df5761010080835404028352916020019161380a565b820191906000526020600020905b8154815290600101906020018083116137ed57829003601f168201915b50505050508152602001600b8201805461382390614fbe565b80601f016020809104026020016040519081016040528092919081815260200182805461384f90614fbe565b801561389c5780601f106138715761010080835404028352916020019161389c565b820191906000526020600020905b81548152906001019060200180831161387f57829003601f168201915b5050505050815250508383815181106138de577f4e487b7100000000000000000000000000000000000000000000000000000000600052603260045260246000fd5b602002602001018190525081806138f490614ff0565b9250505b808061390390614ff0565b915050613183565b50819350505050919050565b600460008673ffffffffffffffffffffffffffffffffffffffff1673ffffffffffffffffffffffffffffffffffffffff16815260200190815260200160002060009054906101000a900460ff16613a24576003859080600181540180825580915050600190039060005260206000200160009091909190916101000a81548173ffffffffffffffffffffffffffffffffffffffff021916908373ffffffffffffffffffffffffffffffffffffffff1602179055506001600460008773ffffffffffffffffffffffffffffffffffffffff1673ffffffffffffffffffffffffffffffffffffffff16815260200190815260200160002060006101000a81548160ff0219169083151502179055505b6040518060800160405280858152602001848152602001613a448461170d565b8152602001821515815250600260008773ffffffffffffffffffffffffffffffffffffffff1673ffffffffffffffffffffffffffffffffffffffff1681526020019081526020016000206000820151816000019080519060200190613aaa929190613bdf565b506020820151816001019080519060200190613ac7929190613bdf565b506040820151816002019080519060200190613ae4929190613bdf565b5060608201518160030160006101000a81548160ff02191690831515021790555090505081600760008773ffffffffffffffffffffffffffffffffffffffff1673ffffffffffffffffffffffffffffffffffffffff16815260200190815260200160002060006101000a81548160ff02191690836002811115613b90577f4e487b7100000000000000000000000000000000000000000000000000000000600052602160045260246000fd5b02179055507f09f6343983a89cd9ef42910b46255d2371f6d6a76f4f526c92ffac9dbc17ba118585613bc18561170d565b604051613bd093929190614881565b60405180910390a15050505050565b828054613beb90614fbe565b90600052602060002090601f016020900481019282613c0d5760008555613c54565b82601f10613c2657805160ff1916838001178555613c54565b82800160010185558215613c54579182015b82811115613c53578251825591602001919060010190613c38565b5b509050613c619190613d53565b5090565b828054613c7190614fbe565b90600052602060002090601f016020900481019282613c935760008555613ce1565b82601f10613ca45780548555613ce1565b82800160010185558215613ce157600052602060002091601f016020900482015b82811115613ce0578254825591600101919060010190613cc5565b5b509050613cee9190613d53565b5090565b6040518061018001604052806000815260200160608152602001606081526020016060815260200160608152602001606081526020016060815260200160608152602001606081526020016060815260200160608152602001606081525090565b5b80821115613d6c576000816000905550600101613d54565b5090565b6000613d83613d7e84614e34565b614e03565b905082815260208101848484011115613d9b57600080fd5b613da6848285614f7c565b509392505050565b600081359050613dbd8161512e565b92915050565b600081359050613dd281615145565b92915050565b600081359050613de78161515c565b92915050565b600082601f830112613dfe57600080fd5b8135613e0e848260208601613d70565b91505092915050565b600081359050613e268161516c565b92915050565b600060208284031215613e3e57600080fd5b6000613e4c84828501613dae565b91505092915050565b600080600080600060a08688031215613e6d57600080fd5b6000613e7b88828901613dae565b955050602086013567ffffffffffffffff811115613e9857600080fd5b613ea488828901613ded565b945050604086013567ffffffffffffffff811115613ec157600080fd5b613ecd88828901613ded565b9350506060613ede88828901613dd8565b9250506080613eef88828901613dc3565b9150509295509295909350565b600060208284031215613f0e57600080fd5b6000613f1c84828501613dd8565b91505092915050565b600060208284031215613f3757600080fd5b600082013567ffffffffffffffff811115613f5157600080fd5b613f5d84828501613ded565b91505092915050565b6000806000806000806000806000806101408b8d031215613f8657600080fd5b60008b013567ffffffffffffffff811115613fa057600080fd5b613fac8d828e01613ded565b9a505060208b013567ffffffffffffffff811115613fc957600080fd5b613fd58d828e01613ded565b99505060408b013567ffffffffffffffff811115613ff257600080fd5b613ffe8d828e01613ded565b98505060608b013567ffffffffffffffff81111561401b57600080fd5b6140278d828e01613ded565b97505060808b013567ffffffffffffffff81111561404457600080fd5b6140508d828e01613ded565b96505060a08b013567ffffffffffffffff81111561406d57600080fd5b6140798d828e01613ded565b95505060c08b013567ffffffffffffffff81111561409657600080fd5b6140a28d828e01613ded565b94505060e08b013567ffffffffffffffff8111156140bf57600080fd5b6140cb8d828e01613ded565b9350506101008b013567ffffffffffffffff8111156140e957600080fd5b6140f58d828e01613ded565b9250506101208b013567ffffffffffffffff81111561411357600080fd5b61411f8d828e01613ded565b9150509295989b9194979a5092959850565b60008060008060008060c0878903121561414a57600080fd5b600087013567ffffffffffffffff81111561416457600080fd5b61417089828a01613ded565b965050602087013567ffffffffffffffff81111561418d57600080fd5b61419989828a01613ded565b955050604087013567ffffffffffffffff8111156141b657600080fd5b6141c289828a01613ded565b945050606087013567ffffffffffffffff8111156141df57600080fd5b6141eb89828a01613ded565b93505060806141fc89828a01613e17565b92505060a061420d89828a01613e17565b9150509295509295509295565b60006020828403121561422c57600080fd5b600061423a84828501613e17565b91505092915050565b6000806040838503121561425657600080fd5b600061426485828601613e17565b925050602061427585828601613e17565b9150509250929050565b600061428b83836146e7565b905092915050565b61429c81614eea565b82525050565b60006142ad82614e89565b6142b78185614eac565b9350836020820285016142c985614e64565b8060005b8581101561430557848403895281516142e6858261427f565b94506142f183614e9f565b925060208a019950506001810190506142cd565b50829750879550505050505092915050565b61432081614efc565b82525050565b6000815461433381614fbe565b61433d8186614ebd565b9450600182166000811461435857600181146143695761439c565b60ff1983168652818601935061439c565b61437285614e74565b60005b8381101561439457815481890152600182019150602081019050614375565b838801955050505b50505092915050565b6143ae81614f58565b82525050565b6143bd81614f6a565b82525050565b60006143ce82614e94565b6143d88185614ec8565b93506143e8818560208601614f8b565b6143f1816150f5565b840191505092915050565b600061440782614e94565b6144118185614ed9565b9350614421818560208601614f8b565b61442a816150f5565b840191505092915050565b6000614442601d83614ed9565b91507f4f6e6c792041444d494e2063616e206164642063616e646964617465730000006000830152602082019050919050565b6000614482601a83614ed9565b91507f43616e646964617465206d75737420626520617070726f7665640000000000006000830152602082019050919050565b60006144c2603183614ed9565b91507f54686f69206769616e206b657420746875632070686169206c6f6e20686f6e2060008301527f74686f69206769616e20626174206461750000000000000000000000000000006020830152604082019050919050565b6000614528601383614ed9565b91507f43616e646964617465206e6f7420666f756e64000000000000000000000000006000830152602082019050919050565b6000614568601783614ed9565b91507f456c656374696f6e20646f6573206e6f742065786973740000000000000000006000830152602082019050919050565b60006145a8602583614ed9565b91507f43616e64696461746520697320616c726561647920696e207468697320656c6560008301527f6374696f6e0000000000000000000000000000000000000000000000000000006020830152604082019050919050565b600061460e601883614ed9565b91507f43616e64696461746520646f6573206e6f7420657869737400000000000000006000830152602082019050919050565b600061464e601283614ed9565b91507f456c656374696f6e206e6f7420666f756e6400000000000000000000000000006000830152602082019050919050565b600061468e602583614ed9565b91507f4f6e6c7920494e53504543544f522063616e20617070726f76652063616e646960008301527f64617465730000000000000000000000000000000000000000000000000000006020830152604082019050919050565b6000610180830160008301516147006000860182614831565b506020830151848203602086015261471882826143c3565b9150506040830151848203604086015261473282826143c3565b9150506060830151848203606086015261474c82826143c3565b9150506080830151848203608086015261476682826143c3565b91505060a083015184820360a086015261478082826143c3565b91505060c083015184820360c086015261479a82826143c3565b91505060e083015184820360e08601526147b482826143c3565b9150506101008301518482036101008601526147d082826143c3565b9150506101208301518482036101208601526147ec82826143c3565b91505061014083015184820361014086015261480882826143c3565b91505061016083015184820361016086015261482482826143c3565b9150508091505092915050565b61483a81614f4e565b82525050565b61484981614f4e565b82525050565b600061485b8284614326565b915081905092915050565b600060208201905061487b6000830184614293565b92915050565b60006060820190506148966000830186614293565b81810360208301526148a881856143fc565b905081810360408301526148bc81846143fc565b9050949350505050565b600060208201905081810360008301526148e081846142a2565b905092915050565b60006020820190506148fd6000830184614317565b92915050565b600060208201905061491860008301846143b4565b92915050565b6000602082019050818103600083015261493881846143fc565b905092915050565b6000608082019050818103600083015261495a81876143fc565b9050818103602083015261496e81866143fc565b9050818103604083015261498281856143fc565b90506149916060830184614317565b95945050505050565b600060208201905081810360008301526149b381614435565b9050919050565b600060208201905081810360008301526149d381614475565b9050919050565b600060208201905081810360008301526149f3816144b5565b9050919050565b60006020820190508181036000830152614a138161451b565b9050919050565b60006020820190508181036000830152614a338161455b565b9050919050565b60006020820190508181036000830152614a538161459b565b9050919050565b60006020820190508181036000830152614a7381614601565b9050919050565b60006020820190508181036000830152614a9381614641565b9050919050565b60006020820190508181036000830152614ab381614681565b9050919050565b6000602082019050614acf6000830184614840565b92915050565b6000604082019050614aea6000830185614840565b8181036020830152614afc81846143fc565b90509392505050565b600061018082019050614b1b600083018f614840565b8181036020830152614b2d818e6143fc565b90508181036040830152614b41818d6143fc565b90508181036060830152614b55818c6143fc565b90508181036080830152614b69818b6143fc565b905081810360a0830152614b7d818a6143fc565b905081810360c0830152614b9181896143fc565b905081810360e0830152614ba581886143fc565b9050818103610100830152614bba81876143fc565b9050818103610120830152614bcf81866143fc565b9050818103610140830152614be481856143fc565b9050818103610160830152614bf981846143fc565b90509d9c50505050505050505050505050565b600060e082019050614c21600083018a614840565b8181036020830152614c3381896143fc565b90508181036040830152614c4781886143fc565b90508181036060830152614c5b81876143fc565b90508181036080830152614c6f81866143fc565b9050614c7e60a0830185614840565b614c8b60c0830184614840565b98975050505050505050565b600061012082019050614cad600083018c614840565b8181036020830152614cbf818b6143fc565b90508181036040830152614cd3818a6143fc565b90508181036060830152614ce781896143fc565b90508181036080830152614cfb81886143fc565b9050614d0a60a0830187614840565b614d1760c0830186614840565b614d2460e08301856143a5565b614d32610100830184614840565b9a9950505050505050505050565b600061010082019050614d56600083018b614840565b8181036020830152614d68818a6143fc565b90508181036040830152614d7c81896143fc565b90508181036060830152614d9081886143fc565b90508181036080830152614da481876143fc565b9050614db360a0830186614840565b614dc060c0830185614840565b614dcd60e0830184614840565b9998505050505050505050565b6000604082019050614def6000830185614840565b614dfc6020830184614840565b9392505050565b6000604051905081810181811067ffffffffffffffff82111715614e2a57614e296150c6565b5b8060405250919050565b600067ffffffffffffffff821115614e4f57614e4e6150c6565b5b601f19601f8301169050602081019050919050565b6000819050602082019050919050565b60008190508160005260206000209050919050565b600081519050919050565b600081519050919050565b6000602082019050919050565b600082825260208201905092915050565b600081905092915050565b600082825260208201905092915050565b600082825260208201905092915050565b6000614ef582614f2e565b9050919050565b60008115159050919050565b6000819050614f1682615106565b919050565b6000819050614f298261511a565b919050565b600073ffffffffffffffffffffffffffffffffffffffff82169050919050565b6000819050919050565b6000614f6382614f08565b9050919050565b6000614f7582614f1b565b9050919050565b82818337600083830152505050565b60005b83811015614fa9578082015181840152602081019050614f8e565b83811115614fb8576000848401525b50505050565b60006002820490506001821680614fd657607f821691505b60208210811415614fea57614fe9615097565b5b50919050565b6000614ffb82614f4e565b91507fffffffffffffffffffffffffffffffffffffffffffffffffffffffffffffffff82141561502e5761502d615039565b5b600182019050919050565b7f4e487b7100000000000000000000000000000000000000000000000000000000600052601160045260246000fd5b7f4e487b7100000000000000000000000000000000000000000000000000000000600052602160045260246000fd5b7f4e487b7100000000000000000000000000000000000000000000000000000000600052602260045260246000fd5b7f4e487b7100000000000000000000000000000000000000000000000000000000600052604160045260246000fd5b6000601f19601f8301169050919050565b6002811061511757615116615068565b5b50565b6003811061512b5761512a615068565b5b50565b61513781614eea565b811461514257600080fd5b50565b61514e81614efc565b811461515957600080fd5b50565b6003811061516957600080fd5b50565b61517581614f4e565b811461518057600080fd5b5056fea26469706673582212204df34cce36a80b18b3b50452c56559144f453ca40b1497a3b5802d0cad2069cf64736f6c63430008000033",
  "immutableReferences": {},
  "source": "// SPDX-License-Identifier: MIT\r\npragma solidity ^0.8.0;\r\n\r\ncontract Election {\r\n    struct Candidate {\r\n        uint256 id;\r\n        string fullName;\r\n        string birthDate;\r\n        string gender;\r\n        string nationality;\r\n        string ethnicity;\r\n        string hometown;\r\n        string education;\r\n        string degree;\r\n        string occupation;\r\n        string workplace;\r\n        string status;\r\n    }\r\n\r\n    struct ElectionDetails {\r\n        uint id;\r\n        string name;\r\n        string tinh;\r\n        string quan;\r\n        string phuong;\r\n        uint startTime;\r\n        uint endTime;\r\n        mapping(uint => Candidate) candidates;\r\n        Election_status status;\r\n        uint candidateCount;\r\n    }\r\n\r\n    struct Participant {\r\n        string name;\r\n        string phone;\r\n        string role; // \"ADMIN\", \"INSPECTOR\", \"VOTER\"\r\n        bool isActive;\r\n    }\r\n\r\n    mapping(uint => ElectionDetails) public elections;\r\n    uint public electionCount;\r\n\r\n    mapping(address => Participant) public participants;\r\n    address[] public participantAddresses;\r\n    mapping(address => bool) public participantRegistered;\r\n\r\n    mapping(uint256 => Candidate) public candidates;\r\n    uint256 public candidateCount;\r\n\r\n    event CandidateAdded(uint256 id, string fullName);\r\n    event ElectionCreated(\r\n        uint id,\r\n        string name,\r\n        string tinh,\r\n        string quan,\r\n        string phuong,\r\n        uint startTime,\r\n        uint endTime\r\n    );\r\n    event ParticipantRegistered(address participant, string name, string role);\r\n\r\n    enum Role {\r\n        NONE,\r\n        ADMIN,\r\n        INSPECTOR\r\n    }\r\n    mapping(address => Role) public participantRoles;\r\n\r\n    function setParticipant(\r\n        address _participant,\r\n        string memory _name,\r\n        string memory _phone,\r\n        Role _role,\r\n        bool _isActive\r\n    ) public {\r\n        if (!participantRegistered[_participant]) {\r\n            participantAddresses.push(_participant);\r\n            participantRegistered[_participant] = true;\r\n        }\r\n        participants[_participant] = Participant(\r\n            _name,\r\n            _phone,\r\n            getRoleString(_role),\r\n            _isActive\r\n        );\r\n        participantRoles[_participant] = _role;\r\n        emit ParticipantRegistered(_participant, _name, getRoleString(_role));\r\n    }\r\n\r\n    function getRoleString(Role _role) public pure returns (string memory) {\r\n        if (_role == Role.ADMIN) {\r\n            return \"ADMIN\";\r\n        } else if (_role == Role.INSPECTOR) {\r\n            return \"INSPECTOR\";\r\n        } else {\r\n            return \"NONE\";\r\n        }\r\n    }\r\n    \r\n    enum Election_status { Created, Approved }\r\n    function createElection(\r\n        string memory _name,\r\n        string memory _tinh,\r\n        string memory _quan,\r\n        string memory _phuong,\r\n        uint _startTime,\r\n        uint _endTime\r\n    ) public {\r\n        require(\r\n            _endTime > _startTime,\r\n            \"Thoi gian ket thuc phai lon hon thoi gian bat dau\"\r\n        );\r\n        require(\r\n            participantRoles[msg.sender] == Role.ADMIN,\r\n            \"Only ADMIN can add candidates\"\r\n        );\r\n\r\n        electionCount++;  // Tng s lng election\r\n        uint newElectionId = electionCount;\r\n\r\n        ElectionDetails storage newElection = elections[newElectionId];\r\n        newElection.id = newElectionId;\r\n        newElection.name = _name;\r\n        newElection.tinh = _tinh;\r\n        newElection.quan = _quan;\r\n        newElection.phuong = _phuong;\r\n        newElection.startTime = _startTime;\r\n        newElection.endTime = _endTime;\r\n        newElection.status = Election_status.Created;  //  Mc nh l Created\r\n        newElection.candidateCount = 0;\r\n\r\n        emit ElectionCreated(\r\n            newElectionId,\r\n            _name,\r\n            _tinh,\r\n            _quan,\r\n            _phuong,\r\n            _startTime,\r\n            _endTime\r\n        );\r\n    }\r\n\r\n    function addCandidate(\r\n        string memory _fullName,\r\n        string memory _birthDate,\r\n        string memory _gender,\r\n        string memory _nationality,\r\n        string memory _ethnicity,\r\n        string memory _hometown,\r\n        string memory _education,\r\n        string memory _degree,\r\n        string memory _occupation,\r\n        string memory _workplace\r\n    ) public {\r\n        require(\r\n            participantRoles[msg.sender] == Role.ADMIN,\r\n            \"Only ADMIN can add candidates\"\r\n        );\r\n\r\n        candidateCount++;\r\n        candidates[candidateCount] = Candidate(\r\n            candidateCount,\r\n            _fullName,\r\n            _birthDate,\r\n            _gender,\r\n            _nationality,\r\n            _ethnicity,\r\n            _hometown,\r\n            _education,\r\n            _degree,\r\n            _occupation,\r\n            _workplace,\r\n            \"pending\"\r\n        );\r\n\r\n        emit CandidateAdded(candidateCount, _fullName);\r\n    }\r\n    event LogCandidateId(uint256 candidateId);\r\n\r\n    function getCandidate(uint256 _candidateId) public returns (\r\n            uint256,\r\n            string memory,\r\n            string memory,\r\n            string memory,\r\n            string memory,\r\n            string memory,\r\n            string memory,\r\n            string memory,\r\n            string memory,\r\n            string memory,\r\n            string memory,\r\n            string memory\r\n        )\r\n    {\r\n        require(\r\n            _candidateId > 0 && _candidateId <= candidateCount,\r\n            \"Candidate does not exist\"\r\n        );\r\n\r\n        emit LogCandidateId(_candidateId);\r\n\r\n        Candidate storage candidate = candidates[_candidateId];\r\n\r\n        return (\r\n            candidate.id,\r\n            candidate.fullName,\r\n            candidate.birthDate,\r\n            candidate.gender,\r\n            candidate.nationality,\r\n            candidate.ethnicity,\r\n            candidate.hometown,\r\n            candidate.education,\r\n            candidate.degree,\r\n            candidate.occupation,\r\n            candidate.workplace,\r\n            candidate.status\r\n        );\r\n    }\r\n\r\n    function approveCandidate(uint256 _candidateId) public {\r\n        require(\r\n            participantRoles[msg.sender] == Role.INSPECTOR,\r\n            \"Only INSPECTOR can approve candidates\"\r\n        );\r\n        require(candidates[_candidateId].id != 0, \"Candidate does not exist\");\r\n\r\n        candidates[_candidateId].status = \"approved\";\r\n    }\r\n\r\n    function getApprovedCandidatesByHometown(string memory _workplace) public view returns (Candidate[] memory) {\r\n        uint count = 0;\r\n\r\n        // m s lng ng vin hp l\r\n        for (uint i = 1; i <= candidateCount; i++) {\r\n            if (\r\n                keccak256(bytes(candidates[i].hometown)) == keccak256(bytes(_workplace)) &&\r\n                keccak256(bytes(candidates[i].status)) == keccak256(bytes(\"approved\"))\r\n            ) {\r\n                count++;\r\n            }\r\n        }\r\n\r\n        // To danh sch ng vin hp l\r\n        Candidate[] memory approvedCandidates = new Candidate[](count);\r\n        uint index = 0;\r\n\r\n        for (uint i = 1; i <= candidateCount; i++) {\r\n            if (\r\n                keccak256(bytes(candidates[i].hometown)) == keccak256(bytes(_workplace)) &&\r\n                keccak256(bytes(candidates[i].status)) == keccak256(bytes(\"approved\"))\r\n            ) {\r\n                approvedCandidates[index] = candidates[i];\r\n                index++;\r\n            }\r\n        }\r\n\r\n        return approvedCandidates;\r\n    }\r\n\r\n\r\n    function getElection(uint _id) public view returns (\r\n        uint,\r\n        string memory,\r\n        string memory,\r\n        string memory,\r\n        string memory,\r\n        uint,\r\n        uint,\r\n        uint\r\n    ) {\r\n        require(_id > 0 && _id <= electionCount, \"Election does not exist\");\r\n\r\n        ElectionDetails storage election = elections[_id];\r\n\r\n        return (\r\n            election.id,\r\n            election.name,\r\n            election.tinh,\r\n            election.quan,\r\n            election.phuong,\r\n            election.startTime,\r\n            election.endTime,\r\n            uint(election.status) //  Chuyn enum thnh uint\r\n        );\r\n    }\r\n\r\n    function getCandidatesInElection(uint _electionId) public view returns (Candidate[] memory) {\r\n        require(_electionId > 0 && _electionId <= electionCount, \"Election does not exist\");\r\n\r\n        uint count = elections[_electionId].candidateCount;\r\n        Candidate[] memory candidateList = new Candidate[](count);\r\n        uint index = 0;\r\n\r\n        for (uint i = 1; i <= count; i++) {\r\n            candidateList[index] = elections[_electionId].candidates[i];\r\n            index++;\r\n        }\r\n\r\n        return candidateList;\r\n    }\r\n\r\n    // Mapping  kim tra ng vin  c trong cuc bu c cha\r\n    mapping(uint => mapping(uint => bool)) public isCandidateInElection;\r\n        function addCandidateToElection(uint _electionId, uint _candidateId) public {\r\n        require(participantRoles[msg.sender] == Role.ADMIN, \"Only ADMIN can add candidates\");\r\n        require(elections[_electionId].id != 0, \"Election not found\");\r\n        require(candidates[_candidateId].id != 0, \"Candidate not found\");\r\n        require(keccak256(bytes(candidates[_candidateId].status)) == keccak256(bytes(\"approved\")), \"Candidate must be approved\");\r\n        require(!isCandidateInElection[_electionId][_candidateId], \"Candidate is already in this election\");\r\n\r\n        ElectionDetails storage election = elections[_electionId];\r\n\r\n        // Thm ng vin vo danh sch cuc bu c\r\n        election.candidateCount++;\r\n        election.candidates[election.candidateCount] = candidates[_candidateId];\r\n\r\n        // nh du ng vin  c thm vo cuc bu c ny\r\n        isCandidateInElection[_electionId][_candidateId] = true;\r\n\r\n        emit CandidateAddedToElection(_electionId, _candidateId);\r\n    }\r\n\r\n    event CandidateAddedToElection(uint electionId, uint candidateId);\r\n}",
  "sourcePath": "C:\\Users\\minhh\\Downloads\\Admin_System-main (3)\\contracts\\Election.sol",
  "compiler": {
    "name": "solc",
    "version": "0.8.0+commit.c7dfd78e.Emscripten.clang"
  },
  "schemaVersion": "3.4.16",
  "updatedAt": "2025-03-30T02:04:12.169Z",
  "networkType": "ethereum",
  "devdoc": {
    "kind": "dev",
    "methods": {},
    "version": 1
  },
  "userdoc": {
    "kind": "user",
    "methods": {},
    "version": 1
  }
}