{
  "contractName": "Election",
  "abi": [
    {
      "anonymous": false,
      "inputs": [
        {
          "indexed": false,
          "internalType": "uint256",
          "name": "id",
          "type": "uint256"
        },
        {
          "indexed": false,
          "internalType": "string",
          "name": "fullName",
          "type": "string"
        }
      ],
      "name": "CandidateAdded",
      "type": "event"
    },
    {
      "anonymous": false,
      "inputs": [
        {
          "indexed": false,
          "internalType": "uint256",
          "name": "electionId",
          "type": "uint256"
        },
        {
          "indexed": false,
          "internalType": "uint256",
          "name": "candidateId",
          "type": "uint256"
        }
      ],
      "name": "CandidateAddedToElection",
      "type": "event"
    },
    {
      "anonymous": false,
      "inputs": [
        {
          "indexed": false,
          "internalType": "uint256",
          "name": "id",
          "type": "uint256"
        },
        {
          "indexed": false,
          "internalType": "string",
          "name": "name",
          "type": "string"
        },
        {
          "indexed": false,
          "internalType": "string",
          "name": "tinh",
          "type": "string"
        },
        {
          "indexed": false,
          "internalType": "string",
          "name": "quan",
          "type": "string"
        },
        {
          "indexed": false,
          "internalType": "string",
          "name": "phuong",
          "type": "string"
        },
        {
          "indexed": false,
          "internalType": "uint256",
          "name": "startTime",
          "type": "uint256"
        },
        {
          "indexed": false,
          "internalType": "uint256",
          "name": "endTime",
          "type": "uint256"
        }
      ],
      "name": "ElectionCreated",
      "type": "event"
    },
    {
      "anonymous": false,
      "inputs": [
        {
          "indexed": false,
          "internalType": "uint256",
          "name": "candidateId",
          "type": "uint256"
        }
      ],
      "name": "LogCandidateId",
      "type": "event"
    },
    {
      "anonymous": false,
      "inputs": [
        {
          "indexed": false,
          "internalType": "address",
          "name": "participant",
          "type": "address"
        },
        {
          "indexed": false,
          "internalType": "string",
          "name": "name",
          "type": "string"
        },
        {
          "indexed": false,
          "internalType": "string",
          "name": "role",
          "type": "string"
        }
      ],
      "name": "ParticipantRegistered",
      "type": "event"
    },
    {
      "inputs": [],
      "name": "candidateCount",
      "outputs": [
        {
          "internalType": "uint256",
          "name": "",
          "type": "uint256"
        }
      ],
      "stateMutability": "view",
      "type": "function",
      "constant": true
    },
    {
      "inputs": [
        {
          "internalType": "uint256",
          "name": "",
          "type": "uint256"
        }
      ],
      "name": "candidates",
      "outputs": [
        {
          "internalType": "uint256",
          "name": "id",
          "type": "uint256"
        },
        {
          "internalType": "string",
          "name": "fullName",
          "type": "string"
        },
        {
          "internalType": "string",
          "name": "birthDate",
          "type": "string"
        },
        {
          "internalType": "string",
          "name": "gender",
          "type": "string"
        },
        {
          "internalType": "string",
          "name": "nationality",
          "type": "string"
        },
        {
          "internalType": "string",
          "name": "ethnicity",
          "type": "string"
        },
        {
          "internalType": "string",
          "name": "hometown",
          "type": "string"
        },
        {
          "internalType": "string",
          "name": "education",
          "type": "string"
        },
        {
          "internalType": "string",
          "name": "degree",
          "type": "string"
        },
        {
          "internalType": "string",
          "name": "occupation",
          "type": "string"
        },
        {
          "internalType": "string",
          "name": "workplace",
          "type": "string"
        },
        {
          "internalType": "string",
          "name": "status",
          "type": "string"
        }
      ],
      "stateMutability": "view",
      "type": "function",
      "constant": true
    },
    {
      "inputs": [],
      "name": "electionCount",
      "outputs": [
        {
          "internalType": "uint256",
          "name": "",
          "type": "uint256"
        }
      ],
      "stateMutability": "view",
      "type": "function",
      "constant": true
    },
    {
      "inputs": [
        {
          "internalType": "uint256",
          "name": "",
          "type": "uint256"
        }
      ],
      "name": "elections",
      "outputs": [
        {
          "internalType": "uint256",
          "name": "id",
          "type": "uint256"
        },
        {
          "internalType": "string",
          "name": "name",
          "type": "string"
        },
        {
          "internalType": "string",
          "name": "tinh",
          "type": "string"
        },
        {
          "internalType": "string",
          "name": "quan",
          "type": "string"
        },
        {
          "internalType": "string",
          "name": "phuong",
          "type": "string"
        },
        {
          "internalType": "uint256",
          "name": "startTime",
          "type": "uint256"
        },
        {
          "internalType": "uint256",
          "name": "endTime",
          "type": "uint256"
        },
        {
          "internalType": "uint256",
          "name": "candidateCount",
          "type": "uint256"
        }
      ],
      "stateMutability": "view",
      "type": "function",
      "constant": true
    },
    {
      "inputs": [
        {
          "internalType": "uint256",
          "name": "",
          "type": "uint256"
        },
        {
          "internalType": "uint256",
          "name": "",
          "type": "uint256"
        }
      ],
      "name": "isCandidateInElection",
      "outputs": [
        {
          "internalType": "bool",
          "name": "",
          "type": "bool"
        }
      ],
      "stateMutability": "view",
      "type": "function",
      "constant": true
    },
    {
      "inputs": [
        {
          "internalType": "uint256",
          "name": "",
          "type": "uint256"
        }
      ],
      "name": "participantAddresses",
      "outputs": [
        {
          "internalType": "address",
          "name": "",
          "type": "address"
        }
      ],
      "stateMutability": "view",
      "type": "function",
      "constant": true
    },
    {
      "inputs": [
        {
          "internalType": "address",
          "name": "",
          "type": "address"
        }
      ],
      "name": "participantRegistered",
      "outputs": [
        {
          "internalType": "bool",
          "name": "",
          "type": "bool"
        }
      ],
      "stateMutability": "view",
      "type": "function",
      "constant": true
    },
    {
      "inputs": [
        {
          "internalType": "address",
          "name": "",
          "type": "address"
        }
      ],
      "name": "participantRoles",
      "outputs": [
        {
          "internalType": "enum Election.Role",
          "name": "",
          "type": "uint8"
        }
      ],
      "stateMutability": "view",
      "type": "function",
      "constant": true
    },
    {
      "inputs": [
        {
          "internalType": "address",
          "name": "",
          "type": "address"
        }
      ],
      "name": "participants",
      "outputs": [
        {
          "internalType": "string",
          "name": "name",
          "type": "string"
        },
        {
          "internalType": "string",
          "name": "phone",
          "type": "string"
        },
        {
          "internalType": "string",
          "name": "role",
          "type": "string"
        },
        {
          "internalType": "bool",
          "name": "isActive",
          "type": "bool"
        }
      ],
      "stateMutability": "view",
      "type": "function",
      "constant": true
    },
    {
      "inputs": [
        {
          "internalType": "address",
          "name": "_participant",
          "type": "address"
        },
        {
          "internalType": "string",
          "name": "_name",
          "type": "string"
        },
        {
          "internalType": "string",
          "name": "_phone",
          "type": "string"
        },
        {
          "internalType": "enum Election.Role",
          "name": "_role",
          "type": "uint8"
        },
        {
          "internalType": "bool",
          "name": "_isActive",
          "type": "bool"
        }
      ],
      "name": "setParticipant",
      "outputs": [],
      "stateMutability": "nonpayable",
      "type": "function"
    },
    {
      "inputs": [
        {
          "internalType": "enum Election.Role",
          "name": "_role",
          "type": "uint8"
        }
      ],
      "name": "getRoleString",
      "outputs": [
        {
          "internalType": "string",
          "name": "",
          "type": "string"
        }
      ],
      "stateMutability": "pure",
      "type": "function",
      "constant": true
    },
    {
      "inputs": [
        {
          "internalType": "string",
          "name": "_name",
          "type": "string"
        },
        {
          "internalType": "string",
          "name": "_tinh",
          "type": "string"
        },
        {
          "internalType": "string",
          "name": "_quan",
          "type": "string"
        },
        {
          "internalType": "string",
          "name": "_phuong",
          "type": "string"
        },
        {
          "internalType": "uint256",
          "name": "_startTime",
          "type": "uint256"
        },
        {
          "internalType": "uint256",
          "name": "_endTime",
          "type": "uint256"
        }
      ],
      "name": "createElection",
      "outputs": [],
      "stateMutability": "nonpayable",
      "type": "function"
    },
    {
      "inputs": [
        {
          "internalType": "string",
          "name": "_fullName",
          "type": "string"
        },
        {
          "internalType": "string",
          "name": "_birthDate",
          "type": "string"
        },
        {
          "internalType": "string",
          "name": "_gender",
          "type": "string"
        },
        {
          "internalType": "string",
          "name": "_nationality",
          "type": "string"
        },
        {
          "internalType": "string",
          "name": "_ethnicity",
          "type": "string"
        },
        {
          "internalType": "string",
          "name": "_hometown",
          "type": "string"
        },
        {
          "internalType": "string",
          "name": "_education",
          "type": "string"
        },
        {
          "internalType": "string",
          "name": "_degree",
          "type": "string"
        },
        {
          "internalType": "string",
          "name": "_occupation",
          "type": "string"
        },
        {
          "internalType": "string",
          "name": "_workplace",
          "type": "string"
        }
      ],
      "name": "addCandidate",
      "outputs": [],
      "stateMutability": "nonpayable",
      "type": "function"
    },
    {
      "inputs": [
        {
          "internalType": "uint256",
          "name": "_candidateId",
          "type": "uint256"
        }
      ],
      "name": "getCandidate",
      "outputs": [
        {
          "internalType": "uint256",
          "name": "",
          "type": "uint256"
        },
        {
          "internalType": "string",
          "name": "",
          "type": "string"
        },
        {
          "internalType": "string",
          "name": "",
          "type": "string"
        },
        {
          "internalType": "string",
          "name": "",
          "type": "string"
        },
        {
          "internalType": "string",
          "name": "",
          "type": "string"
        },
        {
          "internalType": "string",
          "name": "",
          "type": "string"
        },
        {
          "internalType": "string",
          "name": "",
          "type": "string"
        },
        {
          "internalType": "string",
          "name": "",
          "type": "string"
        },
        {
          "internalType": "string",
          "name": "",
          "type": "string"
        },
        {
          "internalType": "string",
          "name": "",
          "type": "string"
        },
        {
          "internalType": "string",
          "name": "",
          "type": "string"
        },
        {
          "internalType": "string",
          "name": "",
          "type": "string"
        }
      ],
      "stateMutability": "nonpayable",
      "type": "function"
    },
    {
      "inputs": [
        {
          "internalType": "uint256",
          "name": "_candidateId",
          "type": "uint256"
        }
      ],
      "name": "approveCandidate",
      "outputs": [],
      "stateMutability": "nonpayable",
      "type": "function"
    },
    {
      "inputs": [
        {
          "internalType": "string",
          "name": "_hometown",
          "type": "string"
        }
      ],
      "name": "getApprovedCandidatesByHometown",
      "outputs": [
        {
          "components": [
            {
              "internalType": "uint256",
              "name": "id",
              "type": "uint256"
            },
            {
              "internalType": "string",
              "name": "fullName",
              "type": "string"
            },
            {
              "internalType": "string",
              "name": "birthDate",
              "type": "string"
            },
            {
              "internalType": "string",
              "name": "gender",
              "type": "string"
            },
            {
              "internalType": "string",
              "name": "nationality",
              "type": "string"
            },
            {
              "internalType": "string",
              "name": "ethnicity",
              "type": "string"
            },
            {
              "internalType": "string",
              "name": "hometown",
              "type": "string"
            },
            {
              "internalType": "string",
              "name": "education",
              "type": "string"
            },
            {
              "internalType": "string",
              "name": "degree",
              "type": "string"
            },
            {
              "internalType": "string",
              "name": "occupation",
              "type": "string"
            },
            {
              "internalType": "string",
              "name": "workplace",
              "type": "string"
            },
            {
              "internalType": "string",
              "name": "status",
              "type": "string"
            }
          ],
          "internalType": "struct Election.Candidate[]",
          "name": "",
          "type": "tuple[]"
        }
      ],
      "stateMutability": "view",
      "type": "function",
      "constant": true
    },
    {
      "inputs": [
        {
          "internalType": "uint256",
          "name": "_id",
          "type": "uint256"
        }
      ],
      "name": "getElection",
      "outputs": [
        {
          "internalType": "uint256",
          "name": "",
          "type": "uint256"
        },
        {
          "internalType": "string",
          "name": "",
          "type": "string"
        },
        {
          "internalType": "string",
          "name": "",
          "type": "string"
        },
        {
          "internalType": "string",
          "name": "",
          "type": "string"
        },
        {
          "internalType": "string",
          "name": "",
          "type": "string"
        },
        {
          "internalType": "uint256",
          "name": "",
          "type": "uint256"
        },
        {
          "internalType": "uint256",
          "name": "",
          "type": "uint256"
        }
      ],
      "stateMutability": "view",
      "type": "function",
      "constant": true
    },
    {
      "inputs": [
        {
          "internalType": "uint256",
          "name": "_electionId",
          "type": "uint256"
        }
      ],
      "name": "getCandidatesInElection",
      "outputs": [
        {
          "components": [
            {
              "internalType": "uint256",
              "name": "id",
              "type": "uint256"
            },
            {
              "internalType": "string",
              "name": "fullName",
              "type": "string"
            },
            {
              "internalType": "string",
              "name": "birthDate",
              "type": "string"
            },
            {
              "internalType": "string",
              "name": "gender",
              "type": "string"
            },
            {
              "internalType": "string",
              "name": "nationality",
              "type": "string"
            },
            {
              "internalType": "string",
              "name": "ethnicity",
              "type": "string"
            },
            {
              "internalType": "string",
              "name": "hometown",
              "type": "string"
            },
            {
              "internalType": "string",
              "name": "education",
              "type": "string"
            },
            {
              "internalType": "string",
              "name": "degree",
              "type": "string"
            },
            {
              "internalType": "string",
              "name": "occupation",
              "type": "string"
            },
            {
              "internalType": "string",
              "name": "workplace",
              "type": "string"
            },
            {
              "internalType": "string",
              "name": "status",
              "type": "string"
            }
          ],
          "internalType": "struct Election.Candidate[]",
          "name": "",
          "type": "tuple[]"
        }
      ],
      "stateMutability": "view",
      "type": "function",
      "constant": true
    },
    {
      "inputs": [
        {
          "internalType": "uint256",
          "name": "_electionId",
          "type": "uint256"
        },
        {
          "internalType": "uint256",
          "name": "_candidateId",
          "type": "uint256"
        }
      ],
      "name": "addCandidateToElection",
      "outputs": [],
      "stateMutability": "nonpayable",
      "type": "function"
    }
  ],
  "bytecode": "0x608060405234801561001057600080fd5b506150d4806100206000396000f3fe608060405234801561001057600080fd5b50600436106101215760003560e01c806369956046116100ad578063a9a981a311610071578063a9a981a31461038a578063bcfb64eb146103a8578063c2e4fe5a146103d8578063cdc440fe14610408578063d266c0891461043857610121565b806369956046146102e2578063778c6439146102fe578063997d28301461031a5780639d71077714610338578063a7c4b72e1461036e57610121565b80633477ee2e116100f45780633477ee2e146101d557806335b8e820146102105780633f3c0a581461024b57806354ffbddb1461027b5780635e6fef01146102ab57610121565b806309e69ede146101265780631c510002146101595780631d733337146101895780632a5878d0146101b9575b600080fd5b610140600480360381019061013b9190613de2565b610454565b60405161015094939291906148e7565b60405180910390f35b610173600480360381019061016e91906141f9565b610629565b604051610180919061488f565b60405180910390f35b6101a3600480360381019061019e9190613de2565b610658565b6040516101b0919061488f565b60405180910390f35b6101d360048036038101906101ce9190613f1c565b610678565b005b6101ef60048036038101906101ea91906141d0565b6109c4565b6040516102079c9b9a99989796959493929190614aac565b60405180910390f35b61022a600480360381019061022591906141d0565b610ffc565b6040516102429c9b9a99989796959493929190614aac565b60405180910390f35b61026560048036038101906102609190613eb2565b61170b565b60405161027291906148c5565b60405180910390f35b610295600480360381019061029091906141d0565b6118b6565b6040516102a2919061480d565b60405180910390f35b6102c560048036038101906102c091906141d0565b6118f5565b6040516102d9989796959493929190614c3e565b60405180910390f35b6102fc60048036038101906102f791906141d0565b611b5d565b005b610318600480360381019061031391906141f9565b611d18565b005b610322612228565b60405161032f9190614a61565b60405180910390f35b610352600480360381019061034d91906141d0565b61222e565b6040516103659796959493929190614bb3565b60405180910390f35b610388600480360381019061038391906140e7565b612509565b005b6103926127c0565b60405161039f9190614a61565b60405180910390f35b6103c260048036038101906103bd91906141d0565b6127c6565b6040516103cf919061486d565b60405180910390f35b6103f260048036038101906103ed9190613de2565b612fb3565b6040516103ff91906148aa565b60405180910390f35b610422600480360381019061041d9190613edb565b612fd3565b60405161042f919061486d565b60405180910390f35b610452600480360381019061044d9190613e0b565b6138cd565b005b600260205280600052604060002060009150905080600001805461047790614eed565b80601f01602080910402602001604051908101604052809291908181526020018280546104a390614eed565b80156104f05780601f106104c5576101008083540402835291602001916104f0565b820191906000526020600020905b8154815290600101906020018083116104d357829003601f168201915b50505050509080600101805461050590614eed565b80601f016020809104026020016040519081016040528092919081815260200182805461053190614eed565b801561057e5780601f106105535761010080835404028352916020019161057e565b820191906000526020600020905b81548152906001019060200180831161056157829003601f168201915b50505050509080600201805461059390614eed565b80601f01602080910402602001604051908101604052809291908181526020018280546105bf90614eed565b801561060c5780601f106105e15761010080835404028352916020019161060c565b820191906000526020600020905b8154815290600101906020018083116105ef57829003601f168201915b5050505050908060030160009054906101000a900460ff16905084565b60086020528160005260406000206020528060005260406000206000915091509054906101000a900460ff1681565b60046020528060005260406000206000915054906101000a900460ff1681565b600160028111156106b2577f4e487b7100000000000000000000000000000000000000000000000000000000600052602160045260246000fd5b600760003373ffffffffffffffffffffffffffffffffffffffff1673ffffffffffffffffffffffffffffffffffffffff16815260200190815260200160002060009054906101000a900460ff166002811115610737577f4e487b7100000000000000000000000000000000000000000000000000000000600052602160045260246000fd5b14610777576040517f08c379a000000000000000000000000000000000000000000000000000000000815260040161076e90614941565b60405180910390fd5b6006600081548092919061078a90614f1f565b919050555060405180610180016040528060065481526020018b81526020018a81526020018981526020018881526020018781526020018681526020018581526020018481526020018381526020018281526020016040518060400160405280600781526020017f70656e64696e6700000000000000000000000000000000000000000000000000815250815250600560006006548152602001908152602001600020600082015181600001556020820151816001019080519060200190610853929190613b95565b506040820151816002019080519060200190610870929190613b95565b50606082015181600301908051906020019061088d929190613b95565b5060808201518160040190805190602001906108aa929190613b95565b5060a08201518160050190805190602001906108c7929190613b95565b5060c08201518160060190805190602001906108e4929190613b95565b5060e0820151816007019080519060200190610901929190613b95565b5061010082015181600801908051906020019061091f929190613b95565b5061012082015181600901908051906020019061093d929190613b95565b5061014082015181600a01908051906020019061095b929190613b95565b5061016082015181600b019080519060200190610979929190613b95565b509050507fe83b2a43e7e82d975c8a0a6d2f045153c869e111136a34d1889ab7b598e396a36006548b6040516109b0929190614a7c565b60405180910390a150505050505050505050565b60056020528060005260406000206000915090508060000154908060010180546109ed90614eed565b80601f0160208091040260200160405190810160405280929190818152602001828054610a1990614eed565b8015610a665780601f10610a3b57610100808354040283529160200191610a66565b820191906000526020600020905b815481529060010190602001808311610a4957829003601f168201915b505050505090806002018054610a7b90614eed565b80601f0160208091040260200160405190810160405280929190818152602001828054610aa790614eed565b8015610af45780601f10610ac957610100808354040283529160200191610af4565b820191906000526020600020905b815481529060010190602001808311610ad757829003601f168201915b505050505090806003018054610b0990614eed565b80601f0160208091040260200160405190810160405280929190818152602001828054610b3590614eed565b8015610b825780601f10610b5757610100808354040283529160200191610b82565b820191906000526020600020905b815481529060010190602001808311610b6557829003601f168201915b505050505090806004018054610b9790614eed565b80601f0160208091040260200160405190810160405280929190818152602001828054610bc390614eed565b8015610c105780601f10610be557610100808354040283529160200191610c10565b820191906000526020600020905b815481529060010190602001808311610bf357829003601f168201915b505050505090806005018054610c2590614eed565b80601f0160208091040260200160405190810160405280929190818152602001828054610c5190614eed565b8015610c9e5780601f10610c7357610100808354040283529160200191610c9e565b820191906000526020600020905b815481529060010190602001808311610c8157829003601f168201915b505050505090806006018054610cb390614eed565b80601f0160208091040260200160405190810160405280929190818152602001828054610cdf90614eed565b8015610d2c5780601f10610d0157610100808354040283529160200191610d2c565b820191906000526020600020905b815481529060010190602001808311610d0f57829003601f168201915b505050505090806007018054610d4190614eed565b80601f0160208091040260200160405190810160405280929190818152602001828054610d6d90614eed565b8015610dba5780601f10610d8f57610100808354040283529160200191610dba565b820191906000526020600020905b815481529060010190602001808311610d9d57829003601f168201915b505050505090806008018054610dcf90614eed565b80601f0160208091040260200160405190810160405280929190818152602001828054610dfb90614eed565b8015610e485780601f10610e1d57610100808354040283529160200191610e48565b820191906000526020600020905b815481529060010190602001808311610e2b57829003601f168201915b505050505090806009018054610e5d90614eed565b80601f0160208091040260200160405190810160405280929190818152602001828054610e8990614eed565b8015610ed65780601f10610eab57610100808354040283529160200191610ed6565b820191906000526020600020905b815481529060010190602001808311610eb957829003601f168201915b50505050509080600a018054610eeb90614eed565b80601f0160208091040260200160405190810160405280929190818152602001828054610f1790614eed565b8015610f645780601f10610f3957610100808354040283529160200191610f64565b820191906000526020600020905b815481529060010190602001808311610f4757829003601f168201915b50505050509080600b018054610f7990614eed565b80601f0160208091040260200160405190810160405280929190818152602001828054610fa590614eed565b8015610ff25780601f10610fc757610100808354040283529160200191610ff2565b820191906000526020600020905b815481529060010190602001808311610fd557829003601f168201915b505050505090508c565b6000606080606080606080606080606080606060008d11801561102157506006548d11155b611060576040517f08c379a000000000000000000000000000000000000000000000000000000000815260040161105790614a01565b60405180910390fd5b7f786c3de6cf1fe392b3cb2804dc549c60381197c30c93e07f95b97cdd7d7650e38d60405161108f9190614a61565b60405180910390a16000600560008f8152602001908152602001600020905080600001548160010182600201836003018460040185600501866006018760070188600801896009018a600a018b600b018a80546110eb90614eed565b80601f016020809104026020016040519081016040528092919081815260200182805461111790614eed565b80156111645780601f1061113957610100808354040283529160200191611164565b820191906000526020600020905b81548152906001019060200180831161114757829003601f168201915b50505050509a5089805461117790614eed565b80601f01602080910402602001604051908101604052809291908181526020018280546111a390614eed565b80156111f05780601f106111c5576101008083540402835291602001916111f0565b820191906000526020600020905b8154815290600101906020018083116111d357829003601f168201915b5050505050995088805461120390614eed565b80601f016020809104026020016040519081016040528092919081815260200182805461122f90614eed565b801561127c5780601f106112515761010080835404028352916020019161127c565b820191906000526020600020905b81548152906001019060200180831161125f57829003601f168201915b5050505050985087805461128f90614eed565b80601f01602080910402602001604051908101604052809291908181526020018280546112bb90614eed565b80156113085780601f106112dd57610100808354040283529160200191611308565b820191906000526020600020905b8154815290600101906020018083116112eb57829003601f168201915b5050505050975086805461131b90614eed565b80601f016020809104026020016040519081016040528092919081815260200182805461134790614eed565b80156113945780601f1061136957610100808354040283529160200191611394565b820191906000526020600020905b81548152906001019060200180831161137757829003601f168201915b505050505096508580546113a790614eed565b80601f01602080910402602001604051908101604052809291908181526020018280546113d390614eed565b80156114205780601f106113f557610100808354040283529160200191611420565b820191906000526020600020905b81548152906001019060200180831161140357829003601f168201915b5050505050955084805461143390614eed565b80601f016020809104026020016040519081016040528092919081815260200182805461145f90614eed565b80156114ac5780601f10611481576101008083540402835291602001916114ac565b820191906000526020600020905b81548152906001019060200180831161148f57829003601f168201915b505050505094508380546114bf90614eed565b80601f01602080910402602001604051908101604052809291908181526020018280546114eb90614eed565b80156115385780601f1061150d57610100808354040283529160200191611538565b820191906000526020600020905b81548152906001019060200180831161151b57829003601f168201915b5050505050935082805461154b90614eed565b80601f016020809104026020016040519081016040528092919081815260200182805461157790614eed565b80156115c45780601f10611599576101008083540402835291602001916115c4565b820191906000526020600020905b8154815290600101906020018083116115a757829003601f168201915b505050505092508180546115d790614eed565b80601f016020809104026020016040519081016040528092919081815260200182805461160390614eed565b80156116505780601f1061162557610100808354040283529160200191611650565b820191906000526020600020905b81548152906001019060200180831161163357829003601f168201915b5050505050915080805461166390614eed565b80601f016020809104026020016040519081016040528092919081815260200182805461168f90614eed565b80156116dc5780601f106116b1576101008083540402835291602001916116dc565b820191906000526020600020905b8154815290600101906020018083116116bf57829003601f168201915b505050505090509c509c509c509c509c509c509c509c509c509c509c509c505091939597999b5091939597999b565b606060016002811115611747577f4e487b7100000000000000000000000000000000000000000000000000000000600052602160045260246000fd5b826002811115611780577f4e487b7100000000000000000000000000000000000000000000000000000000600052602160045260246000fd5b14156117c3576040518060400160405280600581526020017f41444d494e00000000000000000000000000000000000000000000000000000081525090506118b1565b6002808111156117fc577f4e487b7100000000000000000000000000000000000000000000000000000000600052602160045260246000fd5b826002811115611835577f4e487b7100000000000000000000000000000000000000000000000000000000600052602160045260246000fd5b1415611878576040518060400160405280600981526020017f494e53504543544f52000000000000000000000000000000000000000000000081525090506118b1565b6040518060400160405280600481526020017f4e4f4e450000000000000000000000000000000000000000000000000000000081525090505b919050565b600381815481106118c657600080fd5b906000526020600020016000915054906101000a900473ffffffffffffffffffffffffffffffffffffffff1681565b600060205280600052604060002060009150905080600001549080600101805461191e90614eed565b80601f016020809104026020016040519081016040528092919081815260200182805461194a90614eed565b80156119975780601f1061196c57610100808354040283529160200191611997565b820191906000526020600020905b81548152906001019060200180831161197a57829003601f168201915b5050505050908060020180546119ac90614eed565b80601f01602080910402602001604051908101604052809291908181526020018280546119d890614eed565b8015611a255780601f106119fa57610100808354040283529160200191611a25565b820191906000526020600020905b815481529060010190602001808311611a0857829003601f168201915b505050505090806003018054611a3a90614eed565b80601f0160208091040260200160405190810160405280929190818152602001828054611a6690614eed565b8015611ab35780601f10611a8857610100808354040283529160200191611ab3565b820191906000526020600020905b815481529060010190602001808311611a9657829003601f168201915b505050505090806004018054611ac890614eed565b80601f0160208091040260200160405190810160405280929190818152602001828054611af490614eed565b8015611b415780601f10611b1657610100808354040283529160200191611b41565b820191906000526020600020905b815481529060010190602001808311611b2457829003601f168201915b5050505050908060050154908060060154908060080154905088565b600280811115611b96577f4e487b7100000000000000000000000000000000000000000000000000000000600052602160045260246000fd5b600760003373ffffffffffffffffffffffffffffffffffffffff1673ffffffffffffffffffffffffffffffffffffffff16815260200190815260200160002060009054906101000a900460ff166002811115611c1b577f4e487b7100000000000000000000000000000000000000000000000000000000600052602160045260246000fd5b14611c5b576040517f08c379a0000000000000000000000000000000000000000000000000000000008152600401611c5290614a41565b60405180910390fd5b600060056000838152602001908152602001600020600001541415611cb5576040517f08c379a0000000000000000000000000000000000000000000000000000000008152600401611cac90614a01565b60405180910390fd5b6040518060400160405280600881526020017f617070726f76656400000000000000000000000000000000000000000000000081525060056000838152602001908152602001600020600b019080519060200190611d14929190613b95565b5050565b60016002811115611d52577f4e487b7100000000000000000000000000000000000000000000000000000000600052602160045260246000fd5b600760003373ffffffffffffffffffffffffffffffffffffffff1673ffffffffffffffffffffffffffffffffffffffff16815260200190815260200160002060009054906101000a900460ff166002811115611dd7577f4e487b7100000000000000000000000000000000000000000000000000000000600052602160045260246000fd5b14611e17576040517f08c379a0000000000000000000000000000000000000000000000000000000008152600401611e0e90614941565b60405180910390fd5b6000806000848152602001908152602001600020600001541415611e70576040517f08c379a0000000000000000000000000000000000000000000000000000000008152600401611e6790614a21565b60405180910390fd5b600060056000838152602001908152602001600020600001541415611eca576040517f08c379a0000000000000000000000000000000000000000000000000000000008152600401611ec1906149a1565b60405180910390fd5b6040518060400160405280600881526020017f617070726f7665640000000000000000000000000000000000000000000000008152508051906020012060056000838152602001908152602001600020600b01604051611f2a91906147f6565b604051809103902014611f72576040517f08c379a0000000000000000000000000000000000000000000000000000000008152600401611f6990614961565b60405180910390fd5b60086000838152602001908152602001600020600082815260200190815260200160002060009054906101000a900460ff1615611fe4576040517f08c379a0000000000000000000000000000000000000000000000000000000008152600401611fdb906149e1565b60405180910390fd5b6000806000848152602001908152602001600020905080600801600081548092919061200f90614f1f565b9190505550600560008381526020019081526020016000208160070160008360080154815260200190815260200160002060008201548160000155600182018160010190805461205e90614eed565b612069929190613c1b565b50600282018160020190805461207e90614eed565b612089929190613c1b565b50600382018160030190805461209e90614eed565b6120a9929190613c1b565b5060048201816004019080546120be90614eed565b6120c9929190613c1b565b5060058201816005019080546120de90614eed565b6120e9929190613c1b565b5060068201816006019080546120fe90614eed565b612109929190613c1b565b50600782018160070190805461211e90614eed565b612129929190613c1b565b50600882018160080190805461213e90614eed565b612149929190613c1b565b50600982018160090190805461215e90614eed565b612169929190613c1b565b50600a820181600a0190805461217e90614eed565b612189929190613c1b565b50600b820181600b0190805461219e90614eed565b6121a9929190613c1b565b50905050600160086000858152602001908152602001600020600084815260200190815260200160002060006101000a81548160ff0219169083151502179055507fa4e69db433ebec4ded108fd5357e7b35d8671bc745d7f88a516b6c92f86a046e838360405161221b929190614cd8565b60405180910390a1505050565b60015481565b600060608060608060008060008811801561224b57506001548811155b61228a576040517f08c379a0000000000000000000000000000000000000000000000000000000008152600401612281906149c1565b60405180910390fd5b60008060008a81526020019081526020016000209050806000015481600101826002018360030184600401856005015486600601548580546122cb90614eed565b80601f01602080910402602001604051908101604052809291908181526020018280546122f790614eed565b80156123445780601f1061231957610100808354040283529160200191612344565b820191906000526020600020905b81548152906001019060200180831161232757829003601f168201915b5050505050955084805461235790614eed565b80601f016020809104026020016040519081016040528092919081815260200182805461238390614eed565b80156123d05780601f106123a5576101008083540402835291602001916123d0565b820191906000526020600020905b8154815290600101906020018083116123b357829003601f168201915b505050505094508380546123e390614eed565b80601f016020809104026020016040519081016040528092919081815260200182805461240f90614eed565b801561245c5780601f106124315761010080835404028352916020019161245c565b820191906000526020600020905b81548152906001019060200180831161243f57829003601f168201915b5050505050935082805461246f90614eed565b80601f016020809104026020016040519081016040528092919081815260200182805461249b90614eed565b80156124e85780601f106124bd576101008083540402835291602001916124e8565b820191906000526020600020905b8154815290600101906020018083116124cb57829003601f168201915b50505050509250975097509750975097509750975050919395979092949650565b81811161254b576040517f08c379a000000000000000000000000000000000000000000000000000000000815260040161254290614981565b60405180910390fd5b60016002811115612585577f4e487b7100000000000000000000000000000000000000000000000000000000600052602160045260246000fd5b600760003373ffffffffffffffffffffffffffffffffffffffff1673ffffffffffffffffffffffffffffffffffffffff16815260200190815260200160002060009054906101000a900460ff16600281111561260a577f4e487b7100000000000000000000000000000000000000000000000000000000600052602160045260246000fd5b1461264a576040517f08c379a000000000000000000000000000000000000000000000000000000000815260040161264190614941565b60405180910390fd5b60006001805461265a9190614de8565b9050806000808381526020019081526020016000206000018190555086600080838152602001908152602001600020600101908051906020019061269f929190613b95565b508560008083815260200190815260200160002060020190805190602001906126c9929190613b95565b508460008083815260200190815260200160002060030190805190602001906126f3929190613b95565b5083600080838152602001908152602001600020600401908051906020019061271d929190613b95565b5082600080838152602001908152602001600020600501819055508160008083815260200190815260200160002060060181905550600080600083815260200190815260200160002060080181905550806001819055507fc99892518cd74e454ab95290546365ffdffbc46bc9986dc38fe36befcb402e65818888888888886040516127af9796959493929190614bb3565b60405180910390a150505050505050565b60065481565b60606000821180156127da57506001548211155b612819576040517f08c379a0000000000000000000000000000000000000000000000000000000008152600401612810906149c1565b60405180910390fd5b600080600084815260200190815260200160002060080154905060008167ffffffffffffffff811115612875577f4e487b7100000000000000000000000000000000000000000000000000000000600052604160045260246000fd5b6040519080825280602002602001820160405280156128ae57816020015b61289b613ca8565b8152602001906001900390816128935790505b509050600080600190505b838111612fa7576000808781526020019081526020016000206007016000828152602001908152602001600020604051806101800160405290816000820154815260200160018201805461290c90614eed565b80601f016020809104026020016040519081016040528092919081815260200182805461293890614eed565b80156129855780601f1061295a57610100808354040283529160200191612985565b820191906000526020600020905b81548152906001019060200180831161296857829003601f168201915b5050505050815260200160028201805461299e90614eed565b80601f01602080910402602001604051908101604052809291908181526020018280546129ca90614eed565b8015612a175780601f106129ec57610100808354040283529160200191612a17565b820191906000526020600020905b8154815290600101906020018083116129fa57829003601f168201915b50505050508152602001600382018054612a3090614eed565b80601f0160208091040260200160405190810160405280929190818152602001828054612a5c90614eed565b8015612aa95780601f10612a7e57610100808354040283529160200191612aa9565b820191906000526020600020905b815481529060010190602001808311612a8c57829003601f168201915b50505050508152602001600482018054612ac290614eed565b80601f0160208091040260200160405190810160405280929190818152602001828054612aee90614eed565b8015612b3b5780601f10612b1057610100808354040283529160200191612b3b565b820191906000526020600020905b815481529060010190602001808311612b1e57829003601f168201915b50505050508152602001600582018054612b5490614eed565b80601f0160208091040260200160405190810160405280929190818152602001828054612b8090614eed565b8015612bcd5780601f10612ba257610100808354040283529160200191612bcd565b820191906000526020600020905b815481529060010190602001808311612bb057829003601f168201915b50505050508152602001600682018054612be690614eed565b80601f0160208091040260200160405190810160405280929190818152602001828054612c1290614eed565b8015612c5f5780601f10612c3457610100808354040283529160200191612c5f565b820191906000526020600020905b815481529060010190602001808311612c4257829003601f168201915b50505050508152602001600782018054612c7890614eed565b80601f0160208091040260200160405190810160405280929190818152602001828054612ca490614eed565b8015612cf15780601f10612cc657610100808354040283529160200191612cf1565b820191906000526020600020905b815481529060010190602001808311612cd457829003601f168201915b50505050508152602001600882018054612d0a90614eed565b80601f0160208091040260200160405190810160405280929190818152602001828054612d3690614eed565b8015612d835780601f10612d5857610100808354040283529160200191612d83565b820191906000526020600020905b815481529060010190602001808311612d6657829003601f168201915b50505050508152602001600982018054612d9c90614eed565b80601f0160208091040260200160405190810160405280929190818152602001828054612dc890614eed565b8015612e155780601f10612dea57610100808354040283529160200191612e15565b820191906000526020600020905b815481529060010190602001808311612df857829003601f168201915b50505050508152602001600a82018054612e2e90614eed565b80601f0160208091040260200160405190810160405280929190818152602001828054612e5a90614eed565b8015612ea75780601f10612e7c57610100808354040283529160200191612ea7565b820191906000526020600020905b815481529060010190602001808311612e8a57829003601f168201915b50505050508152602001600b82018054612ec090614eed565b80601f0160208091040260200160405190810160405280929190818152602001828054612eec90614eed565b8015612f395780601f10612f0e57610100808354040283529160200191612f39565b820191906000526020600020905b815481529060010190602001808311612f1c57829003601f168201915b505050505081525050838381518110612f7b577f4e487b7100000000000000000000000000000000000000000000000000000000600052603260045260246000fd5b60200260200101819052508180612f9190614f1f565b9250508080612f9f90614f1f565b9150506128b9565b50819350505050919050565b60076020528060005260406000206000915054906101000a900460ff1681565b6060600080600190505b60065481116130b25783805190602001206005600083815260200190815260200160002060060160405161301191906147f6565b604051809103902014801561308b57506040518060400160405280600881526020017f617070726f7665640000000000000000000000000000000000000000000000008152508051906020012060056000838152602001908152602001600020600b0160405161308191906147f6565b6040518091039020145b1561309f57818061309b90614f1f565b9250505b80806130aa90614f1f565b915050612fdd565b5060008167ffffffffffffffff8111156130f5577f4e487b7100000000000000000000000000000000000000000000000000000000600052604160045260246000fd5b60405190808252806020026020018201604052801561312e57816020015b61311b613ca8565b8152602001906001900390816131135790505b509050600080600190505b60065481116138c15785805190602001206005600083815260200190815260200160002060060160405161316d91906147f6565b60405180910390201480156131e757506040518060400160405280600881526020017f617070726f7665640000000000000000000000000000000000000000000000008152508051906020012060056000838152602001908152602001600020600b016040516131dd91906147f6565b6040518091039020145b156138ae5760056000828152602001908152602001600020604051806101800160405290816000820154815260200160018201805461322590614eed565b80601f016020809104026020016040519081016040528092919081815260200182805461325190614eed565b801561329e5780601f106132735761010080835404028352916020019161329e565b820191906000526020600020905b81548152906001019060200180831161328157829003601f168201915b505050505081526020016002820180546132b790614eed565b80601f01602080910402602001604051908101604052809291908181526020018280546132e390614eed565b80156133305780601f1061330557610100808354040283529160200191613330565b820191906000526020600020905b81548152906001019060200180831161331357829003601f168201915b5050505050815260200160038201805461334990614eed565b80601f016020809104026020016040519081016040528092919081815260200182805461337590614eed565b80156133c25780601f10613397576101008083540402835291602001916133c2565b820191906000526020600020905b8154815290600101906020018083116133a557829003601f168201915b505050505081526020016004820180546133db90614eed565b80601f016020809104026020016040519081016040528092919081815260200182805461340790614eed565b80156134545780601f1061342957610100808354040283529160200191613454565b820191906000526020600020905b81548152906001019060200180831161343757829003601f168201915b5050505050815260200160058201805461346d90614eed565b80601f016020809104026020016040519081016040528092919081815260200182805461349990614eed565b80156134e65780601f106134bb576101008083540402835291602001916134e6565b820191906000526020600020905b8154815290600101906020018083116134c957829003601f168201915b505050505081526020016006820180546134ff90614eed565b80601f016020809104026020016040519081016040528092919081815260200182805461352b90614eed565b80156135785780601f1061354d57610100808354040283529160200191613578565b820191906000526020600020905b81548152906001019060200180831161355b57829003601f168201915b5050505050815260200160078201805461359190614eed565b80601f01602080910402602001604051908101604052809291908181526020018280546135bd90614eed565b801561360a5780601f106135df5761010080835404028352916020019161360a565b820191906000526020600020905b8154815290600101906020018083116135ed57829003601f168201915b5050505050815260200160088201805461362390614eed565b80601f016020809104026020016040519081016040528092919081815260200182805461364f90614eed565b801561369c5780601f106136715761010080835404028352916020019161369c565b820191906000526020600020905b81548152906001019060200180831161367f57829003601f168201915b505050505081526020016009820180546136b590614eed565b80601f01602080910402602001604051908101604052809291908181526020018280546136e190614eed565b801561372e5780601f106137035761010080835404028352916020019161372e565b820191906000526020600020905b81548152906001019060200180831161371157829003601f168201915b50505050508152602001600a8201805461374790614eed565b80601f016020809104026020016040519081016040528092919081815260200182805461377390614eed565b80156137c05780601f10613795576101008083540402835291602001916137c0565b820191906000526020600020905b8154815290600101906020018083116137a357829003601f168201915b50505050508152602001600b820180546137d990614eed565b80601f016020809104026020016040519081016040528092919081815260200182805461380590614eed565b80156138525780601f1061382757610100808354040283529160200191613852565b820191906000526020600020905b81548152906001019060200180831161383557829003601f168201915b505050505081525050838381518110613894577f4e487b7100000000000000000000000000000000000000000000000000000000600052603260045260246000fd5b602002602001018190525081806138aa90614f1f565b9250505b80806138b990614f1f565b915050613139565b50819350505050919050565b600460008673ffffffffffffffffffffffffffffffffffffffff1673ffffffffffffffffffffffffffffffffffffffff16815260200190815260200160002060009054906101000a900460ff166139da576003859080600181540180825580915050600190039060005260206000200160009091909190916101000a81548173ffffffffffffffffffffffffffffffffffffffff021916908373ffffffffffffffffffffffffffffffffffffffff1602179055506001600460008773ffffffffffffffffffffffffffffffffffffffff1673ffffffffffffffffffffffffffffffffffffffff16815260200190815260200160002060006101000a81548160ff0219169083151502179055505b60405180608001604052808581526020018481526020016139fa8461170b565b8152602001821515815250600260008773ffffffffffffffffffffffffffffffffffffffff1673ffffffffffffffffffffffffffffffffffffffff1681526020019081526020016000206000820151816000019080519060200190613a60929190613b95565b506020820151816001019080519060200190613a7d929190613b95565b506040820151816002019080519060200190613a9a929190613b95565b5060608201518160030160006101000a81548160ff02191690831515021790555090505081600760008773ffffffffffffffffffffffffffffffffffffffff1673ffffffffffffffffffffffffffffffffffffffff16815260200190815260200160002060006101000a81548160ff02191690836002811115613b46577f4e487b7100000000000000000000000000000000000000000000000000000000600052602160045260246000fd5b02179055507f09f6343983a89cd9ef42910b46255d2371f6d6a76f4f526c92ffac9dbc17ba118585613b778561170b565b604051613b8693929190614828565b60405180910390a15050505050565b828054613ba190614eed565b90600052602060002090601f016020900481019282613bc35760008555613c0a565b82601f10613bdc57805160ff1916838001178555613c0a565b82800160010185558215613c0a579182015b82811115613c09578251825591602001919060010190613bee565b5b509050613c179190613d09565b5090565b828054613c2790614eed565b90600052602060002090601f016020900481019282613c495760008555613c97565b82601f10613c5a5780548555613c97565b82800160010185558215613c9757600052602060002091601f016020900482015b82811115613c96578254825591600101919060010190613c7b565b5b509050613ca49190613d09565b5090565b6040518061018001604052806000815260200160608152602001606081526020016060815260200160608152602001606081526020016060815260200160608152602001606081526020016060815260200160608152602001606081525090565b5b80821115613d22576000816000905550600101613d0a565b5090565b6000613d39613d3484614d32565b614d01565b905082815260208101848484011115613d5157600080fd5b613d5c848285614eab565b509392505050565b600081359050613d7381615049565b92915050565b600081359050613d8881615060565b92915050565b600081359050613d9d81615077565b92915050565b600082601f830112613db457600080fd5b8135613dc4848260208601613d26565b91505092915050565b600081359050613ddc81615087565b92915050565b600060208284031215613df457600080fd5b6000613e0284828501613d64565b91505092915050565b600080600080600060a08688031215613e2357600080fd5b6000613e3188828901613d64565b955050602086013567ffffffffffffffff811115613e4e57600080fd5b613e5a88828901613da3565b945050604086013567ffffffffffffffff811115613e7757600080fd5b613e8388828901613da3565b9350506060613e9488828901613d8e565b9250506080613ea588828901613d79565b9150509295509295909350565b600060208284031215613ec457600080fd5b6000613ed284828501613d8e565b91505092915050565b600060208284031215613eed57600080fd5b600082013567ffffffffffffffff811115613f0757600080fd5b613f1384828501613da3565b91505092915050565b6000806000806000806000806000806101408b8d031215613f3c57600080fd5b60008b013567ffffffffffffffff811115613f5657600080fd5b613f628d828e01613da3565b9a505060208b013567ffffffffffffffff811115613f7f57600080fd5b613f8b8d828e01613da3565b99505060408b013567ffffffffffffffff811115613fa857600080fd5b613fb48d828e01613da3565b98505060608b013567ffffffffffffffff811115613fd157600080fd5b613fdd8d828e01613da3565b97505060808b013567ffffffffffffffff811115613ffa57600080fd5b6140068d828e01613da3565b96505060a08b013567ffffffffffffffff81111561402357600080fd5b61402f8d828e01613da3565b95505060c08b013567ffffffffffffffff81111561404c57600080fd5b6140588d828e01613da3565b94505060e08b013567ffffffffffffffff81111561407557600080fd5b6140818d828e01613da3565b9350506101008b013567ffffffffffffffff81111561409f57600080fd5b6140ab8d828e01613da3565b9250506101208b013567ffffffffffffffff8111156140c957600080fd5b6140d58d828e01613da3565b9150509295989b9194979a5092959850565b60008060008060008060c0878903121561410057600080fd5b600087013567ffffffffffffffff81111561411a57600080fd5b61412689828a01613da3565b965050602087013567ffffffffffffffff81111561414357600080fd5b61414f89828a01613da3565b955050604087013567ffffffffffffffff81111561416c57600080fd5b61417889828a01613da3565b945050606087013567ffffffffffffffff81111561419557600080fd5b6141a189828a01613da3565b93505060806141b289828a01613dcd565b92505060a06141c389828a01613dcd565b9150509295509295509295565b6000602082840312156141e257600080fd5b60006141f084828501613dcd565b91505092915050565b6000806040838503121561420c57600080fd5b600061421a85828601613dcd565b925050602061422b85828601613dcd565b9150509250929050565b6000614241838361468e565b905092915050565b61425281614e3e565b82525050565b600061426382614d87565b61426d8185614daa565b93508360208202850161427f85614d62565b8060005b858110156142bb578484038952815161429c8582614235565b94506142a783614d9d565b925060208a01995050600181019050614283565b50829750879550505050505092915050565b6142d681614e50565b82525050565b600081546142e981614eed565b6142f38186614dbb565b9450600182166000811461430e576001811461431f57614352565b60ff19831686528186019350614352565b61432885614d72565b60005b8381101561434a5781548189015260018201915060208101905061432b565b838801955050505b50505092915050565b61436481614e99565b82525050565b600061437582614d92565b61437f8185614dc6565b935061438f818560208601614eba565b61439881615024565b840191505092915050565b60006143ae82614d92565b6143b88185614dd7565b93506143c8818560208601614eba565b6143d181615024565b840191505092915050565b60006143e9601d83614dd7565b91507f4f6e6c792041444d494e2063616e206164642063616e646964617465730000006000830152602082019050919050565b6000614429601a83614dd7565b91507f43616e646964617465206d75737420626520617070726f7665640000000000006000830152602082019050919050565b6000614469603183614dd7565b91507f54686f69206769616e206b657420746875632070686169206c6f6e20686f6e2060008301527f74686f69206769616e20626174206461750000000000000000000000000000006020830152604082019050919050565b60006144cf601383614dd7565b91507f43616e646964617465206e6f7420666f756e64000000000000000000000000006000830152602082019050919050565b600061450f601783614dd7565b91507f456c656374696f6e20646f6573206e6f742065786973740000000000000000006000830152602082019050919050565b600061454f602583614dd7565b91507f43616e64696461746520697320616c726561647920696e207468697320656c6560008301527f6374696f6e0000000000000000000000000000000000000000000000000000006020830152604082019050919050565b60006145b5601883614dd7565b91507f43616e64696461746520646f6573206e6f7420657869737400000000000000006000830152602082019050919050565b60006145f5601283614dd7565b91507f456c656374696f6e206e6f7420666f756e6400000000000000000000000000006000830152602082019050919050565b6000614635602583614dd7565b91507f4f6e6c7920494e53504543544f522063616e20617070726f76652063616e646960008301527f64617465730000000000000000000000000000000000000000000000000000006020830152604082019050919050565b6000610180830160008301516146a760008601826147d8565b50602083015184820360208601526146bf828261436a565b915050604083015184820360408601526146d9828261436a565b915050606083015184820360608601526146f3828261436a565b9150506080830151848203608086015261470d828261436a565b91505060a083015184820360a0860152614727828261436a565b91505060c083015184820360c0860152614741828261436a565b91505060e083015184820360e086015261475b828261436a565b915050610100830151848203610100860152614777828261436a565b915050610120830151848203610120860152614793828261436a565b9150506101408301518482036101408601526147af828261436a565b9150506101608301518482036101608601526147cb828261436a565b9150508091505092915050565b6147e181614e8f565b82525050565b6147f081614e8f565b82525050565b600061480282846142dc565b915081905092915050565b60006020820190506148226000830184614249565b92915050565b600060608201905061483d6000830186614249565b818103602083015261484f81856143a3565b9050818103604083015261486381846143a3565b9050949350505050565b600060208201905081810360008301526148878184614258565b905092915050565b60006020820190506148a460008301846142cd565b92915050565b60006020820190506148bf600083018461435b565b92915050565b600060208201905081810360008301526148df81846143a3565b905092915050565b6000608082019050818103600083015261490181876143a3565b9050818103602083015261491581866143a3565b9050818103604083015261492981856143a3565b905061493860608301846142cd565b95945050505050565b6000602082019050818103600083015261495a816143dc565b9050919050565b6000602082019050818103600083015261497a8161441c565b9050919050565b6000602082019050818103600083015261499a8161445c565b9050919050565b600060208201905081810360008301526149ba816144c2565b9050919050565b600060208201905081810360008301526149da81614502565b9050919050565b600060208201905081810360008301526149fa81614542565b9050919050565b60006020820190508181036000830152614a1a816145a8565b9050919050565b60006020820190508181036000830152614a3a816145e8565b9050919050565b60006020820190508181036000830152614a5a81614628565b9050919050565b6000602082019050614a7660008301846147e7565b92915050565b6000604082019050614a9160008301856147e7565b8181036020830152614aa381846143a3565b90509392505050565b600061018082019050614ac2600083018f6147e7565b8181036020830152614ad4818e6143a3565b90508181036040830152614ae8818d6143a3565b90508181036060830152614afc818c6143a3565b90508181036080830152614b10818b6143a3565b905081810360a0830152614b24818a6143a3565b905081810360c0830152614b3881896143a3565b905081810360e0830152614b4c81886143a3565b9050818103610100830152614b6181876143a3565b9050818103610120830152614b7681866143a3565b9050818103610140830152614b8b81856143a3565b9050818103610160830152614ba081846143a3565b90509d9c50505050505050505050505050565b600060e082019050614bc8600083018a6147e7565b8181036020830152614bda81896143a3565b90508181036040830152614bee81886143a3565b90508181036060830152614c0281876143a3565b90508181036080830152614c1681866143a3565b9050614c2560a08301856147e7565b614c3260c08301846147e7565b98975050505050505050565b600061010082019050614c54600083018b6147e7565b8181036020830152614c66818a6143a3565b90508181036040830152614c7a81896143a3565b90508181036060830152614c8e81886143a3565b90508181036080830152614ca281876143a3565b9050614cb160a08301866147e7565b614cbe60c08301856147e7565b614ccb60e08301846147e7565b9998505050505050505050565b6000604082019050614ced60008301856147e7565b614cfa60208301846147e7565b9392505050565b6000604051905081810181811067ffffffffffffffff82111715614d2857614d27614ff5565b5b8060405250919050565b600067ffffffffffffffff821115614d4d57614d4c614ff5565b5b601f19601f8301169050602081019050919050565b6000819050602082019050919050565b60008190508160005260206000209050919050565b600081519050919050565b600081519050919050565b6000602082019050919050565b600082825260208201905092915050565b600081905092915050565b600082825260208201905092915050565b600082825260208201905092915050565b6000614df382614e8f565b9150614dfe83614e8f565b9250827fffffffffffffffffffffffffffffffffffffffffffffffffffffffffffffffff03821115614e3357614e32614f68565b5b828201905092915050565b6000614e4982614e6f565b9050919050565b60008115159050919050565b6000819050614e6a82615035565b919050565b600073ffffffffffffffffffffffffffffffffffffffff82169050919050565b6000819050919050565b6000614ea482614e5c565b9050919050565b82818337600083830152505050565b60005b83811015614ed8578082015181840152602081019050614ebd565b83811115614ee7576000848401525b50505050565b60006002820490506001821680614f0557607f821691505b60208210811415614f1957614f18614fc6565b5b50919050565b6000614f2a82614e8f565b91507fffffffffffffffffffffffffffffffffffffffffffffffffffffffffffffffff821415614f5d57614f5c614f68565b5b600182019050919050565b7f4e487b7100000000000000000000000000000000000000000000000000000000600052601160045260246000fd5b7f4e487b7100000000000000000000000000000000000000000000000000000000600052602160045260246000fd5b7f4e487b7100000000000000000000000000000000000000000000000000000000600052602260045260246000fd5b7f4e487b7100000000000000000000000000000000000000000000000000000000600052604160045260246000fd5b6000601f19601f8301169050919050565b6003811061504657615045614f97565b5b50565b61505281614e3e565b811461505d57600080fd5b50565b61506981614e50565b811461507457600080fd5b50565b6003811061508457600080fd5b50565b61509081614e8f565b811461509b57600080fd5b5056fea264697066735822122068e01dff498c94351b27c6787e01b4fe92b131fa5f4e49f988fe5b621213c3a864736f6c63430008000033",
  "immutableReferences": {},
  "source": "// SPDX-License-Identifier: MIT\r\npragma solidity ^0.8.0;\r\n\r\ncontract Election {\r\n    struct Candidate {\r\n        uint256 id;\r\n        string fullName;\r\n        string birthDate;\r\n        string gender;\r\n        string nationality;\r\n        string ethnicity;\r\n        string hometown;\r\n        string education;\r\n        string degree;\r\n        string occupation;\r\n        string workplace;\r\n        string status;\r\n    }\r\n\r\n    struct ElectionDetails {\r\n        uint id;\r\n        string name;\r\n        string tinh;\r\n        string quan;\r\n        string phuong;\r\n        uint startTime;\r\n        uint endTime;\r\n        mapping(uint => Candidate) candidates;\r\n        uint candidateCount;\r\n    }\r\n\r\n    struct Participant {\r\n        string name;\r\n        string phone;\r\n        string role; // \"ADMIN\", \"INSPECTOR\", \"VOTER\"\r\n        bool isActive;\r\n    }\r\n\r\n    mapping(uint => ElectionDetails) public elections;\r\n    uint public electionCount;\r\n\r\n    mapping(address => Participant) public participants;\r\n    address[] public participantAddresses;\r\n    mapping(address => bool) public participantRegistered;\r\n\r\n    mapping(uint256 => Candidate) public candidates;\r\n    uint256 public candidateCount;\r\n\r\n    event CandidateAdded(uint256 id, string fullName);\r\n    event ElectionCreated(\r\n        uint id,\r\n        string name,\r\n        string tinh,\r\n        string quan,\r\n        string phuong,\r\n        uint startTime,\r\n        uint endTime\r\n    );\r\n    event ParticipantRegistered(address participant, string name, string role);\r\n\r\n    enum Role {\r\n        NONE,\r\n        ADMIN,\r\n        INSPECTOR\r\n    }\r\n    mapping(address => Role) public participantRoles;\r\n\r\n    function setParticipant(\r\n        address _participant,\r\n        string memory _name,\r\n        string memory _phone,\r\n        Role _role,\r\n        bool _isActive\r\n    ) public {\r\n        if (!participantRegistered[_participant]) {\r\n            participantAddresses.push(_participant);\r\n            participantRegistered[_participant] = true;\r\n        }\r\n        participants[_participant] = Participant(\r\n            _name,\r\n            _phone,\r\n            getRoleString(_role),\r\n            _isActive\r\n        );\r\n        participantRoles[_participant] = _role;\r\n        emit ParticipantRegistered(_participant, _name, getRoleString(_role));\r\n    }\r\n\r\n    function getRoleString(Role _role) public pure returns (string memory) {\r\n        if (_role == Role.ADMIN) {\r\n            return \"ADMIN\";\r\n        } else if (_role == Role.INSPECTOR) {\r\n            return \"INSPECTOR\";\r\n        } else {\r\n            return \"NONE\";\r\n        }\r\n    }\r\n    \r\n    function createElection(\r\n        string memory _name,\r\n        string memory _tinh,\r\n        string memory _quan,\r\n        string memory _phuong,\r\n        uint _startTime,\r\n        uint _endTime\r\n    ) public {\r\n        require(\r\n            _endTime > _startTime,\r\n            \"Thoi gian ket thuc phai lon hon thoi gian bat dau\"\r\n        );\r\n        require(\r\n            participantRoles[msg.sender] == Role.ADMIN,\r\n            \"Only ADMIN can add candidates\"\r\n        );\r\n\r\n        uint newElectionId = electionCount + 1;\r\n        elections[newElectionId].id = newElectionId;\r\n        elections[newElectionId].name = _name;\r\n        elections[newElectionId].tinh = _tinh;\r\n        elections[newElectionId].quan = _quan;\r\n        elections[newElectionId].phuong = _phuong;\r\n        elections[newElectionId].startTime = _startTime;\r\n        elections[newElectionId].endTime = _endTime;\r\n        elections[newElectionId].candidateCount = 0;\r\n\r\n        electionCount = newElectionId;\r\n\r\n        emit ElectionCreated(\r\n            newElectionId,\r\n            _name,\r\n            _tinh,\r\n            _quan,\r\n            _phuong,\r\n            _startTime,\r\n            _endTime\r\n        );\r\n    }\r\n\r\n    function addCandidate(\r\n        string memory _fullName,\r\n        string memory _birthDate,\r\n        string memory _gender,\r\n        string memory _nationality,\r\n        string memory _ethnicity,\r\n        string memory _hometown,\r\n        string memory _education,\r\n        string memory _degree,\r\n        string memory _occupation,\r\n        string memory _workplace\r\n    ) public {\r\n        require(\r\n            participantRoles[msg.sender] == Role.ADMIN,\r\n            \"Only ADMIN can add candidates\"\r\n        );\r\n\r\n        candidateCount++;\r\n        candidates[candidateCount] = Candidate(\r\n            candidateCount,\r\n            _fullName,\r\n            _birthDate,\r\n            _gender,\r\n            _nationality,\r\n            _ethnicity,\r\n            _hometown,\r\n            _education,\r\n            _degree,\r\n            _occupation,\r\n            _workplace,\r\n            \"pending\"\r\n        );\r\n\r\n        emit CandidateAdded(candidateCount, _fullName);\r\n    }\r\n    event LogCandidateId(uint256 candidateId);\r\n\r\n    function getCandidate(uint256 _candidateId) public returns (\r\n            uint256,\r\n            string memory,\r\n            string memory,\r\n            string memory,\r\n            string memory,\r\n            string memory,\r\n            string memory,\r\n            string memory,\r\n            string memory,\r\n            string memory,\r\n            string memory,\r\n            string memory\r\n        )\r\n    {\r\n        require(\r\n            _candidateId > 0 && _candidateId <= candidateCount,\r\n            \"Candidate does not exist\"\r\n        );\r\n\r\n        emit LogCandidateId(_candidateId);\r\n\r\n        Candidate storage candidate = candidates[_candidateId];\r\n\r\n        return (\r\n            candidate.id,\r\n            candidate.fullName,\r\n            candidate.birthDate,\r\n            candidate.gender,\r\n            candidate.nationality,\r\n            candidate.ethnicity,\r\n            candidate.hometown,\r\n            candidate.education,\r\n            candidate.degree,\r\n            candidate.occupation,\r\n            candidate.workplace,\r\n            candidate.status\r\n        );\r\n    }\r\n\r\n    function approveCandidate(uint256 _candidateId) public {\r\n        require(\r\n            participantRoles[msg.sender] == Role.INSPECTOR,\r\n            \"Only INSPECTOR can approve candidates\"\r\n        );\r\n        require(candidates[_candidateId].id != 0, \"Candidate does not exist\");\r\n\r\n        candidates[_candidateId].status = \"approved\";\r\n    }\r\n\r\n    function getApprovedCandidatesByHometown(string memory _hometown) public view returns (Candidate[] memory) {\r\n        uint count = 0;\r\n\r\n        // m s lng ng vin hp l\r\n        for (uint i = 1; i <= candidateCount; i++) {\r\n            if (\r\n                keccak256(bytes(candidates[i].hometown)) == keccak256(bytes(_hometown)) &&\r\n                keccak256(bytes(candidates[i].status)) == keccak256(bytes(\"approved\"))\r\n            ) {\r\n                count++;\r\n            }\r\n        }\r\n\r\n        // To danh sch ng vin hp l\r\n        Candidate[] memory approvedCandidates = new Candidate[](count);\r\n        uint index = 0;\r\n\r\n        for (uint i = 1; i <= candidateCount; i++) {\r\n            if (\r\n                keccak256(bytes(candidates[i].hometown)) == keccak256(bytes(_hometown)) &&\r\n                keccak256(bytes(candidates[i].status)) == keccak256(bytes(\"approved\"))\r\n            ) {\r\n                approvedCandidates[index] = candidates[i];\r\n                index++;\r\n            }\r\n        }\r\n\r\n        return approvedCandidates;\r\n    }\r\n\r\n\r\n    function getElection(uint _id) public view returns (\r\n        uint,\r\n        string memory,\r\n        string memory,\r\n        string memory,\r\n        string memory,\r\n        uint,\r\n        uint\r\n    ) {\r\n        require(_id > 0 && _id <= electionCount, \"Election does not exist\");\r\n\r\n        ElectionDetails storage election = elections[_id];\r\n\r\n        return (\r\n            election.id,\r\n            election.name,\r\n            election.tinh,\r\n            election.quan,\r\n            election.phuong,\r\n            election.startTime,\r\n            election.endTime\r\n        );\r\n    }\r\n\r\n    function getCandidatesInElection(uint _electionId) public view returns (Candidate[] memory) {\r\n        require(_electionId > 0 && _electionId <= electionCount, \"Election does not exist\");\r\n\r\n        uint count = elections[_electionId].candidateCount;\r\n        Candidate[] memory candidateList = new Candidate[](count);\r\n        uint index = 0;\r\n\r\n        for (uint i = 1; i <= count; i++) {\r\n            candidateList[index] = elections[_electionId].candidates[i];\r\n            index++;\r\n        }\r\n\r\n        return candidateList;\r\n    }\r\n\r\n    // Mapping  kim tra ng vin  c trong cuc bu c cha\r\n    mapping(uint => mapping(uint => bool)) public isCandidateInElection;\r\n        function addCandidateToElection(uint _electionId, uint _candidateId) public {\r\n        require(participantRoles[msg.sender] == Role.ADMIN, \"Only ADMIN can add candidates\");\r\n        require(elections[_electionId].id != 0, \"Election not found\");\r\n        require(candidates[_candidateId].id != 0, \"Candidate not found\");\r\n        require(keccak256(bytes(candidates[_candidateId].status)) == keccak256(bytes(\"approved\")), \"Candidate must be approved\");\r\n        require(!isCandidateInElection[_electionId][_candidateId], \"Candidate is already in this election\");\r\n\r\n        ElectionDetails storage election = elections[_electionId];\r\n\r\n        // Thm ng vin vo danh sch cuc bu c\r\n        election.candidateCount++;\r\n        election.candidates[election.candidateCount] = candidates[_candidateId];\r\n\r\n        // nh du ng vin  c thm vo cuc bu c ny\r\n        isCandidateInElection[_electionId][_candidateId] = true;\r\n\r\n        emit CandidateAddedToElection(_electionId, _candidateId);\r\n    }\r\n\r\n    event CandidateAddedToElection(uint electionId, uint candidateId);\r\n}",
  "sourcePath": "C:\\Users\\minhh\\Downloads\\Admin_System-main (3)\\contracts\\Election.sol",
  "compiler": {
    "name": "solc",
    "version": "0.8.0+commit.c7dfd78e.Emscripten.clang"
  },
  "schemaVersion": "3.4.16",
  "updatedAt": "2025-03-30T00:49:07.334Z",
  "networkType": "ethereum",
  "devdoc": {
    "kind": "dev",
    "methods": {},
    "version": 1
  },
  "userdoc": {
    "kind": "user",
    "methods": {},
    "version": 1
  }
}